
USB demo.elf:     file format elf32-littlearm

Sections:
Idx Name          Size      VMA       LMA       File off  Algn
  0 .isr_vector   000000c0  08000000  08000000  00010000  2**0
                  CONTENTS, ALLOC, LOAD, READONLY, DATA
  1 .text         00003b5c  080000c0  080000c0  000100c0  2**2
                  CONTENTS, ALLOC, LOAD, READONLY, CODE
  2 .rodata       00000218  08003c1c  08003c1c  00013c1c  2**2
                  CONTENTS, ALLOC, LOAD, READONLY, DATA
  3 .ARM.extab    00000000  08003e34  08003e34  00020078  2**0
                  CONTENTS
  4 .ARM          00000000  08003e34  08003e34  00020078  2**0
                  CONTENTS
  5 .preinit_array 00000000  08003e34  08003e34  00020078  2**0
                  CONTENTS, ALLOC, LOAD, DATA
  6 .init_array   00000004  08003e34  08003e34  00013e34  2**2
                  CONTENTS, ALLOC, LOAD, DATA
  7 .fini_array   00000004  08003e38  08003e38  00013e38  2**2
                  CONTENTS, ALLOC, LOAD, DATA
  8 .data         00000078  20000000  08003e3c  00020000  2**2
                  CONTENTS, ALLOC, LOAD, DATA
  9 .bss          00000198  20000078  08003eb4  00020078  2**2
                  ALLOC
 10 ._user_heap_stack 00000600  20000210  08003eb4  00020210  2**0
                  ALLOC
 11 .ARM.attributes 00000028  00000000  00000000  00020078  2**0
                  CONTENTS, READONLY
 12 .debug_info   0000ab99  00000000  00000000  000200a0  2**0
                  CONTENTS, READONLY, DEBUGGING, OCTETS
 13 .debug_abbrev 00001825  00000000  00000000  0002ac39  2**0
                  CONTENTS, READONLY, DEBUGGING, OCTETS
 14 .debug_aranges 00000908  00000000  00000000  0002c460  2**3
                  CONTENTS, READONLY, DEBUGGING, OCTETS
 15 .debug_ranges 00000860  00000000  00000000  0002cd68  2**3
                  CONTENTS, READONLY, DEBUGGING, OCTETS
 16 .debug_macro  00011df3  00000000  00000000  0002d5c8  2**0
                  CONTENTS, READONLY, DEBUGGING, OCTETS
 17 .debug_line   0000c416  00000000  00000000  0003f3bb  2**0
                  CONTENTS, READONLY, DEBUGGING, OCTETS
 18 .debug_str    00069f90  00000000  00000000  0004b7d1  2**0
                  CONTENTS, READONLY, DEBUGGING, OCTETS
 19 .comment      00000050  00000000  00000000  000b5761  2**0
                  CONTENTS, READONLY
 20 .debug_frame  00002348  00000000  00000000  000b57b4  2**2
                  CONTENTS, READONLY, DEBUGGING, OCTETS

Disassembly of section .text:

080000c0 <__do_global_dtors_aux>:
 80000c0:	b510      	push	{r4, lr}
 80000c2:	4c06      	ldr	r4, [pc, #24]	; (80000dc <__do_global_dtors_aux+0x1c>)
 80000c4:	7823      	ldrb	r3, [r4, #0]
 80000c6:	2b00      	cmp	r3, #0
 80000c8:	d107      	bne.n	80000da <__do_global_dtors_aux+0x1a>
 80000ca:	4b05      	ldr	r3, [pc, #20]	; (80000e0 <__do_global_dtors_aux+0x20>)
 80000cc:	2b00      	cmp	r3, #0
 80000ce:	d002      	beq.n	80000d6 <__do_global_dtors_aux+0x16>
 80000d0:	4804      	ldr	r0, [pc, #16]	; (80000e4 <__do_global_dtors_aux+0x24>)
 80000d2:	e000      	b.n	80000d6 <__do_global_dtors_aux+0x16>
 80000d4:	bf00      	nop
 80000d6:	2301      	movs	r3, #1
 80000d8:	7023      	strb	r3, [r4, #0]
 80000da:	bd10      	pop	{r4, pc}
 80000dc:	20000078 	.word	0x20000078
 80000e0:	00000000 	.word	0x00000000
 80000e4:	08003c04 	.word	0x08003c04

080000e8 <frame_dummy>:
 80000e8:	4b04      	ldr	r3, [pc, #16]	; (80000fc <frame_dummy+0x14>)
 80000ea:	b510      	push	{r4, lr}
 80000ec:	2b00      	cmp	r3, #0
 80000ee:	d003      	beq.n	80000f8 <frame_dummy+0x10>
 80000f0:	4903      	ldr	r1, [pc, #12]	; (8000100 <frame_dummy+0x18>)
 80000f2:	4804      	ldr	r0, [pc, #16]	; (8000104 <frame_dummy+0x1c>)
 80000f4:	e000      	b.n	80000f8 <frame_dummy+0x10>
 80000f6:	bf00      	nop
 80000f8:	bd10      	pop	{r4, pc}
 80000fa:	46c0      	nop			; (mov r8, r8)
 80000fc:	00000000 	.word	0x00000000
 8000100:	2000007c 	.word	0x2000007c
 8000104:	08003c04 	.word	0x08003c04

08000108 <strlen>:
 8000108:	2300      	movs	r3, #0
 800010a:	5cc2      	ldrb	r2, [r0, r3]
 800010c:	3301      	adds	r3, #1
 800010e:	2a00      	cmp	r2, #0
 8000110:	d1fb      	bne.n	800010a <strlen+0x2>
 8000112:	1e58      	subs	r0, r3, #1
 8000114:	4770      	bx	lr
	...

08000118 <__gnu_thumb1_case_shi>:
 8000118:	b403      	push	{r0, r1}
 800011a:	4671      	mov	r1, lr
 800011c:	0849      	lsrs	r1, r1, #1
 800011e:	0040      	lsls	r0, r0, #1
 8000120:	0049      	lsls	r1, r1, #1
 8000122:	5e09      	ldrsh	r1, [r1, r0]
 8000124:	0049      	lsls	r1, r1, #1
 8000126:	448e      	add	lr, r1
 8000128:	bc03      	pop	{r0, r1}
 800012a:	4770      	bx	lr

0800012c <__udivsi3>:
 800012c:	2200      	movs	r2, #0
 800012e:	0843      	lsrs	r3, r0, #1
 8000130:	428b      	cmp	r3, r1
 8000132:	d374      	bcc.n	800021e <__udivsi3+0xf2>
 8000134:	0903      	lsrs	r3, r0, #4
 8000136:	428b      	cmp	r3, r1
 8000138:	d35f      	bcc.n	80001fa <__udivsi3+0xce>
 800013a:	0a03      	lsrs	r3, r0, #8
 800013c:	428b      	cmp	r3, r1
 800013e:	d344      	bcc.n	80001ca <__udivsi3+0x9e>
 8000140:	0b03      	lsrs	r3, r0, #12
 8000142:	428b      	cmp	r3, r1
 8000144:	d328      	bcc.n	8000198 <__udivsi3+0x6c>
 8000146:	0c03      	lsrs	r3, r0, #16
 8000148:	428b      	cmp	r3, r1
 800014a:	d30d      	bcc.n	8000168 <__udivsi3+0x3c>
 800014c:	22ff      	movs	r2, #255	; 0xff
 800014e:	0209      	lsls	r1, r1, #8
 8000150:	ba12      	rev	r2, r2
 8000152:	0c03      	lsrs	r3, r0, #16
 8000154:	428b      	cmp	r3, r1
 8000156:	d302      	bcc.n	800015e <__udivsi3+0x32>
 8000158:	1212      	asrs	r2, r2, #8
 800015a:	0209      	lsls	r1, r1, #8
 800015c:	d065      	beq.n	800022a <__udivsi3+0xfe>
 800015e:	0b03      	lsrs	r3, r0, #12
 8000160:	428b      	cmp	r3, r1
 8000162:	d319      	bcc.n	8000198 <__udivsi3+0x6c>
 8000164:	e000      	b.n	8000168 <__udivsi3+0x3c>
 8000166:	0a09      	lsrs	r1, r1, #8
 8000168:	0bc3      	lsrs	r3, r0, #15
 800016a:	428b      	cmp	r3, r1
 800016c:	d301      	bcc.n	8000172 <__udivsi3+0x46>
 800016e:	03cb      	lsls	r3, r1, #15
 8000170:	1ac0      	subs	r0, r0, r3
 8000172:	4152      	adcs	r2, r2
 8000174:	0b83      	lsrs	r3, r0, #14
 8000176:	428b      	cmp	r3, r1
 8000178:	d301      	bcc.n	800017e <__udivsi3+0x52>
 800017a:	038b      	lsls	r3, r1, #14
 800017c:	1ac0      	subs	r0, r0, r3
 800017e:	4152      	adcs	r2, r2
 8000180:	0b43      	lsrs	r3, r0, #13
 8000182:	428b      	cmp	r3, r1
 8000184:	d301      	bcc.n	800018a <__udivsi3+0x5e>
 8000186:	034b      	lsls	r3, r1, #13
 8000188:	1ac0      	subs	r0, r0, r3
 800018a:	4152      	adcs	r2, r2
 800018c:	0b03      	lsrs	r3, r0, #12
 800018e:	428b      	cmp	r3, r1
 8000190:	d301      	bcc.n	8000196 <__udivsi3+0x6a>
 8000192:	030b      	lsls	r3, r1, #12
 8000194:	1ac0      	subs	r0, r0, r3
 8000196:	4152      	adcs	r2, r2
 8000198:	0ac3      	lsrs	r3, r0, #11
 800019a:	428b      	cmp	r3, r1
 800019c:	d301      	bcc.n	80001a2 <__udivsi3+0x76>
 800019e:	02cb      	lsls	r3, r1, #11
 80001a0:	1ac0      	subs	r0, r0, r3
 80001a2:	4152      	adcs	r2, r2
 80001a4:	0a83      	lsrs	r3, r0, #10
 80001a6:	428b      	cmp	r3, r1
 80001a8:	d301      	bcc.n	80001ae <__udivsi3+0x82>
 80001aa:	028b      	lsls	r3, r1, #10
 80001ac:	1ac0      	subs	r0, r0, r3
 80001ae:	4152      	adcs	r2, r2
 80001b0:	0a43      	lsrs	r3, r0, #9
 80001b2:	428b      	cmp	r3, r1
 80001b4:	d301      	bcc.n	80001ba <__udivsi3+0x8e>
 80001b6:	024b      	lsls	r3, r1, #9
 80001b8:	1ac0      	subs	r0, r0, r3
 80001ba:	4152      	adcs	r2, r2
 80001bc:	0a03      	lsrs	r3, r0, #8
 80001be:	428b      	cmp	r3, r1
 80001c0:	d301      	bcc.n	80001c6 <__udivsi3+0x9a>
 80001c2:	020b      	lsls	r3, r1, #8
 80001c4:	1ac0      	subs	r0, r0, r3
 80001c6:	4152      	adcs	r2, r2
 80001c8:	d2cd      	bcs.n	8000166 <__udivsi3+0x3a>
 80001ca:	09c3      	lsrs	r3, r0, #7
 80001cc:	428b      	cmp	r3, r1
 80001ce:	d301      	bcc.n	80001d4 <__udivsi3+0xa8>
 80001d0:	01cb      	lsls	r3, r1, #7
 80001d2:	1ac0      	subs	r0, r0, r3
 80001d4:	4152      	adcs	r2, r2
 80001d6:	0983      	lsrs	r3, r0, #6
 80001d8:	428b      	cmp	r3, r1
 80001da:	d301      	bcc.n	80001e0 <__udivsi3+0xb4>
 80001dc:	018b      	lsls	r3, r1, #6
 80001de:	1ac0      	subs	r0, r0, r3
 80001e0:	4152      	adcs	r2, r2
 80001e2:	0943      	lsrs	r3, r0, #5
 80001e4:	428b      	cmp	r3, r1
 80001e6:	d301      	bcc.n	80001ec <__udivsi3+0xc0>
 80001e8:	014b      	lsls	r3, r1, #5
 80001ea:	1ac0      	subs	r0, r0, r3
 80001ec:	4152      	adcs	r2, r2
 80001ee:	0903      	lsrs	r3, r0, #4
 80001f0:	428b      	cmp	r3, r1
 80001f2:	d301      	bcc.n	80001f8 <__udivsi3+0xcc>
 80001f4:	010b      	lsls	r3, r1, #4
 80001f6:	1ac0      	subs	r0, r0, r3
 80001f8:	4152      	adcs	r2, r2
 80001fa:	08c3      	lsrs	r3, r0, #3
 80001fc:	428b      	cmp	r3, r1
 80001fe:	d301      	bcc.n	8000204 <__udivsi3+0xd8>
 8000200:	00cb      	lsls	r3, r1, #3
 8000202:	1ac0      	subs	r0, r0, r3
 8000204:	4152      	adcs	r2, r2
 8000206:	0883      	lsrs	r3, r0, #2
 8000208:	428b      	cmp	r3, r1
 800020a:	d301      	bcc.n	8000210 <__udivsi3+0xe4>
 800020c:	008b      	lsls	r3, r1, #2
 800020e:	1ac0      	subs	r0, r0, r3
 8000210:	4152      	adcs	r2, r2
 8000212:	0843      	lsrs	r3, r0, #1
 8000214:	428b      	cmp	r3, r1
 8000216:	d301      	bcc.n	800021c <__udivsi3+0xf0>
 8000218:	004b      	lsls	r3, r1, #1
 800021a:	1ac0      	subs	r0, r0, r3
 800021c:	4152      	adcs	r2, r2
 800021e:	1a41      	subs	r1, r0, r1
 8000220:	d200      	bcs.n	8000224 <__udivsi3+0xf8>
 8000222:	4601      	mov	r1, r0
 8000224:	4152      	adcs	r2, r2
 8000226:	4610      	mov	r0, r2
 8000228:	4770      	bx	lr
 800022a:	e7ff      	b.n	800022c <__udivsi3+0x100>
 800022c:	b501      	push	{r0, lr}
 800022e:	2000      	movs	r0, #0
 8000230:	f000 f806 	bl	8000240 <__aeabi_idiv0>
 8000234:	bd02      	pop	{r1, pc}
 8000236:	46c0      	nop			; (mov r8, r8)

08000238 <__aeabi_uidivmod>:
 8000238:	2900      	cmp	r1, #0
 800023a:	d0f7      	beq.n	800022c <__udivsi3+0x100>
 800023c:	e776      	b.n	800012c <__udivsi3>
 800023e:	4770      	bx	lr

08000240 <__aeabi_idiv0>:
 8000240:	4770      	bx	lr
 8000242:	46c0      	nop			; (mov r8, r8)

08000244 <debugPrintln>:

/* Private user code ---------------------------------------------------------*/
/* USER CODE BEGIN 0 */

//General purpose function to send a char array over the UART and to automatically send a new line after it
void debugPrintln(UART_HandleTypeDef *uart_handle, char _out[]) {
 8000244:	b580      	push	{r7, lr}
 8000246:	b084      	sub	sp, #16
 8000248:	af00      	add	r7, sp, #0
 800024a:	6078      	str	r0, [r7, #4]
 800024c:	6039      	str	r1, [r7, #0]
	HAL_UART_Transmit(uart_handle, (uint8_t *) _out, strlen(_out), 60);
 800024e:	683b      	ldr	r3, [r7, #0]
 8000250:	0018      	movs	r0, r3
 8000252:	f7ff ff59 	bl	8000108 <strlen>
 8000256:	0003      	movs	r3, r0
 8000258:	b29a      	uxth	r2, r3
 800025a:	6839      	ldr	r1, [r7, #0]
 800025c:	6878      	ldr	r0, [r7, #4]
 800025e:	233c      	movs	r3, #60	; 0x3c
 8000260:	f002 fc8a 	bl	8002b78 <HAL_UART_Transmit>
	char newline[2] = "\r\n";
 8000264:	210c      	movs	r1, #12
 8000266:	187b      	adds	r3, r7, r1
 8000268:	4a05      	ldr	r2, [pc, #20]	; (8000280 <debugPrintln+0x3c>)
 800026a:	801a      	strh	r2, [r3, #0]
	HAL_UART_Transmit(uart_handle, (uint8_t *) newline, 2, 10);
 800026c:	1879      	adds	r1, r7, r1
 800026e:	6878      	ldr	r0, [r7, #4]
 8000270:	230a      	movs	r3, #10
 8000272:	2202      	movs	r2, #2
 8000274:	f002 fc80 	bl	8002b78 <HAL_UART_Transmit>
}
 8000278:	46c0      	nop			; (mov r8, r8)
 800027a:	46bd      	mov	sp, r7
 800027c:	b004      	add	sp, #16
 800027e:	bd80      	pop	{r7, pc}
 8000280:	00000a0d 	.word	0x00000a0d

08000284 <main>:
/**
  * @brief  The application entry point.
  * @retval int
  */
int main(void)
{
 8000284:	b580      	push	{r7, lr}
 8000286:	b082      	sub	sp, #8
 8000288:	af00      	add	r7, sp, #0
  /* USER CODE END 1 */

  /* MCU Configuration--------------------------------------------------------*/

  /* Reset of all peripherals, Initializes the Flash interface and the Systick. */
  HAL_Init();
 800028a:	f000 fe0f 	bl	8000eac <HAL_Init>
  /* USER CODE BEGIN Init */

  /* USER CODE END Init */

  /* Configure the system clock */
  SystemClock_Config();
 800028e:	f000 f8b7 	bl	8000400 <SystemClock_Config>
  /* USER CODE BEGIN SysInit */

  /* USER CODE END SysInit */

  /* Initialize all configured peripherals */
  MX_GPIO_Init();
 8000292:	f000 f9c9 	bl	8000628 <MX_GPIO_Init>
  MX_I2C1_Init();
 8000296:	f000 f917 	bl	80004c8 <MX_I2C1_Init>
  MX_I2C2_Init();
 800029a:	f000 f955 	bl	8000548 <MX_I2C2_Init>
  MX_USART1_UART_Init();
 800029e:	f000 f993 	bl	80005c8 <MX_USART1_UART_Init>
  /* USER CODE BEGIN 2 */
    uint8_t i, j, Loop = 0; 					//Loop counters
 80002a2:	1d7b      	adds	r3, r7, #5
 80002a4:	2200      	movs	r2, #0
 80002a6:	701a      	strb	r2, [r3, #0]



    HAL_Delay(2000); //Delay start for 500 ms, so that Putty can be started once the board is plugged in
 80002a8:	23fa      	movs	r3, #250	; 0xfa
 80002aa:	00db      	lsls	r3, r3, #3
 80002ac:	0018      	movs	r0, r3
 80002ae:	f000 fe61 	bl	8000f74 <HAL_Delay>

    //Say hello over UART
    HAL_GPIO_WritePin(GPIOC, GPIO_PIN_8, GPIO_PIN_SET);
 80002b2:	2380      	movs	r3, #128	; 0x80
 80002b4:	005b      	lsls	r3, r3, #1
 80002b6:	484a      	ldr	r0, [pc, #296]	; (80003e0 <main+0x15c>)
 80002b8:	2201      	movs	r2, #1
 80002ba:	0019      	movs	r1, r3
 80002bc:	f001 f8bf 	bl	800143e <HAL_GPIO_WritePin>
    debugPrintln(&huart1, "Hello, this is STMF0 Discovery board: ");
 80002c0:	4a48      	ldr	r2, [pc, #288]	; (80003e4 <main+0x160>)
 80002c2:	4b49      	ldr	r3, [pc, #292]	; (80003e8 <main+0x164>)
 80002c4:	0011      	movs	r1, r2
 80002c6:	0018      	movs	r0, r3
 80002c8:	f7ff ffbc 	bl	8000244 <debugPrintln>

    uint8_t madd = 0x00;
 80002cc:	1d3b      	adds	r3, r7, #4
 80002ce:	2200      	movs	r2, #0
 80002d0:	701a      	strb	r2, [r3, #0]

    init_LTR();
 80002d2:	f000 fad9 	bl	8000888 <init_LTR>

    uint8_t k = 0, I2Creturn;
 80002d6:	1cfb      	adds	r3, r7, #3
 80002d8:	2200      	movs	r2, #0
 80002da:	701a      	strb	r2, [r3, #0]

  /* Infinite loop */
  /* USER CODE BEGIN WHILE */
  while (1)
  {
	  read_LTR_ALS();
 80002dc:	f000 fb7e 	bl	80009dc <read_LTR_ALS>
	  //Print and increment a loop counter for visual tracking/debugging purposes only
	  memset(str, 0, sizeof(str)); //Reset str to zeros
 80002e0:	4b42      	ldr	r3, [pc, #264]	; (80003ec <main+0x168>)
 80002e2:	223c      	movs	r2, #60	; 0x3c
 80002e4:	2100      	movs	r1, #0
 80002e6:	0018      	movs	r0, r3
 80002e8:	f003 f81a 	bl	8003320 <memset>
	  sprintf(str, "\rLoop count %d\n", Loop);//Format string to include the loop counter variable
 80002ec:	1d7b      	adds	r3, r7, #5
 80002ee:	781a      	ldrb	r2, [r3, #0]
 80002f0:	493f      	ldr	r1, [pc, #252]	; (80003f0 <main+0x16c>)
 80002f2:	4b3e      	ldr	r3, [pc, #248]	; (80003ec <main+0x168>)
 80002f4:	0018      	movs	r0, r3
 80002f6:	f003 f81b 	bl	8003330 <siprintf>
	  debugPrintln(&huart1, str);
 80002fa:	4a3c      	ldr	r2, [pc, #240]	; (80003ec <main+0x168>)
 80002fc:	4b3a      	ldr	r3, [pc, #232]	; (80003e8 <main+0x164>)
 80002fe:	0011      	movs	r1, r2
 8000300:	0018      	movs	r0, r3
 8000302:	f7ff ff9f 	bl	8000244 <debugPrintln>
	  Loop = Loop + 1;
 8000306:	1d7b      	adds	r3, r7, #5
 8000308:	1d7a      	adds	r2, r7, #5
 800030a:	7812      	ldrb	r2, [r2, #0]
 800030c:	3201      	adds	r2, #1
 800030e:	701a      	strb	r2, [r3, #0]

	  // Write data from sensor to EEPROM at address madd every 100 ms for 5 values
	  for (i = 0; i < 5; i++) {
 8000310:	1dfb      	adds	r3, r7, #7
 8000312:	2200      	movs	r2, #0
 8000314:	701a      	strb	r2, [r3, #0]
 8000316:	e019      	b.n	800034c <main+0xc8>
		  EEPROM_write(ALS_Data, madd);
 8000318:	4b36      	ldr	r3, [pc, #216]	; (80003f4 <main+0x170>)
 800031a:	781b      	ldrb	r3, [r3, #0]
 800031c:	b2da      	uxtb	r2, r3
 800031e:	1d3b      	adds	r3, r7, #4
 8000320:	781b      	ldrb	r3, [r3, #0]
 8000322:	0019      	movs	r1, r3
 8000324:	0010      	movs	r0, r2
 8000326:	f000 f9f9 	bl	800071c <EEPROM_write>
		  read_LTR_ALS();
 800032a:	f000 fb57 	bl	80009dc <read_LTR_ALS>
		  madd++;
 800032e:	1d3b      	adds	r3, r7, #4
 8000330:	781a      	ldrb	r2, [r3, #0]
 8000332:	1d3b      	adds	r3, r7, #4
 8000334:	3201      	adds	r2, #1
 8000336:	701a      	strb	r2, [r3, #0]
		  HAL_Delay(1000);
 8000338:	23fa      	movs	r3, #250	; 0xfa
 800033a:	009b      	lsls	r3, r3, #2
 800033c:	0018      	movs	r0, r3
 800033e:	f000 fe19 	bl	8000f74 <HAL_Delay>
	  for (i = 0; i < 5; i++) {
 8000342:	1dfb      	adds	r3, r7, #7
 8000344:	781a      	ldrb	r2, [r3, #0]
 8000346:	1dfb      	adds	r3, r7, #7
 8000348:	3201      	adds	r2, #1
 800034a:	701a      	strb	r2, [r3, #0]
 800034c:	1dfb      	adds	r3, r7, #7
 800034e:	781b      	ldrb	r3, [r3, #0]
 8000350:	2b04      	cmp	r3, #4
 8000352:	d9e1      	bls.n	8000318 <main+0x94>
	  }


	  /* Check if USB is plugged in, if PA4 goes high. If USB is detected, send data from EEPROM to computer */
	  if(HAL_GPIO_ReadPin(GPIOA, GPIO_PIN_4)) {
 8000354:	2390      	movs	r3, #144	; 0x90
 8000356:	05db      	lsls	r3, r3, #23
 8000358:	2110      	movs	r1, #16
 800035a:	0018      	movs	r0, r3
 800035c:	f001 f852 	bl	8001404 <HAL_GPIO_ReadPin>
 8000360:	1e03      	subs	r3, r0, #0
 8000362:	d029      	beq.n	80003b8 <main+0x134>
		  //turn LED on
		  HAL_GPIO_WritePin(GPIOC, GPIO_PIN_9, GPIO_PIN_SET);
 8000364:	2380      	movs	r3, #128	; 0x80
 8000366:	009b      	lsls	r3, r3, #2
 8000368:	481d      	ldr	r0, [pc, #116]	; (80003e0 <main+0x15c>)
 800036a:	2201      	movs	r2, #1
 800036c:	0019      	movs	r1, r3
 800036e:	f001 f866 	bl	800143e <HAL_GPIO_WritePin>
		  debugPrintln(&huart1, "USB detected!");
 8000372:	4a21      	ldr	r2, [pc, #132]	; (80003f8 <main+0x174>)
 8000374:	4b1c      	ldr	r3, [pc, #112]	; (80003e8 <main+0x164>)
 8000376:	0011      	movs	r1, r2
 8000378:	0018      	movs	r0, r3
 800037a:	f7ff ff63 	bl	8000244 <debugPrintln>

		  //read from EEPROM and print result through UART


		  madd = madd - 5;
 800037e:	1d3b      	adds	r3, r7, #4
 8000380:	1d3a      	adds	r2, r7, #4
 8000382:	7812      	ldrb	r2, [r2, #0]
 8000384:	3a05      	subs	r2, #5
 8000386:	701a      	strb	r2, [r3, #0]
		  for (j = 0; j < 5; j++) {
 8000388:	1dbb      	adds	r3, r7, #6
 800038a:	2200      	movs	r2, #0
 800038c:	701a      	strb	r2, [r3, #0]
 800038e:	e00e      	b.n	80003ae <main+0x12a>
			  EEPROM_read(madd);
 8000390:	1d3b      	adds	r3, r7, #4
 8000392:	781b      	ldrb	r3, [r3, #0]
 8000394:	0018      	movs	r0, r3
 8000396:	f000 fa11 	bl	80007bc <EEPROM_read>
			  madd++;
 800039a:	1d3b      	adds	r3, r7, #4
 800039c:	781a      	ldrb	r2, [r3, #0]
 800039e:	1d3b      	adds	r3, r7, #4
 80003a0:	3201      	adds	r2, #1
 80003a2:	701a      	strb	r2, [r3, #0]
		  for (j = 0; j < 5; j++) {
 80003a4:	1dbb      	adds	r3, r7, #6
 80003a6:	781a      	ldrb	r2, [r3, #0]
 80003a8:	1dbb      	adds	r3, r7, #6
 80003aa:	3201      	adds	r2, #1
 80003ac:	701a      	strb	r2, [r3, #0]
 80003ae:	1dbb      	adds	r3, r7, #6
 80003b0:	781b      	ldrb	r3, [r3, #0]
 80003b2:	2b04      	cmp	r3, #4
 80003b4:	d9ec      	bls.n	8000390 <main+0x10c>
 80003b6:	e00c      	b.n	80003d2 <main+0x14e>

		  Loop = 0;*/
	  }
	  else {
		  //turn LED off
	  	  HAL_GPIO_WritePin(GPIOC, GPIO_PIN_9, GPIO_PIN_RESET);
 80003b8:	2380      	movs	r3, #128	; 0x80
 80003ba:	009b      	lsls	r3, r3, #2
 80003bc:	4808      	ldr	r0, [pc, #32]	; (80003e0 <main+0x15c>)
 80003be:	2200      	movs	r2, #0
 80003c0:	0019      	movs	r1, r3
 80003c2:	f001 f83c 	bl	800143e <HAL_GPIO_WritePin>
	  	  debugPrintln(&huart1, "No USB detected!");
 80003c6:	4a0d      	ldr	r2, [pc, #52]	; (80003fc <main+0x178>)
 80003c8:	4b07      	ldr	r3, [pc, #28]	; (80003e8 <main+0x164>)
 80003ca:	0011      	movs	r1, r2
 80003cc:	0018      	movs	r0, r3
 80003ce:	f7ff ff39 	bl	8000244 <debugPrintln>

	  }

	  HAL_Delay(2000);
 80003d2:	23fa      	movs	r3, #250	; 0xfa
 80003d4:	00db      	lsls	r3, r3, #3
 80003d6:	0018      	movs	r0, r3
 80003d8:	f000 fdcc 	bl	8000f74 <HAL_Delay>
	  read_LTR_ALS();
 80003dc:	e77e      	b.n	80002dc <main+0x58>
 80003de:	46c0      	nop			; (mov r8, r8)
 80003e0:	48000800 	.word	0x48000800
 80003e4:	08003c1c 	.word	0x08003c1c
 80003e8:	20000134 	.word	0x20000134
 80003ec:	200001b8 	.word	0x200001b8
 80003f0:	08003c44 	.word	0x08003c44
 80003f4:	20000098 	.word	0x20000098
 80003f8:	08003c54 	.word	0x08003c54
 80003fc:	08003c64 	.word	0x08003c64

08000400 <SystemClock_Config>:
/**
  * @brief System Clock Configuration
  * @retval None
  */
void SystemClock_Config(void)
{
 8000400:	b590      	push	{r4, r7, lr}
 8000402:	b097      	sub	sp, #92	; 0x5c
 8000404:	af00      	add	r7, sp, #0
  RCC_OscInitTypeDef RCC_OscInitStruct = {0};
 8000406:	2428      	movs	r4, #40	; 0x28
 8000408:	193b      	adds	r3, r7, r4
 800040a:	0018      	movs	r0, r3
 800040c:	2330      	movs	r3, #48	; 0x30
 800040e:	001a      	movs	r2, r3
 8000410:	2100      	movs	r1, #0
 8000412:	f002 ff85 	bl	8003320 <memset>
  RCC_ClkInitTypeDef RCC_ClkInitStruct = {0};
 8000416:	2318      	movs	r3, #24
 8000418:	18fb      	adds	r3, r7, r3
 800041a:	0018      	movs	r0, r3
 800041c:	2310      	movs	r3, #16
 800041e:	001a      	movs	r2, r3
 8000420:	2100      	movs	r1, #0
 8000422:	f002 ff7d 	bl	8003320 <memset>
  RCC_PeriphCLKInitTypeDef PeriphClkInit = {0};
 8000426:	1d3b      	adds	r3, r7, #4
 8000428:	0018      	movs	r0, r3
 800042a:	2314      	movs	r3, #20
 800042c:	001a      	movs	r2, r3
 800042e:	2100      	movs	r1, #0
 8000430:	f002 ff76 	bl	8003320 <memset>

  /** Initializes the RCC Oscillators according to the specified parameters
  * in the RCC_OscInitTypeDef structure.
  */
  RCC_OscInitStruct.OscillatorType = RCC_OSCILLATORTYPE_HSI;
 8000434:	0021      	movs	r1, r4
 8000436:	187b      	adds	r3, r7, r1
 8000438:	2202      	movs	r2, #2
 800043a:	601a      	str	r2, [r3, #0]
  RCC_OscInitStruct.HSIState = RCC_HSI_ON;
 800043c:	187b      	adds	r3, r7, r1
 800043e:	2201      	movs	r2, #1
 8000440:	60da      	str	r2, [r3, #12]
  RCC_OscInitStruct.HSICalibrationValue = RCC_HSICALIBRATION_DEFAULT;
 8000442:	187b      	adds	r3, r7, r1
 8000444:	2210      	movs	r2, #16
 8000446:	611a      	str	r2, [r3, #16]
  RCC_OscInitStruct.PLL.PLLState = RCC_PLL_ON;
 8000448:	187b      	adds	r3, r7, r1
 800044a:	2202      	movs	r2, #2
 800044c:	621a      	str	r2, [r3, #32]
  RCC_OscInitStruct.PLL.PLLSource = RCC_PLLSOURCE_HSI;
 800044e:	187b      	adds	r3, r7, r1
 8000450:	2200      	movs	r2, #0
 8000452:	625a      	str	r2, [r3, #36]	; 0x24
  RCC_OscInitStruct.PLL.PLLMUL = RCC_PLL_MUL12;
 8000454:	187b      	adds	r3, r7, r1
 8000456:	22a0      	movs	r2, #160	; 0xa0
 8000458:	0392      	lsls	r2, r2, #14
 800045a:	629a      	str	r2, [r3, #40]	; 0x28
  RCC_OscInitStruct.PLL.PREDIV = RCC_PREDIV_DIV1;
 800045c:	187b      	adds	r3, r7, r1
 800045e:	2200      	movs	r2, #0
 8000460:	62da      	str	r2, [r3, #44]	; 0x2c
  if (HAL_RCC_OscConfig(&RCC_OscInitStruct) != HAL_OK)
 8000462:	187b      	adds	r3, r7, r1
 8000464:	0018      	movs	r0, r3
 8000466:	f001 fde9 	bl	800203c <HAL_RCC_OscConfig>
 800046a:	1e03      	subs	r3, r0, #0
 800046c:	d001      	beq.n	8000472 <SystemClock_Config+0x72>
  {
    Error_Handler();
 800046e:	f000 fb9d 	bl	8000bac <Error_Handler>
  }

  /** Initializes the CPU, AHB and APB buses clocks
  */
  RCC_ClkInitStruct.ClockType = RCC_CLOCKTYPE_HCLK|RCC_CLOCKTYPE_SYSCLK
 8000472:	2118      	movs	r1, #24
 8000474:	187b      	adds	r3, r7, r1
 8000476:	2207      	movs	r2, #7
 8000478:	601a      	str	r2, [r3, #0]
                              |RCC_CLOCKTYPE_PCLK1;
  RCC_ClkInitStruct.SYSCLKSource = RCC_SYSCLKSOURCE_PLLCLK;
 800047a:	187b      	adds	r3, r7, r1
 800047c:	2202      	movs	r2, #2
 800047e:	605a      	str	r2, [r3, #4]
  RCC_ClkInitStruct.AHBCLKDivider = RCC_SYSCLK_DIV1;
 8000480:	187b      	adds	r3, r7, r1
 8000482:	2200      	movs	r2, #0
 8000484:	609a      	str	r2, [r3, #8]
  RCC_ClkInitStruct.APB1CLKDivider = RCC_HCLK_DIV1;
 8000486:	187b      	adds	r3, r7, r1
 8000488:	2200      	movs	r2, #0
 800048a:	60da      	str	r2, [r3, #12]

  if (HAL_RCC_ClockConfig(&RCC_ClkInitStruct, FLASH_LATENCY_1) != HAL_OK)
 800048c:	187b      	adds	r3, r7, r1
 800048e:	2101      	movs	r1, #1
 8000490:	0018      	movs	r0, r3
 8000492:	f002 f8ed 	bl	8002670 <HAL_RCC_ClockConfig>
 8000496:	1e03      	subs	r3, r0, #0
 8000498:	d001      	beq.n	800049e <SystemClock_Config+0x9e>
  {
    Error_Handler();
 800049a:	f000 fb87 	bl	8000bac <Error_Handler>
  }
  PeriphClkInit.PeriphClockSelection = RCC_PERIPHCLK_USART1|RCC_PERIPHCLK_I2C1;
 800049e:	1d3b      	adds	r3, r7, #4
 80004a0:	2221      	movs	r2, #33	; 0x21
 80004a2:	601a      	str	r2, [r3, #0]
  PeriphClkInit.Usart1ClockSelection = RCC_USART1CLKSOURCE_PCLK1;
 80004a4:	1d3b      	adds	r3, r7, #4
 80004a6:	2200      	movs	r2, #0
 80004a8:	609a      	str	r2, [r3, #8]
  PeriphClkInit.I2c1ClockSelection = RCC_I2C1CLKSOURCE_HSI;
 80004aa:	1d3b      	adds	r3, r7, #4
 80004ac:	2200      	movs	r2, #0
 80004ae:	60da      	str	r2, [r3, #12]
  if (HAL_RCCEx_PeriphCLKConfig(&PeriphClkInit) != HAL_OK)
 80004b0:	1d3b      	adds	r3, r7, #4
 80004b2:	0018      	movs	r0, r3
 80004b4:	f002 fa2e 	bl	8002914 <HAL_RCCEx_PeriphCLKConfig>
 80004b8:	1e03      	subs	r3, r0, #0
 80004ba:	d001      	beq.n	80004c0 <SystemClock_Config+0xc0>
  {
    Error_Handler();
 80004bc:	f000 fb76 	bl	8000bac <Error_Handler>
  }
}
 80004c0:	46c0      	nop			; (mov r8, r8)
 80004c2:	46bd      	mov	sp, r7
 80004c4:	b017      	add	sp, #92	; 0x5c
 80004c6:	bd90      	pop	{r4, r7, pc}

080004c8 <MX_I2C1_Init>:
  * @brief I2C1 Initialization Function
  * @param None
  * @retval None
  */
static void MX_I2C1_Init(void)
{
 80004c8:	b580      	push	{r7, lr}
 80004ca:	af00      	add	r7, sp, #0
  /* USER CODE END I2C1_Init 0 */

  /* USER CODE BEGIN I2C1_Init 1 */

  /* USER CODE END I2C1_Init 1 */
  hi2c1.Instance = I2C1;
 80004cc:	4b1b      	ldr	r3, [pc, #108]	; (800053c <MX_I2C1_Init+0x74>)
 80004ce:	4a1c      	ldr	r2, [pc, #112]	; (8000540 <MX_I2C1_Init+0x78>)
 80004d0:	601a      	str	r2, [r3, #0]
  hi2c1.Init.Timing = 0x2000090E;
 80004d2:	4b1a      	ldr	r3, [pc, #104]	; (800053c <MX_I2C1_Init+0x74>)
 80004d4:	4a1b      	ldr	r2, [pc, #108]	; (8000544 <MX_I2C1_Init+0x7c>)
 80004d6:	605a      	str	r2, [r3, #4]
  hi2c1.Init.OwnAddress1 = 0;
 80004d8:	4b18      	ldr	r3, [pc, #96]	; (800053c <MX_I2C1_Init+0x74>)
 80004da:	2200      	movs	r2, #0
 80004dc:	609a      	str	r2, [r3, #8]
  hi2c1.Init.AddressingMode = I2C_ADDRESSINGMODE_7BIT;
 80004de:	4b17      	ldr	r3, [pc, #92]	; (800053c <MX_I2C1_Init+0x74>)
 80004e0:	2201      	movs	r2, #1
 80004e2:	60da      	str	r2, [r3, #12]
  hi2c1.Init.DualAddressMode = I2C_DUALADDRESS_DISABLE;
 80004e4:	4b15      	ldr	r3, [pc, #84]	; (800053c <MX_I2C1_Init+0x74>)
 80004e6:	2200      	movs	r2, #0
 80004e8:	611a      	str	r2, [r3, #16]
  hi2c1.Init.OwnAddress2 = 0;
 80004ea:	4b14      	ldr	r3, [pc, #80]	; (800053c <MX_I2C1_Init+0x74>)
 80004ec:	2200      	movs	r2, #0
 80004ee:	615a      	str	r2, [r3, #20]
  hi2c1.Init.OwnAddress2Masks = I2C_OA2_NOMASK;
 80004f0:	4b12      	ldr	r3, [pc, #72]	; (800053c <MX_I2C1_Init+0x74>)
 80004f2:	2200      	movs	r2, #0
 80004f4:	619a      	str	r2, [r3, #24]
  hi2c1.Init.GeneralCallMode = I2C_GENERALCALL_DISABLE;
 80004f6:	4b11      	ldr	r3, [pc, #68]	; (800053c <MX_I2C1_Init+0x74>)
 80004f8:	2200      	movs	r2, #0
 80004fa:	61da      	str	r2, [r3, #28]
  hi2c1.Init.NoStretchMode = I2C_NOSTRETCH_DISABLE;
 80004fc:	4b0f      	ldr	r3, [pc, #60]	; (800053c <MX_I2C1_Init+0x74>)
 80004fe:	2200      	movs	r2, #0
 8000500:	621a      	str	r2, [r3, #32]
  if (HAL_I2C_Init(&hi2c1) != HAL_OK)
 8000502:	4b0e      	ldr	r3, [pc, #56]	; (800053c <MX_I2C1_Init+0x74>)
 8000504:	0018      	movs	r0, r3
 8000506:	f000 ffb7 	bl	8001478 <HAL_I2C_Init>
 800050a:	1e03      	subs	r3, r0, #0
 800050c:	d001      	beq.n	8000512 <MX_I2C1_Init+0x4a>
  {
    Error_Handler();
 800050e:	f000 fb4d 	bl	8000bac <Error_Handler>
  }

  /** Configure Analogue filter
  */
  if (HAL_I2CEx_ConfigAnalogFilter(&hi2c1, I2C_ANALOGFILTER_ENABLE) != HAL_OK)
 8000512:	4b0a      	ldr	r3, [pc, #40]	; (800053c <MX_I2C1_Init+0x74>)
 8000514:	2100      	movs	r1, #0
 8000516:	0018      	movs	r0, r3
 8000518:	f001 fcf8 	bl	8001f0c <HAL_I2CEx_ConfigAnalogFilter>
 800051c:	1e03      	subs	r3, r0, #0
 800051e:	d001      	beq.n	8000524 <MX_I2C1_Init+0x5c>
  {
    Error_Handler();
 8000520:	f000 fb44 	bl	8000bac <Error_Handler>
  }

  /** Configure Digital filter
  */
  if (HAL_I2CEx_ConfigDigitalFilter(&hi2c1, 0) != HAL_OK)
 8000524:	4b05      	ldr	r3, [pc, #20]	; (800053c <MX_I2C1_Init+0x74>)
 8000526:	2100      	movs	r1, #0
 8000528:	0018      	movs	r0, r3
 800052a:	f001 fd3b 	bl	8001fa4 <HAL_I2CEx_ConfigDigitalFilter>
 800052e:	1e03      	subs	r3, r0, #0
 8000530:	d001      	beq.n	8000536 <MX_I2C1_Init+0x6e>
  {
    Error_Handler();
 8000532:	f000 fb3b 	bl	8000bac <Error_Handler>
  }
  /* USER CODE BEGIN I2C1_Init 2 */

  /* USER CODE END I2C1_Init 2 */

}
 8000536:	46c0      	nop			; (mov r8, r8)
 8000538:	46bd      	mov	sp, r7
 800053a:	bd80      	pop	{r7, pc}
 800053c:	2000009c 	.word	0x2000009c
 8000540:	40005400 	.word	0x40005400
 8000544:	2000090e 	.word	0x2000090e

08000548 <MX_I2C2_Init>:
  * @brief I2C2 Initialization Function
  * @param None
  * @retval None
  */
static void MX_I2C2_Init(void)
{
 8000548:	b580      	push	{r7, lr}
 800054a:	af00      	add	r7, sp, #0
  /* USER CODE END I2C2_Init 0 */

  /* USER CODE BEGIN I2C2_Init 1 */

  /* USER CODE END I2C2_Init 1 */
  hi2c2.Instance = I2C2;
 800054c:	4b1b      	ldr	r3, [pc, #108]	; (80005bc <MX_I2C2_Init+0x74>)
 800054e:	4a1c      	ldr	r2, [pc, #112]	; (80005c0 <MX_I2C2_Init+0x78>)
 8000550:	601a      	str	r2, [r3, #0]
  hi2c2.Init.Timing = 0x20303E5D;
 8000552:	4b1a      	ldr	r3, [pc, #104]	; (80005bc <MX_I2C2_Init+0x74>)
 8000554:	4a1b      	ldr	r2, [pc, #108]	; (80005c4 <MX_I2C2_Init+0x7c>)
 8000556:	605a      	str	r2, [r3, #4]
  hi2c2.Init.OwnAddress1 = 0;
 8000558:	4b18      	ldr	r3, [pc, #96]	; (80005bc <MX_I2C2_Init+0x74>)
 800055a:	2200      	movs	r2, #0
 800055c:	609a      	str	r2, [r3, #8]
  hi2c2.Init.AddressingMode = I2C_ADDRESSINGMODE_7BIT;
 800055e:	4b17      	ldr	r3, [pc, #92]	; (80005bc <MX_I2C2_Init+0x74>)
 8000560:	2201      	movs	r2, #1
 8000562:	60da      	str	r2, [r3, #12]
  hi2c2.Init.DualAddressMode = I2C_DUALADDRESS_DISABLE;
 8000564:	4b15      	ldr	r3, [pc, #84]	; (80005bc <MX_I2C2_Init+0x74>)
 8000566:	2200      	movs	r2, #0
 8000568:	611a      	str	r2, [r3, #16]
  hi2c2.Init.OwnAddress2 = 0;
 800056a:	4b14      	ldr	r3, [pc, #80]	; (80005bc <MX_I2C2_Init+0x74>)
 800056c:	2200      	movs	r2, #0
 800056e:	615a      	str	r2, [r3, #20]
  hi2c2.Init.OwnAddress2Masks = I2C_OA2_NOMASK;
 8000570:	4b12      	ldr	r3, [pc, #72]	; (80005bc <MX_I2C2_Init+0x74>)
 8000572:	2200      	movs	r2, #0
 8000574:	619a      	str	r2, [r3, #24]
  hi2c2.Init.GeneralCallMode = I2C_GENERALCALL_DISABLE;
 8000576:	4b11      	ldr	r3, [pc, #68]	; (80005bc <MX_I2C2_Init+0x74>)
 8000578:	2200      	movs	r2, #0
 800057a:	61da      	str	r2, [r3, #28]
  hi2c2.Init.NoStretchMode = I2C_NOSTRETCH_DISABLE;
 800057c:	4b0f      	ldr	r3, [pc, #60]	; (80005bc <MX_I2C2_Init+0x74>)
 800057e:	2200      	movs	r2, #0
 8000580:	621a      	str	r2, [r3, #32]
  if (HAL_I2C_Init(&hi2c2) != HAL_OK)
 8000582:	4b0e      	ldr	r3, [pc, #56]	; (80005bc <MX_I2C2_Init+0x74>)
 8000584:	0018      	movs	r0, r3
 8000586:	f000 ff77 	bl	8001478 <HAL_I2C_Init>
 800058a:	1e03      	subs	r3, r0, #0
 800058c:	d001      	beq.n	8000592 <MX_I2C2_Init+0x4a>
  {
    Error_Handler();
 800058e:	f000 fb0d 	bl	8000bac <Error_Handler>
  }

  /** Configure Analogue filter
  */
  if (HAL_I2CEx_ConfigAnalogFilter(&hi2c2, I2C_ANALOGFILTER_ENABLE) != HAL_OK)
 8000592:	4b0a      	ldr	r3, [pc, #40]	; (80005bc <MX_I2C2_Init+0x74>)
 8000594:	2100      	movs	r1, #0
 8000596:	0018      	movs	r0, r3
 8000598:	f001 fcb8 	bl	8001f0c <HAL_I2CEx_ConfigAnalogFilter>
 800059c:	1e03      	subs	r3, r0, #0
 800059e:	d001      	beq.n	80005a4 <MX_I2C2_Init+0x5c>
  {
    Error_Handler();
 80005a0:	f000 fb04 	bl	8000bac <Error_Handler>
  }

  /** Configure Digital filter
  */
  if (HAL_I2CEx_ConfigDigitalFilter(&hi2c2, 0) != HAL_OK)
 80005a4:	4b05      	ldr	r3, [pc, #20]	; (80005bc <MX_I2C2_Init+0x74>)
 80005a6:	2100      	movs	r1, #0
 80005a8:	0018      	movs	r0, r3
 80005aa:	f001 fcfb 	bl	8001fa4 <HAL_I2CEx_ConfigDigitalFilter>
 80005ae:	1e03      	subs	r3, r0, #0
 80005b0:	d001      	beq.n	80005b6 <MX_I2C2_Init+0x6e>
  {
    Error_Handler();
 80005b2:	f000 fafb 	bl	8000bac <Error_Handler>
  }
  /* USER CODE BEGIN I2C2_Init 2 */

  /* USER CODE END I2C2_Init 2 */

}
 80005b6:	46c0      	nop			; (mov r8, r8)
 80005b8:	46bd      	mov	sp, r7
 80005ba:	bd80      	pop	{r7, pc}
 80005bc:	200000e8 	.word	0x200000e8
 80005c0:	40005800 	.word	0x40005800
 80005c4:	20303e5d 	.word	0x20303e5d

080005c8 <MX_USART1_UART_Init>:
  * @brief USART1 Initialization Function
  * @param None
  * @retval None
  */
static void MX_USART1_UART_Init(void)
{
 80005c8:	b580      	push	{r7, lr}
 80005ca:	af00      	add	r7, sp, #0
  /* USER CODE END USART1_Init 0 */

  /* USER CODE BEGIN USART1_Init 1 */

  /* USER CODE END USART1_Init 1 */
  huart1.Instance = USART1;
 80005cc:	4b14      	ldr	r3, [pc, #80]	; (8000620 <MX_USART1_UART_Init+0x58>)
 80005ce:	4a15      	ldr	r2, [pc, #84]	; (8000624 <MX_USART1_UART_Init+0x5c>)
 80005d0:	601a      	str	r2, [r3, #0]
  huart1.Init.BaudRate = 9600;
 80005d2:	4b13      	ldr	r3, [pc, #76]	; (8000620 <MX_USART1_UART_Init+0x58>)
 80005d4:	2296      	movs	r2, #150	; 0x96
 80005d6:	0192      	lsls	r2, r2, #6
 80005d8:	605a      	str	r2, [r3, #4]
  huart1.Init.WordLength = UART_WORDLENGTH_8B;
 80005da:	4b11      	ldr	r3, [pc, #68]	; (8000620 <MX_USART1_UART_Init+0x58>)
 80005dc:	2200      	movs	r2, #0
 80005de:	609a      	str	r2, [r3, #8]
  huart1.Init.StopBits = UART_STOPBITS_1;
 80005e0:	4b0f      	ldr	r3, [pc, #60]	; (8000620 <MX_USART1_UART_Init+0x58>)
 80005e2:	2200      	movs	r2, #0
 80005e4:	60da      	str	r2, [r3, #12]
  huart1.Init.Parity = UART_PARITY_NONE;
 80005e6:	4b0e      	ldr	r3, [pc, #56]	; (8000620 <MX_USART1_UART_Init+0x58>)
 80005e8:	2200      	movs	r2, #0
 80005ea:	611a      	str	r2, [r3, #16]
  huart1.Init.Mode = UART_MODE_TX_RX;
 80005ec:	4b0c      	ldr	r3, [pc, #48]	; (8000620 <MX_USART1_UART_Init+0x58>)
 80005ee:	220c      	movs	r2, #12
 80005f0:	615a      	str	r2, [r3, #20]
  huart1.Init.HwFlowCtl = UART_HWCONTROL_NONE;
 80005f2:	4b0b      	ldr	r3, [pc, #44]	; (8000620 <MX_USART1_UART_Init+0x58>)
 80005f4:	2200      	movs	r2, #0
 80005f6:	619a      	str	r2, [r3, #24]
  huart1.Init.OverSampling = UART_OVERSAMPLING_16;
 80005f8:	4b09      	ldr	r3, [pc, #36]	; (8000620 <MX_USART1_UART_Init+0x58>)
 80005fa:	2200      	movs	r2, #0
 80005fc:	61da      	str	r2, [r3, #28]
  huart1.Init.OneBitSampling = UART_ONE_BIT_SAMPLE_DISABLE;
 80005fe:	4b08      	ldr	r3, [pc, #32]	; (8000620 <MX_USART1_UART_Init+0x58>)
 8000600:	2200      	movs	r2, #0
 8000602:	621a      	str	r2, [r3, #32]
  huart1.AdvancedInit.AdvFeatureInit = UART_ADVFEATURE_NO_INIT;
 8000604:	4b06      	ldr	r3, [pc, #24]	; (8000620 <MX_USART1_UART_Init+0x58>)
 8000606:	2200      	movs	r2, #0
 8000608:	625a      	str	r2, [r3, #36]	; 0x24
  if (HAL_UART_Init(&huart1) != HAL_OK)
 800060a:	4b05      	ldr	r3, [pc, #20]	; (8000620 <MX_USART1_UART_Init+0x58>)
 800060c:	0018      	movs	r0, r3
 800060e:	f002 fa5f 	bl	8002ad0 <HAL_UART_Init>
 8000612:	1e03      	subs	r3, r0, #0
 8000614:	d001      	beq.n	800061a <MX_USART1_UART_Init+0x52>
  {
    Error_Handler();
 8000616:	f000 fac9 	bl	8000bac <Error_Handler>
  }
  /* USER CODE BEGIN USART1_Init 2 */

  /* USER CODE END USART1_Init 2 */

}
 800061a:	46c0      	nop			; (mov r8, r8)
 800061c:	46bd      	mov	sp, r7
 800061e:	bd80      	pop	{r7, pc}
 8000620:	20000134 	.word	0x20000134
 8000624:	40013800 	.word	0x40013800

08000628 <MX_GPIO_Init>:
  * @brief GPIO Initialization Function
  * @param None
  * @retval None
  */
static void MX_GPIO_Init(void)
{
 8000628:	b590      	push	{r4, r7, lr}
 800062a:	b089      	sub	sp, #36	; 0x24
 800062c:	af00      	add	r7, sp, #0
  GPIO_InitTypeDef GPIO_InitStruct = {0};
 800062e:	240c      	movs	r4, #12
 8000630:	193b      	adds	r3, r7, r4
 8000632:	0018      	movs	r0, r3
 8000634:	2314      	movs	r3, #20
 8000636:	001a      	movs	r2, r3
 8000638:	2100      	movs	r1, #0
 800063a:	f002 fe71 	bl	8003320 <memset>

  /* GPIO Ports Clock Enable */
  __HAL_RCC_GPIOA_CLK_ENABLE();
 800063e:	4b35      	ldr	r3, [pc, #212]	; (8000714 <MX_GPIO_Init+0xec>)
 8000640:	695a      	ldr	r2, [r3, #20]
 8000642:	4b34      	ldr	r3, [pc, #208]	; (8000714 <MX_GPIO_Init+0xec>)
 8000644:	2180      	movs	r1, #128	; 0x80
 8000646:	0289      	lsls	r1, r1, #10
 8000648:	430a      	orrs	r2, r1
 800064a:	615a      	str	r2, [r3, #20]
 800064c:	4b31      	ldr	r3, [pc, #196]	; (8000714 <MX_GPIO_Init+0xec>)
 800064e:	695a      	ldr	r2, [r3, #20]
 8000650:	2380      	movs	r3, #128	; 0x80
 8000652:	029b      	lsls	r3, r3, #10
 8000654:	4013      	ands	r3, r2
 8000656:	60bb      	str	r3, [r7, #8]
 8000658:	68bb      	ldr	r3, [r7, #8]
  __HAL_RCC_GPIOB_CLK_ENABLE();
 800065a:	4b2e      	ldr	r3, [pc, #184]	; (8000714 <MX_GPIO_Init+0xec>)
 800065c:	695a      	ldr	r2, [r3, #20]
 800065e:	4b2d      	ldr	r3, [pc, #180]	; (8000714 <MX_GPIO_Init+0xec>)
 8000660:	2180      	movs	r1, #128	; 0x80
 8000662:	02c9      	lsls	r1, r1, #11
 8000664:	430a      	orrs	r2, r1
 8000666:	615a      	str	r2, [r3, #20]
 8000668:	4b2a      	ldr	r3, [pc, #168]	; (8000714 <MX_GPIO_Init+0xec>)
 800066a:	695a      	ldr	r2, [r3, #20]
 800066c:	2380      	movs	r3, #128	; 0x80
 800066e:	02db      	lsls	r3, r3, #11
 8000670:	4013      	ands	r3, r2
 8000672:	607b      	str	r3, [r7, #4]
 8000674:	687b      	ldr	r3, [r7, #4]
  __HAL_RCC_GPIOC_CLK_ENABLE();
 8000676:	4b27      	ldr	r3, [pc, #156]	; (8000714 <MX_GPIO_Init+0xec>)
 8000678:	695a      	ldr	r2, [r3, #20]
 800067a:	4b26      	ldr	r3, [pc, #152]	; (8000714 <MX_GPIO_Init+0xec>)
 800067c:	2180      	movs	r1, #128	; 0x80
 800067e:	0309      	lsls	r1, r1, #12
 8000680:	430a      	orrs	r2, r1
 8000682:	615a      	str	r2, [r3, #20]
 8000684:	4b23      	ldr	r3, [pc, #140]	; (8000714 <MX_GPIO_Init+0xec>)
 8000686:	695a      	ldr	r2, [r3, #20]
 8000688:	2380      	movs	r3, #128	; 0x80
 800068a:	031b      	lsls	r3, r3, #12
 800068c:	4013      	ands	r3, r2
 800068e:	603b      	str	r3, [r7, #0]
 8000690:	683b      	ldr	r3, [r7, #0]

  /*Configure GPIO pin Output Level */
  HAL_GPIO_WritePin(GPIOC, LD4_Pin|LD3_Pin, GPIO_PIN_RESET);
 8000692:	23c0      	movs	r3, #192	; 0xc0
 8000694:	009b      	lsls	r3, r3, #2
 8000696:	4820      	ldr	r0, [pc, #128]	; (8000718 <MX_GPIO_Init+0xf0>)
 8000698:	2200      	movs	r2, #0
 800069a:	0019      	movs	r1, r3
 800069c:	f000 fecf 	bl	800143e <HAL_GPIO_WritePin>

  /*Configure GPIO pin : B1_Pin */
  GPIO_InitStruct.Pin = B1_Pin;
 80006a0:	193b      	adds	r3, r7, r4
 80006a2:	2201      	movs	r2, #1
 80006a4:	601a      	str	r2, [r3, #0]
  GPIO_InitStruct.Mode = GPIO_MODE_EVT_RISING;
 80006a6:	193b      	adds	r3, r7, r4
 80006a8:	2290      	movs	r2, #144	; 0x90
 80006aa:	0352      	lsls	r2, r2, #13
 80006ac:	605a      	str	r2, [r3, #4]
  GPIO_InitStruct.Pull = GPIO_NOPULL;
 80006ae:	193b      	adds	r3, r7, r4
 80006b0:	2200      	movs	r2, #0
 80006b2:	609a      	str	r2, [r3, #8]
  HAL_GPIO_Init(B1_GPIO_Port, &GPIO_InitStruct);
 80006b4:	193a      	adds	r2, r7, r4
 80006b6:	2390      	movs	r3, #144	; 0x90
 80006b8:	05db      	lsls	r3, r3, #23
 80006ba:	0011      	movs	r1, r2
 80006bc:	0018      	movs	r0, r3
 80006be:	f000 fd31 	bl	8001124 <HAL_GPIO_Init>

  /*Configure GPIO pin : PA4 */
  GPIO_InitStruct.Pin = GPIO_PIN_4;
 80006c2:	193b      	adds	r3, r7, r4
 80006c4:	2210      	movs	r2, #16
 80006c6:	601a      	str	r2, [r3, #0]
  GPIO_InitStruct.Mode = GPIO_MODE_INPUT;
 80006c8:	193b      	adds	r3, r7, r4
 80006ca:	2200      	movs	r2, #0
 80006cc:	605a      	str	r2, [r3, #4]
  GPIO_InitStruct.Pull = GPIO_PULLDOWN;
 80006ce:	193b      	adds	r3, r7, r4
 80006d0:	2202      	movs	r2, #2
 80006d2:	609a      	str	r2, [r3, #8]
  HAL_GPIO_Init(GPIOA, &GPIO_InitStruct);
 80006d4:	193a      	adds	r2, r7, r4
 80006d6:	2390      	movs	r3, #144	; 0x90
 80006d8:	05db      	lsls	r3, r3, #23
 80006da:	0011      	movs	r1, r2
 80006dc:	0018      	movs	r0, r3
 80006de:	f000 fd21 	bl	8001124 <HAL_GPIO_Init>

  /*Configure GPIO pins : LD4_Pin LD3_Pin */
  GPIO_InitStruct.Pin = LD4_Pin|LD3_Pin;
 80006e2:	0021      	movs	r1, r4
 80006e4:	187b      	adds	r3, r7, r1
 80006e6:	22c0      	movs	r2, #192	; 0xc0
 80006e8:	0092      	lsls	r2, r2, #2
 80006ea:	601a      	str	r2, [r3, #0]
  GPIO_InitStruct.Mode = GPIO_MODE_OUTPUT_PP;
 80006ec:	187b      	adds	r3, r7, r1
 80006ee:	2201      	movs	r2, #1
 80006f0:	605a      	str	r2, [r3, #4]
  GPIO_InitStruct.Pull = GPIO_NOPULL;
 80006f2:	187b      	adds	r3, r7, r1
 80006f4:	2200      	movs	r2, #0
 80006f6:	609a      	str	r2, [r3, #8]
  GPIO_InitStruct.Speed = GPIO_SPEED_FREQ_LOW;
 80006f8:	187b      	adds	r3, r7, r1
 80006fa:	2200      	movs	r2, #0
 80006fc:	60da      	str	r2, [r3, #12]
  HAL_GPIO_Init(GPIOC, &GPIO_InitStruct);
 80006fe:	187b      	adds	r3, r7, r1
 8000700:	4a05      	ldr	r2, [pc, #20]	; (8000718 <MX_GPIO_Init+0xf0>)
 8000702:	0019      	movs	r1, r3
 8000704:	0010      	movs	r0, r2
 8000706:	f000 fd0d 	bl	8001124 <HAL_GPIO_Init>

}
 800070a:	46c0      	nop			; (mov r8, r8)
 800070c:	46bd      	mov	sp, r7
 800070e:	b009      	add	sp, #36	; 0x24
 8000710:	bd90      	pop	{r4, r7, pc}
 8000712:	46c0      	nop			; (mov r8, r8)
 8000714:	40021000 	.word	0x40021000
 8000718:	48000800 	.word	0x48000800

0800071c <EEPROM_write>:

/* USER CODE BEGIN 4 */
void EEPROM_write(uint8_t Data, uint8_t mem_Address)
{
 800071c:	b580      	push	{r7, lr}
 800071e:	b088      	sub	sp, #32
 8000720:	af04      	add	r7, sp, #16
 8000722:	0002      	movs	r2, r0
 8000724:	1dfb      	adds	r3, r7, #7
 8000726:	701a      	strb	r2, [r3, #0]
 8000728:	1dbb      	adds	r3, r7, #6
 800072a:	1c0a      	adds	r2, r1, #0
 800072c:	701a      	strb	r2, [r3, #0]
	/* Function to write 8 bits of data to the EEPROM at the selected memory address */
	uint8_t *sData = &Data; 							// Pointer to sending Data variable
 800072e:	1dfb      	adds	r3, r7, #7
 8000730:	60fb      	str	r3, [r7, #12]
	memset(str, 0, sizeof(str));						// Reset str variable
 8000732:	4b1b      	ldr	r3, [pc, #108]	; (80007a0 <EEPROM_write+0x84>)
 8000734:	223c      	movs	r2, #60	; 0x3c
 8000736:	2100      	movs	r1, #0
 8000738:	0018      	movs	r0, r3
 800073a:	f002 fdf1 	bl	8003320 <memset>
	sprintf(str, "Writing 0x%X to EEPROM address 0x%X", Data, mem_Address);
 800073e:	1dfb      	adds	r3, r7, #7
 8000740:	781b      	ldrb	r3, [r3, #0]
 8000742:	001a      	movs	r2, r3
 8000744:	1dbb      	adds	r3, r7, #6
 8000746:	781b      	ldrb	r3, [r3, #0]
 8000748:	4916      	ldr	r1, [pc, #88]	; (80007a4 <EEPROM_write+0x88>)
 800074a:	4815      	ldr	r0, [pc, #84]	; (80007a0 <EEPROM_write+0x84>)
 800074c:	f002 fdf0 	bl	8003330 <siprintf>
	debugPrintln(&huart1, str);
 8000750:	4a13      	ldr	r2, [pc, #76]	; (80007a0 <EEPROM_write+0x84>)
 8000752:	4b15      	ldr	r3, [pc, #84]	; (80007a8 <EEPROM_write+0x8c>)
 8000754:	0011      	movs	r1, r2
 8000756:	0018      	movs	r0, r3
 8000758:	f7ff fd74 	bl	8000244 <debugPrintln>
	I2CReturn = HAL_I2C_Mem_Write(&hi2c1, EEPROM_DEVICE_ADDR, mem_Address, 2, sData, 1, HAL_MAX_DELAY);
 800075c:	4b13      	ldr	r3, [pc, #76]	; (80007ac <EEPROM_write+0x90>)
 800075e:	8819      	ldrh	r1, [r3, #0]
 8000760:	1dbb      	adds	r3, r7, #6
 8000762:	781b      	ldrb	r3, [r3, #0]
 8000764:	b29a      	uxth	r2, r3
 8000766:	4812      	ldr	r0, [pc, #72]	; (80007b0 <EEPROM_write+0x94>)
 8000768:	2301      	movs	r3, #1
 800076a:	425b      	negs	r3, r3
 800076c:	9302      	str	r3, [sp, #8]
 800076e:	2301      	movs	r3, #1
 8000770:	9301      	str	r3, [sp, #4]
 8000772:	68fb      	ldr	r3, [r7, #12]
 8000774:	9300      	str	r3, [sp, #0]
 8000776:	2302      	movs	r3, #2
 8000778:	f000 ff14 	bl	80015a4 <HAL_I2C_Mem_Write>
 800077c:	0003      	movs	r3, r0
 800077e:	001a      	movs	r2, r3
 8000780:	4b0c      	ldr	r3, [pc, #48]	; (80007b4 <EEPROM_write+0x98>)
 8000782:	701a      	strb	r2, [r3, #0]
	if (I2CReturn != HAL_OK) {
 8000784:	4b0b      	ldr	r3, [pc, #44]	; (80007b4 <EEPROM_write+0x98>)
 8000786:	781b      	ldrb	r3, [r3, #0]
 8000788:	2b00      	cmp	r3, #0
 800078a:	d005      	beq.n	8000798 <EEPROM_write+0x7c>
		debugPrintln(&huart1, "Write to address FAILED");
 800078c:	4a0a      	ldr	r2, [pc, #40]	; (80007b8 <EEPROM_write+0x9c>)
 800078e:	4b06      	ldr	r3, [pc, #24]	; (80007a8 <EEPROM_write+0x8c>)
 8000790:	0011      	movs	r1, r2
 8000792:	0018      	movs	r0, r3
 8000794:	f7ff fd56 	bl	8000244 <debugPrintln>
	}
}
 8000798:	46c0      	nop			; (mov r8, r8)
 800079a:	46bd      	mov	sp, r7
 800079c:	b004      	add	sp, #16
 800079e:	bd80      	pop	{r7, pc}
 80007a0:	200001b8 	.word	0x200001b8
 80007a4:	08003c78 	.word	0x08003c78
 80007a8:	20000134 	.word	0x20000134
 80007ac:	20000000 	.word	0x20000000
 80007b0:	2000009c 	.word	0x2000009c
 80007b4:	200001f4 	.word	0x200001f4
 80007b8:	08003c9c 	.word	0x08003c9c

080007bc <EEPROM_read>:

void EEPROM_read(uint8_t mem_Address)
{
 80007bc:	b590      	push	{r4, r7, lr}
 80007be:	b087      	sub	sp, #28
 80007c0:	af04      	add	r7, sp, #16
 80007c2:	0002      	movs	r2, r0
 80007c4:	1dfb      	adds	r3, r7, #7
 80007c6:	701a      	strb	r2, [r3, #0]
	/* Function to read from EEPROM at selected memory address and then print the results */
	memset(str, 0, sizeof(str));
 80007c8:	4b25      	ldr	r3, [pc, #148]	; (8000860 <EEPROM_read+0xa4>)
 80007ca:	223c      	movs	r2, #60	; 0x3c
 80007cc:	2100      	movs	r1, #0
 80007ce:	0018      	movs	r0, r3
 80007d0:	f002 fda6 	bl	8003320 <memset>
	sprintf(str, "Reading from EEPROM address 0x%X ", mem_Address);
 80007d4:	1dfb      	adds	r3, r7, #7
 80007d6:	781a      	ldrb	r2, [r3, #0]
 80007d8:	4922      	ldr	r1, [pc, #136]	; (8000864 <EEPROM_read+0xa8>)
 80007da:	4b21      	ldr	r3, [pc, #132]	; (8000860 <EEPROM_read+0xa4>)
 80007dc:	0018      	movs	r0, r3
 80007de:	f002 fda7 	bl	8003330 <siprintf>
	debugPrintln(&huart1, str);
 80007e2:	4a1f      	ldr	r2, [pc, #124]	; (8000860 <EEPROM_read+0xa4>)
 80007e4:	4b20      	ldr	r3, [pc, #128]	; (8000868 <EEPROM_read+0xac>)
 80007e6:	0011      	movs	r1, r2
 80007e8:	0018      	movs	r0, r3
 80007ea:	f7ff fd2b 	bl	8000244 <debugPrintln>
	I2CReturn = HAL_I2C_Mem_Read(&hi2c1, EEPROM_DEVICE_ADDR, mem_Address, 2, rData, 1, HAL_MAX_DELAY);
 80007ee:	4b1f      	ldr	r3, [pc, #124]	; (800086c <EEPROM_read+0xb0>)
 80007f0:	8819      	ldrh	r1, [r3, #0]
 80007f2:	1dfb      	adds	r3, r7, #7
 80007f4:	781b      	ldrb	r3, [r3, #0]
 80007f6:	b29c      	uxth	r4, r3
 80007f8:	4b1d      	ldr	r3, [pc, #116]	; (8000870 <EEPROM_read+0xb4>)
 80007fa:	681b      	ldr	r3, [r3, #0]
 80007fc:	481d      	ldr	r0, [pc, #116]	; (8000874 <EEPROM_read+0xb8>)
 80007fe:	2201      	movs	r2, #1
 8000800:	4252      	negs	r2, r2
 8000802:	9202      	str	r2, [sp, #8]
 8000804:	2201      	movs	r2, #1
 8000806:	9201      	str	r2, [sp, #4]
 8000808:	9300      	str	r3, [sp, #0]
 800080a:	2302      	movs	r3, #2
 800080c:	0022      	movs	r2, r4
 800080e:	f000 fff7 	bl	8001800 <HAL_I2C_Mem_Read>
 8000812:	0003      	movs	r3, r0
 8000814:	001a      	movs	r2, r3
 8000816:	4b18      	ldr	r3, [pc, #96]	; (8000878 <EEPROM_read+0xbc>)
 8000818:	701a      	strb	r2, [r3, #0]

	if (I2CReturn != HAL_OK) {
 800081a:	4b17      	ldr	r3, [pc, #92]	; (8000878 <EEPROM_read+0xbc>)
 800081c:	781b      	ldrb	r3, [r3, #0]
 800081e:	2b00      	cmp	r3, #0
 8000820:	d005      	beq.n	800082e <EEPROM_read+0x72>
		debugPrintln(&huart1, "Read from address FAILED");
 8000822:	4a16      	ldr	r2, [pc, #88]	; (800087c <EEPROM_read+0xc0>)
 8000824:	4b10      	ldr	r3, [pc, #64]	; (8000868 <EEPROM_read+0xac>)
 8000826:	0011      	movs	r1, r2
 8000828:	0018      	movs	r0, r3
 800082a:	f7ff fd0b 	bl	8000244 <debugPrintln>
	}

	//PRINT READ VALUE
	memset(str, 0, sizeof(str));
 800082e:	4b0c      	ldr	r3, [pc, #48]	; (8000860 <EEPROM_read+0xa4>)
 8000830:	223c      	movs	r2, #60	; 0x3c
 8000832:	2100      	movs	r1, #0
 8000834:	0018      	movs	r0, r3
 8000836:	f002 fd73 	bl	8003320 <memset>
	sprintf(str, "Received data: 0x%X \n", Result);
 800083a:	4b11      	ldr	r3, [pc, #68]	; (8000880 <EEPROM_read+0xc4>)
 800083c:	781b      	ldrb	r3, [r3, #0]
 800083e:	001a      	movs	r2, r3
 8000840:	4910      	ldr	r1, [pc, #64]	; (8000884 <EEPROM_read+0xc8>)
 8000842:	4b07      	ldr	r3, [pc, #28]	; (8000860 <EEPROM_read+0xa4>)
 8000844:	0018      	movs	r0, r3
 8000846:	f002 fd73 	bl	8003330 <siprintf>
	debugPrintln(&huart1, str);
 800084a:	4a05      	ldr	r2, [pc, #20]	; (8000860 <EEPROM_read+0xa4>)
 800084c:	4b06      	ldr	r3, [pc, #24]	; (8000868 <EEPROM_read+0xac>)
 800084e:	0011      	movs	r1, r2
 8000850:	0018      	movs	r0, r3
 8000852:	f7ff fcf7 	bl	8000244 <debugPrintln>
}
 8000856:	46c0      	nop			; (mov r8, r8)
 8000858:	46bd      	mov	sp, r7
 800085a:	b003      	add	sp, #12
 800085c:	bd90      	pop	{r4, r7, pc}
 800085e:	46c0      	nop			; (mov r8, r8)
 8000860:	200001b8 	.word	0x200001b8
 8000864:	08003cb4 	.word	0x08003cb4
 8000868:	20000134 	.word	0x20000134
 800086c:	20000000 	.word	0x20000000
 8000870:	20000004 	.word	0x20000004
 8000874:	2000009c 	.word	0x2000009c
 8000878:	200001f4 	.word	0x200001f4
 800087c:	08003cd8 	.word	0x08003cd8
 8000880:	200001f5 	.word	0x200001f5
 8000884:	08003cf4 	.word	0x08003cf4

08000888 <init_LTR>:

//  MMikhails code

void init_LTR(void)
{
 8000888:	b580      	push	{r7, lr}
 800088a:	b082      	sub	sp, #8
 800088c:	af00      	add	r7, sp, #0
	debugPrintln(&huart1, "Wait!");
 800088e:	4a35      	ldr	r2, [pc, #212]	; (8000964 <init_LTR+0xdc>)
 8000890:	4b35      	ldr	r3, [pc, #212]	; (8000968 <init_LTR+0xe0>)
 8000892:	0011      	movs	r1, r2
 8000894:	0018      	movs	r0, r3
 8000896:	f7ff fcd5 	bl	8000244 <debugPrintln>
	HAL_Delay(1000);
 800089a:	23fa      	movs	r3, #250	; 0xfa
 800089c:	009b      	lsls	r3, r3, #2
 800089e:	0018      	movs	r0, r3
 80008a0:	f000 fb68 	bl	8000f74 <HAL_Delay>

	uint8_t Register_Addr;
	int8_t Command;

	debugPrintln(&huart1, "Enabling ALS_Contr Register");
 80008a4:	4a31      	ldr	r2, [pc, #196]	; (800096c <init_LTR+0xe4>)
 80008a6:	4b30      	ldr	r3, [pc, #192]	; (8000968 <init_LTR+0xe0>)
 80008a8:	0011      	movs	r1, r2
 80008aa:	0018      	movs	r0, r3
 80008ac:	f7ff fcca 	bl	8000244 <debugPrintln>

	Register_Addr = 0x80; // ALS_CONTR register
 80008b0:	1dfb      	adds	r3, r7, #7
 80008b2:	2280      	movs	r2, #128	; 0x80
 80008b4:	701a      	strb	r2, [r3, #0]
	Command = 0x01; // For Gain X1
 80008b6:	1dbb      	adds	r3, r7, #6
 80008b8:	2201      	movs	r2, #1
 80008ba:	701a      	strb	r2, [r3, #0]
					// For Gain X2, Command = 0x05
					// For Gain X4, Command = 0x09
					// For Gain X8, Command = 0x0D
					// For Gain X48, Command = 0x19
					// For Gain X96, Command = 0x1D
	LTR_write_register(Register_Addr, Command);
 80008bc:	1dbb      	adds	r3, r7, #6
 80008be:	781b      	ldrb	r3, [r3, #0]
 80008c0:	b25b      	sxtb	r3, r3
 80008c2:	b29a      	uxth	r2, r3
 80008c4:	1dfb      	adds	r3, r7, #7
 80008c6:	781b      	ldrb	r3, [r3, #0]
 80008c8:	0011      	movs	r1, r2
 80008ca:	0018      	movs	r0, r3
 80008cc:	f000 f852 	bl	8000974 <LTR_write_register>

	// Enable PS

	debugPrintln(&huart1, "Enabling PS_Contr Register");
 80008d0:	4a27      	ldr	r2, [pc, #156]	; (8000970 <init_LTR+0xe8>)
 80008d2:	4b25      	ldr	r3, [pc, #148]	; (8000968 <init_LTR+0xe0>)
 80008d4:	0011      	movs	r1, r2
 80008d6:	0018      	movs	r0, r3
 80008d8:	f7ff fcb4 	bl	8000244 <debugPrintln>
	Register_Addr = 0x81; // PS_CONTR register
 80008dc:	1dfb      	adds	r3, r7, #7
 80008de:	2281      	movs	r2, #129	; 0x81
 80008e0:	701a      	strb	r2, [r3, #0]
	Command = 0x03;
 80008e2:	1dbb      	adds	r3, r7, #6
 80008e4:	2203      	movs	r2, #3
 80008e6:	701a      	strb	r2, [r3, #0]
	LTR_write_register(Register_Addr, Command);
 80008e8:	1dbb      	adds	r3, r7, #6
 80008ea:	781b      	ldrb	r3, [r3, #0]
 80008ec:	b25b      	sxtb	r3, r3
 80008ee:	b29a      	uxth	r2, r3
 80008f0:	1dfb      	adds	r3, r7, #7
 80008f2:	781b      	ldrb	r3, [r3, #0]
 80008f4:	0011      	movs	r1, r2
 80008f6:	0018      	movs	r0, r3
 80008f8:	f000 f83c 	bl	8000974 <LTR_write_register>

	// The PS LED Registers define the LED pulse modulation frequency, duty cycle and peak current.
	// Default setting is 0x7F (60kHz, 100%, 100mA).
	// Set LED Pulse Freq 30kHz (duty cycle 100%, peak curr 100mA)
	Register_Addr = 0x82; // PS_LED register
 80008fc:	1dfb      	adds	r3, r7, #7
 80008fe:	2282      	movs	r2, #130	; 0x82
 8000900:	701a      	strb	r2, [r3, #0]
	Command = 0x3F; // Custom cycle
 8000902:	1dbb      	adds	r3, r7, #6
 8000904:	223f      	movs	r2, #63	; 0x3f
 8000906:	701a      	strb	r2, [r3, #0]
					// For Pulse Freq = 70kHz, (100%, 100mA), Command = 0x9F
					// For Pulse Freq = 80kHz, (100%, 100mA), Command = 0xBF
					// For Pulse Freq = 90kHz, (100%, 100mA), Command = 0xDF
					// For Pulse Freq = 100kHz, (100%, 100mA), Command = 0xFF

	LTR_write_register(Register_Addr, Command);
 8000908:	1dbb      	adds	r3, r7, #6
 800090a:	781b      	ldrb	r3, [r3, #0]
 800090c:	b25b      	sxtb	r3, r3
 800090e:	b29a      	uxth	r2, r3
 8000910:	1dfb      	adds	r3, r7, #7
 8000912:	781b      	ldrb	r3, [r3, #0]
 8000914:	0011      	movs	r1, r2
 8000916:	0018      	movs	r0, r3
 8000918:	f000 f82c 	bl	8000974 <LTR_write_register>

	// Set LED Duty Cycle 25% (pulse freq 60kHz, peak curr 100mA)
	Register_Addr = 0x82; // PS_LED register
 800091c:	1dfb      	adds	r3, r7, #7
 800091e:	2282      	movs	r2, #130	; 0x82
 8000920:	701a      	strb	r2, [r3, #0]
	Command = 0x67; // Duty Cycle = 25%, (pulse freq 60kHz, peak curr 100mA)
 8000922:	1dbb      	adds	r3, r7, #6
 8000924:	2267      	movs	r2, #103	; 0x67
 8000926:	701a      	strb	r2, [r3, #0]
					// For Duty Cycle = 50%, (60kHz, 100mA), Command = 0x6F
					// For Duty Cycle = 75%, (60kHz, 100mA), Command = 0x77
					// For Duty Cycle = 100%, (60kHz, 100mA), Command = 0x7F
	LTR_write_register(Register_Addr, Command);
 8000928:	1dbb      	adds	r3, r7, #6
 800092a:	781b      	ldrb	r3, [r3, #0]
 800092c:	b25b      	sxtb	r3, r3
 800092e:	b29a      	uxth	r2, r3
 8000930:	1dfb      	adds	r3, r7, #7
 8000932:	781b      	ldrb	r3, [r3, #0]
 8000934:	0011      	movs	r1, r2
 8000936:	0018      	movs	r0, r3
 8000938:	f000 f81c 	bl	8000974 <LTR_write_register>

	// Set LED Peak Current 5mA (pulse freq 60kHz, duty cycle 100%)
	Register_Addr = 0x82; // PS_LED register
 800093c:	1dfb      	adds	r3, r7, #7
 800093e:	2282      	movs	r2, #130	; 0x82
 8000940:	701a      	strb	r2, [r3, #0]
	Command = 0x78; // Peak Current = 5mA, (pulse freq 60kHz, duty cyc 100%)
 8000942:	1dbb      	adds	r3, r7, #6
 8000944:	2278      	movs	r2, #120	; 0x78
 8000946:	701a      	strb	r2, [r3, #0]
	// For Peak Current = 10mA, (60kHz, 100%), Command = 0x79
	// For Peak Current = 20mA, (60kHz, 100%), Command = 0x7A
	// For Peak Current = 50mA, (60kHz, 100%), Command = 0x7B
	LTR_write_register(Register_Addr, Command);
 8000948:	1dbb      	adds	r3, r7, #6
 800094a:	781b      	ldrb	r3, [r3, #0]
 800094c:	b25b      	sxtb	r3, r3
 800094e:	b29a      	uxth	r2, r3
 8000950:	1dfb      	adds	r3, r7, #7
 8000952:	781b      	ldrb	r3, [r3, #0]
 8000954:	0011      	movs	r1, r2
 8000956:	0018      	movs	r0, r3
 8000958:	f000 f80c 	bl	8000974 <LTR_write_register>
}
 800095c:	46c0      	nop			; (mov r8, r8)
 800095e:	46bd      	mov	sp, r7
 8000960:	b002      	add	sp, #8
 8000962:	bd80      	pop	{r7, pc}
 8000964:	08003d0c 	.word	0x08003d0c
 8000968:	20000134 	.word	0x20000134
 800096c:	08003d14 	.word	0x08003d14
 8000970:	08003d30 	.word	0x08003d30

08000974 <LTR_write_register>:

void LTR_write_register(uint8_t register_pointer, uint16_t register_value)
{
 8000974:	b580      	push	{r7, lr}
 8000976:	b088      	sub	sp, #32
 8000978:	af04      	add	r7, sp, #16
 800097a:	0002      	movs	r2, r0
 800097c:	1dfb      	adds	r3, r7, #7
 800097e:	701a      	strb	r2, [r3, #0]
 8000980:	1d3b      	adds	r3, r7, #4
 8000982:	1c0a      	adds	r2, r1, #0
 8000984:	801a      	strh	r2, [r3, #0]
	//uint8_t data[2];
	//data[0] = register_pointer;
	//data[1] = register_value;

	uint8_t *sregister_value = &register_value;
 8000986:	1d3b      	adds	r3, r7, #4
 8000988:	60fb      	str	r3, [r7, #12]

    //HAL_I2C_Master_Transmit(&hi2c1, LTR_ADDR, data, 2, 100);  // data is the start pointer of our array
	I2CReturn = HAL_I2C_Mem_Write(&hi2c2, LTR_ADDR, register_pointer, 1, sregister_value, 1, 100);
 800098a:	1dfb      	adds	r3, r7, #7
 800098c:	781b      	ldrb	r3, [r3, #0]
 800098e:	b29a      	uxth	r2, r3
 8000990:	480e      	ldr	r0, [pc, #56]	; (80009cc <LTR_write_register+0x58>)
 8000992:	2364      	movs	r3, #100	; 0x64
 8000994:	9302      	str	r3, [sp, #8]
 8000996:	2301      	movs	r3, #1
 8000998:	9301      	str	r3, [sp, #4]
 800099a:	68fb      	ldr	r3, [r7, #12]
 800099c:	9300      	str	r3, [sp, #0]
 800099e:	2301      	movs	r3, #1
 80009a0:	2146      	movs	r1, #70	; 0x46
 80009a2:	f000 fdff 	bl	80015a4 <HAL_I2C_Mem_Write>
 80009a6:	0003      	movs	r3, r0
 80009a8:	001a      	movs	r2, r3
 80009aa:	4b09      	ldr	r3, [pc, #36]	; (80009d0 <LTR_write_register+0x5c>)
 80009ac:	701a      	strb	r2, [r3, #0]
		if (I2CReturn != HAL_OK) {
 80009ae:	4b08      	ldr	r3, [pc, #32]	; (80009d0 <LTR_write_register+0x5c>)
 80009b0:	781b      	ldrb	r3, [r3, #0]
 80009b2:	2b00      	cmp	r3, #0
 80009b4:	d005      	beq.n	80009c2 <LTR_write_register+0x4e>
			debugPrintln(&huart1, "LTR Write to address FAILED");
 80009b6:	4a07      	ldr	r2, [pc, #28]	; (80009d4 <LTR_write_register+0x60>)
 80009b8:	4b07      	ldr	r3, [pc, #28]	; (80009d8 <LTR_write_register+0x64>)
 80009ba:	0011      	movs	r1, r2
 80009bc:	0018      	movs	r0, r3
 80009be:	f7ff fc41 	bl	8000244 <debugPrintln>
		}
}
 80009c2:	46c0      	nop			; (mov r8, r8)
 80009c4:	46bd      	mov	sp, r7
 80009c6:	b004      	add	sp, #16
 80009c8:	bd80      	pop	{r7, pc}
 80009ca:	46c0      	nop			; (mov r8, r8)
 80009cc:	200000e8 	.word	0x200000e8
 80009d0:	200001f4 	.word	0x200001f4
 80009d4:	08003d4c 	.word	0x08003d4c
 80009d8:	20000134 	.word	0x20000134

080009dc <read_LTR_ALS>:

void read_LTR_ALS(void){
 80009dc:	b580      	push	{r7, lr}
 80009de:	b08a      	sub	sp, #40	; 0x28
 80009e0:	af04      	add	r7, sp, #16

	// The ALS Data Registers contain the ADC output data for the respective channel.
	// These registers should be read as a group, with the lower address being read first.
	// Read back ALS_DATA_CH1

	uint8_t Data0 = 0x10;
 80009e2:	1dbb      	adds	r3, r7, #6
 80009e4:	2210      	movs	r2, #16
 80009e6:	701a      	strb	r2, [r3, #0]
	uint8_t *sData0 = &Data0;
 80009e8:	1dbb      	adds	r3, r7, #6
 80009ea:	617b      	str	r3, [r7, #20]
	uint8_t Data1 = 0x10;
 80009ec:	1d7b      	adds	r3, r7, #5
 80009ee:	2210      	movs	r2, #16
 80009f0:	701a      	strb	r2, [r3, #0]
	uint8_t *sData1 = &Data1;
 80009f2:	1d7b      	adds	r3, r7, #5
 80009f4:	613b      	str	r3, [r7, #16]
	uint8_t Data2 = 0x10;
 80009f6:	1d3b      	adds	r3, r7, #4
 80009f8:	2210      	movs	r2, #16
 80009fa:	701a      	strb	r2, [r3, #0]
	uint8_t *sData2 = &Data2;
 80009fc:	1d3b      	adds	r3, r7, #4
 80009fe:	60fb      	str	r3, [r7, #12]
	uint8_t Data3 = 0x10;
 8000a00:	1cfb      	adds	r3, r7, #3
 8000a02:	2210      	movs	r2, #16
 8000a04:	701a      	strb	r2, [r3, #0]
	uint8_t *sData3 = &Data3;
 8000a06:	1cfb      	adds	r3, r7, #3
 8000a08:	60bb      	str	r3, [r7, #8]
	uint8_t Register_Addr;


	Register_Addr = 0x88; // ALS_DATA_CH1 low byte address
 8000a0a:	1dfb      	adds	r3, r7, #7
 8000a0c:	2288      	movs	r2, #136	; 0x88
 8000a0e:	701a      	strb	r2, [r3, #0]
	I2CReturn = HAL_I2C_Mem_Read(&hi2c2, LTR_ADDR, Register_Addr, 1, sData0, 1, 100);
 8000a10:	1dfb      	adds	r3, r7, #7
 8000a12:	781b      	ldrb	r3, [r3, #0]
 8000a14:	b29a      	uxth	r2, r3
 8000a16:	485b      	ldr	r0, [pc, #364]	; (8000b84 <read_LTR_ALS+0x1a8>)
 8000a18:	2364      	movs	r3, #100	; 0x64
 8000a1a:	9302      	str	r3, [sp, #8]
 8000a1c:	2301      	movs	r3, #1
 8000a1e:	9301      	str	r3, [sp, #4]
 8000a20:	697b      	ldr	r3, [r7, #20]
 8000a22:	9300      	str	r3, [sp, #0]
 8000a24:	2301      	movs	r3, #1
 8000a26:	2146      	movs	r1, #70	; 0x46
 8000a28:	f000 feea 	bl	8001800 <HAL_I2C_Mem_Read>
 8000a2c:	0003      	movs	r3, r0
 8000a2e:	001a      	movs	r2, r3
 8000a30:	4b55      	ldr	r3, [pc, #340]	; (8000b88 <read_LTR_ALS+0x1ac>)
 8000a32:	701a      	strb	r2, [r3, #0]
	if (I2CReturn != HAL_OK) {
 8000a34:	4b54      	ldr	r3, [pc, #336]	; (8000b88 <read_LTR_ALS+0x1ac>)
 8000a36:	781b      	ldrb	r3, [r3, #0]
 8000a38:	2b00      	cmp	r3, #0
 8000a3a:	d005      	beq.n	8000a48 <read_LTR_ALS+0x6c>
				debugPrintln(&huart1, "LTR read ALS1 Failed");
 8000a3c:	4a53      	ldr	r2, [pc, #332]	; (8000b8c <read_LTR_ALS+0x1b0>)
 8000a3e:	4b54      	ldr	r3, [pc, #336]	; (8000b90 <read_LTR_ALS+0x1b4>)
 8000a40:	0011      	movs	r1, r2
 8000a42:	0018      	movs	r0, r3
 8000a44:	f7ff fbfe 	bl	8000244 <debugPrintln>
			}

	ALS_Data = Data0;
 8000a48:	1dbb      	adds	r3, r7, #6
 8000a4a:	781a      	ldrb	r2, [r3, #0]
 8000a4c:	4b51      	ldr	r3, [pc, #324]	; (8000b94 <read_LTR_ALS+0x1b8>)
 8000a4e:	701a      	strb	r2, [r3, #0]

	//LTR_read_register(Register_Addr, Data0);
	Register_Addr = 0x89; // ALS_DATA_CH1 high byte address
 8000a50:	1dfb      	adds	r3, r7, #7
 8000a52:	2289      	movs	r2, #137	; 0x89
 8000a54:	701a      	strb	r2, [r3, #0]
	I2CReturn = HAL_I2C_Mem_Read(&hi2c2, LTR_ADDR, Register_Addr, 1, sData1, 1, 100);
 8000a56:	1dfb      	adds	r3, r7, #7
 8000a58:	781b      	ldrb	r3, [r3, #0]
 8000a5a:	b29a      	uxth	r2, r3
 8000a5c:	4849      	ldr	r0, [pc, #292]	; (8000b84 <read_LTR_ALS+0x1a8>)
 8000a5e:	2364      	movs	r3, #100	; 0x64
 8000a60:	9302      	str	r3, [sp, #8]
 8000a62:	2301      	movs	r3, #1
 8000a64:	9301      	str	r3, [sp, #4]
 8000a66:	693b      	ldr	r3, [r7, #16]
 8000a68:	9300      	str	r3, [sp, #0]
 8000a6a:	2301      	movs	r3, #1
 8000a6c:	2146      	movs	r1, #70	; 0x46
 8000a6e:	f000 fec7 	bl	8001800 <HAL_I2C_Mem_Read>
 8000a72:	0003      	movs	r3, r0
 8000a74:	001a      	movs	r2, r3
 8000a76:	4b44      	ldr	r3, [pc, #272]	; (8000b88 <read_LTR_ALS+0x1ac>)
 8000a78:	701a      	strb	r2, [r3, #0]
	if (I2CReturn != HAL_OK) {
 8000a7a:	4b43      	ldr	r3, [pc, #268]	; (8000b88 <read_LTR_ALS+0x1ac>)
 8000a7c:	781b      	ldrb	r3, [r3, #0]
 8000a7e:	2b00      	cmp	r3, #0
 8000a80:	d005      	beq.n	8000a8e <read_LTR_ALS+0xb2>
					debugPrintln(&huart1, "LTR read ALS1 Failed");
 8000a82:	4a42      	ldr	r2, [pc, #264]	; (8000b8c <read_LTR_ALS+0x1b0>)
 8000a84:	4b42      	ldr	r3, [pc, #264]	; (8000b90 <read_LTR_ALS+0x1b4>)
 8000a86:	0011      	movs	r1, r2
 8000a88:	0018      	movs	r0, r3
 8000a8a:	f7ff fbdb 	bl	8000244 <debugPrintln>
				}

	//LTR_read_register(Register_Addr, Data1[1]);

	// Read back ALS_DATA_CH0
	Register_Addr = 0x8A; // ALS_DATA_CH0 low byte address
 8000a8e:	1dfb      	adds	r3, r7, #7
 8000a90:	228a      	movs	r2, #138	; 0x8a
 8000a92:	701a      	strb	r2, [r3, #0]
	I2CReturn = HAL_I2C_Mem_Read(&hi2c2, LTR_ADDR, Register_Addr, 1, sData2, 1, 100);
 8000a94:	1dfb      	adds	r3, r7, #7
 8000a96:	781b      	ldrb	r3, [r3, #0]
 8000a98:	b29a      	uxth	r2, r3
 8000a9a:	483a      	ldr	r0, [pc, #232]	; (8000b84 <read_LTR_ALS+0x1a8>)
 8000a9c:	2364      	movs	r3, #100	; 0x64
 8000a9e:	9302      	str	r3, [sp, #8]
 8000aa0:	2301      	movs	r3, #1
 8000aa2:	9301      	str	r3, [sp, #4]
 8000aa4:	68fb      	ldr	r3, [r7, #12]
 8000aa6:	9300      	str	r3, [sp, #0]
 8000aa8:	2301      	movs	r3, #1
 8000aaa:	2146      	movs	r1, #70	; 0x46
 8000aac:	f000 fea8 	bl	8001800 <HAL_I2C_Mem_Read>
 8000ab0:	0003      	movs	r3, r0
 8000ab2:	001a      	movs	r2, r3
 8000ab4:	4b34      	ldr	r3, [pc, #208]	; (8000b88 <read_LTR_ALS+0x1ac>)
 8000ab6:	701a      	strb	r2, [r3, #0]
	if (I2CReturn != HAL_OK) {
 8000ab8:	4b33      	ldr	r3, [pc, #204]	; (8000b88 <read_LTR_ALS+0x1ac>)
 8000aba:	781b      	ldrb	r3, [r3, #0]
 8000abc:	2b00      	cmp	r3, #0
 8000abe:	d005      	beq.n	8000acc <read_LTR_ALS+0xf0>
						debugPrintln(&huart1, "LTR read ALS1 Failed");
 8000ac0:	4a32      	ldr	r2, [pc, #200]	; (8000b8c <read_LTR_ALS+0x1b0>)
 8000ac2:	4b33      	ldr	r3, [pc, #204]	; (8000b90 <read_LTR_ALS+0x1b4>)
 8000ac4:	0011      	movs	r1, r2
 8000ac6:	0018      	movs	r0, r3
 8000ac8:	f7ff fbbc 	bl	8000244 <debugPrintln>
					}

	//LTR_read_register(Register_Addr, Data2);
	Register_Addr = 0x8B; // ALS_DATA_CH0 high byte address
 8000acc:	1dfb      	adds	r3, r7, #7
 8000ace:	228b      	movs	r2, #139	; 0x8b
 8000ad0:	701a      	strb	r2, [r3, #0]
	HAL_I2C_Mem_Read(&hi2c2, LTR_ADDR, Register_Addr, 1, sData3, 1, 100);
 8000ad2:	1dfb      	adds	r3, r7, #7
 8000ad4:	781b      	ldrb	r3, [r3, #0]
 8000ad6:	b29a      	uxth	r2, r3
 8000ad8:	482a      	ldr	r0, [pc, #168]	; (8000b84 <read_LTR_ALS+0x1a8>)
 8000ada:	2364      	movs	r3, #100	; 0x64
 8000adc:	9302      	str	r3, [sp, #8]
 8000ade:	2301      	movs	r3, #1
 8000ae0:	9301      	str	r3, [sp, #4]
 8000ae2:	68bb      	ldr	r3, [r7, #8]
 8000ae4:	9300      	str	r3, [sp, #0]
 8000ae6:	2301      	movs	r3, #1
 8000ae8:	2146      	movs	r1, #70	; 0x46
 8000aea:	f000 fe89 	bl	8001800 <HAL_I2C_Mem_Read>
	//LTR_read_register(Register_Addr, Data3);
	ALS_CH1_ADC_Data = (Data1 << 8) | Data0; // Combining lower and upper bytes to give 16-bit Ch1 data
 8000aee:	1d7b      	adds	r3, r7, #5
 8000af0:	781b      	ldrb	r3, [r3, #0]
 8000af2:	021b      	lsls	r3, r3, #8
 8000af4:	b21a      	sxth	r2, r3
 8000af6:	1dbb      	adds	r3, r7, #6
 8000af8:	781b      	ldrb	r3, [r3, #0]
 8000afa:	b21b      	sxth	r3, r3
 8000afc:	4313      	orrs	r3, r2
 8000afe:	b21b      	sxth	r3, r3
 8000b00:	b29a      	uxth	r2, r3
 8000b02:	4b25      	ldr	r3, [pc, #148]	; (8000b98 <read_LTR_ALS+0x1bc>)
 8000b04:	801a      	strh	r2, [r3, #0]
	ALS_CH0_ADC_Data = (Data3 << 8) | Data2;// Combining lower and upper bytes to give 16-bit Ch0 data
 8000b06:	1cfb      	adds	r3, r7, #3
 8000b08:	781b      	ldrb	r3, [r3, #0]
 8000b0a:	021b      	lsls	r3, r3, #8
 8000b0c:	b21a      	sxth	r2, r3
 8000b0e:	1d3b      	adds	r3, r7, #4
 8000b10:	781b      	ldrb	r3, [r3, #0]
 8000b12:	b21b      	sxth	r3, r3
 8000b14:	4313      	orrs	r3, r2
 8000b16:	b21b      	sxth	r3, r3
 8000b18:	b29a      	uxth	r2, r3
 8000b1a:	4b20      	ldr	r3, [pc, #128]	; (8000b9c <read_LTR_ALS+0x1c0>)
 8000b1c:	801a      	strh	r2, [r3, #0]

	//PRINT READ VALUE
	memset(str, 0, sizeof(str));
 8000b1e:	4b20      	ldr	r3, [pc, #128]	; (8000ba0 <read_LTR_ALS+0x1c4>)
 8000b20:	223c      	movs	r2, #60	; 0x3c
 8000b22:	2100      	movs	r1, #0
 8000b24:	0018      	movs	r0, r3
 8000b26:	f002 fbfb 	bl	8003320 <memset>
	sprintf(str, "Received data from ALSCH1: 0x%X \n", ALS_CH1_ADC_Data);
 8000b2a:	4b1b      	ldr	r3, [pc, #108]	; (8000b98 <read_LTR_ALS+0x1bc>)
 8000b2c:	881b      	ldrh	r3, [r3, #0]
 8000b2e:	b29b      	uxth	r3, r3
 8000b30:	001a      	movs	r2, r3
 8000b32:	491c      	ldr	r1, [pc, #112]	; (8000ba4 <read_LTR_ALS+0x1c8>)
 8000b34:	4b1a      	ldr	r3, [pc, #104]	; (8000ba0 <read_LTR_ALS+0x1c4>)
 8000b36:	0018      	movs	r0, r3
 8000b38:	f002 fbfa 	bl	8003330 <siprintf>
	debugPrintln(&huart1, str);
 8000b3c:	4a18      	ldr	r2, [pc, #96]	; (8000ba0 <read_LTR_ALS+0x1c4>)
 8000b3e:	4b14      	ldr	r3, [pc, #80]	; (8000b90 <read_LTR_ALS+0x1b4>)
 8000b40:	0011      	movs	r1, r2
 8000b42:	0018      	movs	r0, r3
 8000b44:	f7ff fb7e 	bl	8000244 <debugPrintln>

	memset(str, 0, sizeof(str));
 8000b48:	4b15      	ldr	r3, [pc, #84]	; (8000ba0 <read_LTR_ALS+0x1c4>)
 8000b4a:	223c      	movs	r2, #60	; 0x3c
 8000b4c:	2100      	movs	r1, #0
 8000b4e:	0018      	movs	r0, r3
 8000b50:	f002 fbe6 	bl	8003320 <memset>
	sprintf(str, "Received data from ALSCH0: 0x%X \n", ALS_CH0_ADC_Data);
 8000b54:	4b11      	ldr	r3, [pc, #68]	; (8000b9c <read_LTR_ALS+0x1c0>)
 8000b56:	881b      	ldrh	r3, [r3, #0]
 8000b58:	b29b      	uxth	r3, r3
 8000b5a:	001a      	movs	r2, r3
 8000b5c:	4912      	ldr	r1, [pc, #72]	; (8000ba8 <read_LTR_ALS+0x1cc>)
 8000b5e:	4b10      	ldr	r3, [pc, #64]	; (8000ba0 <read_LTR_ALS+0x1c4>)
 8000b60:	0018      	movs	r0, r3
 8000b62:	f002 fbe5 	bl	8003330 <siprintf>
	debugPrintln(&huart1, str);
 8000b66:	4a0e      	ldr	r2, [pc, #56]	; (8000ba0 <read_LTR_ALS+0x1c4>)
 8000b68:	4b09      	ldr	r3, [pc, #36]	; (8000b90 <read_LTR_ALS+0x1b4>)
 8000b6a:	0011      	movs	r1, r2
 8000b6c:	0018      	movs	r0, r3
 8000b6e:	f7ff fb69 	bl	8000244 <debugPrintln>

	ALS_Data = Data0;
 8000b72:	1dbb      	adds	r3, r7, #6
 8000b74:	781a      	ldrb	r2, [r3, #0]
 8000b76:	4b07      	ldr	r3, [pc, #28]	; (8000b94 <read_LTR_ALS+0x1b8>)
 8000b78:	701a      	strb	r2, [r3, #0]



}
 8000b7a:	46c0      	nop			; (mov r8, r8)
 8000b7c:	46bd      	mov	sp, r7
 8000b7e:	b006      	add	sp, #24
 8000b80:	bd80      	pop	{r7, pc}
 8000b82:	46c0      	nop			; (mov r8, r8)
 8000b84:	200000e8 	.word	0x200000e8
 8000b88:	200001f4 	.word	0x200001f4
 8000b8c:	08003d68 	.word	0x08003d68
 8000b90:	20000134 	.word	0x20000134
 8000b94:	20000098 	.word	0x20000098
 8000b98:	20000096 	.word	0x20000096
 8000b9c:	20000094 	.word	0x20000094
 8000ba0:	200001b8 	.word	0x200001b8
 8000ba4:	08003d80 	.word	0x08003d80
 8000ba8:	08003da4 	.word	0x08003da4

08000bac <Error_Handler>:
/**
  * @brief  This function is executed in case of error occurrence.
  * @retval None
  */
void Error_Handler(void)
{
 8000bac:	b580      	push	{r7, lr}
 8000bae:	af00      	add	r7, sp, #0
  \details Disables IRQ interrupts by setting the I-bit in the CPSR.
           Can only be executed in Privileged modes.
 */
__STATIC_FORCEINLINE void __disable_irq(void)
{
  __ASM volatile ("cpsid i" : : : "memory");
 8000bb0:	b672      	cpsid	i
}
 8000bb2:	46c0      	nop			; (mov r8, r8)
  /* USER CODE BEGIN Error_Handler_Debug */
  /* User can add his own implementation to report the HAL error return state */
  __disable_irq();
  while (1)
 8000bb4:	e7fe      	b.n	8000bb4 <Error_Handler+0x8>
	...

08000bb8 <HAL_MspInit>:
/* USER CODE END 0 */
/**
  * Initializes the Global MSP.
  */
void HAL_MspInit(void)
{
 8000bb8:	b580      	push	{r7, lr}
 8000bba:	b082      	sub	sp, #8
 8000bbc:	af00      	add	r7, sp, #0
  /* USER CODE BEGIN MspInit 0 */

  /* USER CODE END MspInit 0 */

  __HAL_RCC_SYSCFG_CLK_ENABLE();
 8000bbe:	4b0f      	ldr	r3, [pc, #60]	; (8000bfc <HAL_MspInit+0x44>)
 8000bc0:	699a      	ldr	r2, [r3, #24]
 8000bc2:	4b0e      	ldr	r3, [pc, #56]	; (8000bfc <HAL_MspInit+0x44>)
 8000bc4:	2101      	movs	r1, #1
 8000bc6:	430a      	orrs	r2, r1
 8000bc8:	619a      	str	r2, [r3, #24]
 8000bca:	4b0c      	ldr	r3, [pc, #48]	; (8000bfc <HAL_MspInit+0x44>)
 8000bcc:	699b      	ldr	r3, [r3, #24]
 8000bce:	2201      	movs	r2, #1
 8000bd0:	4013      	ands	r3, r2
 8000bd2:	607b      	str	r3, [r7, #4]
 8000bd4:	687b      	ldr	r3, [r7, #4]
  __HAL_RCC_PWR_CLK_ENABLE();
 8000bd6:	4b09      	ldr	r3, [pc, #36]	; (8000bfc <HAL_MspInit+0x44>)
 8000bd8:	69da      	ldr	r2, [r3, #28]
 8000bda:	4b08      	ldr	r3, [pc, #32]	; (8000bfc <HAL_MspInit+0x44>)
 8000bdc:	2180      	movs	r1, #128	; 0x80
 8000bde:	0549      	lsls	r1, r1, #21
 8000be0:	430a      	orrs	r2, r1
 8000be2:	61da      	str	r2, [r3, #28]
 8000be4:	4b05      	ldr	r3, [pc, #20]	; (8000bfc <HAL_MspInit+0x44>)
 8000be6:	69da      	ldr	r2, [r3, #28]
 8000be8:	2380      	movs	r3, #128	; 0x80
 8000bea:	055b      	lsls	r3, r3, #21
 8000bec:	4013      	ands	r3, r2
 8000bee:	603b      	str	r3, [r7, #0]
 8000bf0:	683b      	ldr	r3, [r7, #0]
  /* System interrupt init*/

  /* USER CODE BEGIN MspInit 1 */

  /* USER CODE END MspInit 1 */
}
 8000bf2:	46c0      	nop			; (mov r8, r8)
 8000bf4:	46bd      	mov	sp, r7
 8000bf6:	b002      	add	sp, #8
 8000bf8:	bd80      	pop	{r7, pc}
 8000bfa:	46c0      	nop			; (mov r8, r8)
 8000bfc:	40021000 	.word	0x40021000

08000c00 <HAL_I2C_MspInit>:
* This function configures the hardware resources used in this example
* @param hi2c: I2C handle pointer
* @retval None
*/
void HAL_I2C_MspInit(I2C_HandleTypeDef* hi2c)
{
 8000c00:	b590      	push	{r4, r7, lr}
 8000c02:	b08d      	sub	sp, #52	; 0x34
 8000c04:	af00      	add	r7, sp, #0
 8000c06:	6078      	str	r0, [r7, #4]
  GPIO_InitTypeDef GPIO_InitStruct = {0};
 8000c08:	241c      	movs	r4, #28
 8000c0a:	193b      	adds	r3, r7, r4
 8000c0c:	0018      	movs	r0, r3
 8000c0e:	2314      	movs	r3, #20
 8000c10:	001a      	movs	r2, r3
 8000c12:	2100      	movs	r1, #0
 8000c14:	f002 fb84 	bl	8003320 <memset>
  if(hi2c->Instance==I2C1)
 8000c18:	687b      	ldr	r3, [r7, #4]
 8000c1a:	681b      	ldr	r3, [r3, #0]
 8000c1c:	4a39      	ldr	r2, [pc, #228]	; (8000d04 <HAL_I2C_MspInit+0x104>)
 8000c1e:	4293      	cmp	r3, r2
 8000c20:	d133      	bne.n	8000c8a <HAL_I2C_MspInit+0x8a>
  {
  /* USER CODE BEGIN I2C1_MspInit 0 */

  /* USER CODE END I2C1_MspInit 0 */

    __HAL_RCC_GPIOB_CLK_ENABLE();
 8000c22:	4b39      	ldr	r3, [pc, #228]	; (8000d08 <HAL_I2C_MspInit+0x108>)
 8000c24:	695a      	ldr	r2, [r3, #20]
 8000c26:	4b38      	ldr	r3, [pc, #224]	; (8000d08 <HAL_I2C_MspInit+0x108>)
 8000c28:	2180      	movs	r1, #128	; 0x80
 8000c2a:	02c9      	lsls	r1, r1, #11
 8000c2c:	430a      	orrs	r2, r1
 8000c2e:	615a      	str	r2, [r3, #20]
 8000c30:	4b35      	ldr	r3, [pc, #212]	; (8000d08 <HAL_I2C_MspInit+0x108>)
 8000c32:	695a      	ldr	r2, [r3, #20]
 8000c34:	2380      	movs	r3, #128	; 0x80
 8000c36:	02db      	lsls	r3, r3, #11
 8000c38:	4013      	ands	r3, r2
 8000c3a:	61bb      	str	r3, [r7, #24]
 8000c3c:	69bb      	ldr	r3, [r7, #24]
    /**I2C1 GPIO Configuration
    PB8     ------> I2C1_SCL
    PB9     ------> I2C1_SDA
    */
    GPIO_InitStruct.Pin = GPIO_PIN_8|GPIO_PIN_9;
 8000c3e:	193b      	adds	r3, r7, r4
 8000c40:	22c0      	movs	r2, #192	; 0xc0
 8000c42:	0092      	lsls	r2, r2, #2
 8000c44:	601a      	str	r2, [r3, #0]
    GPIO_InitStruct.Mode = GPIO_MODE_AF_OD;
 8000c46:	0021      	movs	r1, r4
 8000c48:	187b      	adds	r3, r7, r1
 8000c4a:	2212      	movs	r2, #18
 8000c4c:	605a      	str	r2, [r3, #4]
    GPIO_InitStruct.Pull = GPIO_NOPULL;
 8000c4e:	187b      	adds	r3, r7, r1
 8000c50:	2200      	movs	r2, #0
 8000c52:	609a      	str	r2, [r3, #8]
    GPIO_InitStruct.Speed = GPIO_SPEED_FREQ_HIGH;
 8000c54:	187b      	adds	r3, r7, r1
 8000c56:	2203      	movs	r2, #3
 8000c58:	60da      	str	r2, [r3, #12]
    GPIO_InitStruct.Alternate = GPIO_AF1_I2C1;
 8000c5a:	187b      	adds	r3, r7, r1
 8000c5c:	2201      	movs	r2, #1
 8000c5e:	611a      	str	r2, [r3, #16]
    HAL_GPIO_Init(GPIOB, &GPIO_InitStruct);
 8000c60:	187b      	adds	r3, r7, r1
 8000c62:	4a2a      	ldr	r2, [pc, #168]	; (8000d0c <HAL_I2C_MspInit+0x10c>)
 8000c64:	0019      	movs	r1, r3
 8000c66:	0010      	movs	r0, r2
 8000c68:	f000 fa5c 	bl	8001124 <HAL_GPIO_Init>

    /* Peripheral clock enable */
    __HAL_RCC_I2C1_CLK_ENABLE();
 8000c6c:	4b26      	ldr	r3, [pc, #152]	; (8000d08 <HAL_I2C_MspInit+0x108>)
 8000c6e:	69da      	ldr	r2, [r3, #28]
 8000c70:	4b25      	ldr	r3, [pc, #148]	; (8000d08 <HAL_I2C_MspInit+0x108>)
 8000c72:	2180      	movs	r1, #128	; 0x80
 8000c74:	0389      	lsls	r1, r1, #14
 8000c76:	430a      	orrs	r2, r1
 8000c78:	61da      	str	r2, [r3, #28]
 8000c7a:	4b23      	ldr	r3, [pc, #140]	; (8000d08 <HAL_I2C_MspInit+0x108>)
 8000c7c:	69da      	ldr	r2, [r3, #28]
 8000c7e:	2380      	movs	r3, #128	; 0x80
 8000c80:	039b      	lsls	r3, r3, #14
 8000c82:	4013      	ands	r3, r2
 8000c84:	617b      	str	r3, [r7, #20]
 8000c86:	697b      	ldr	r3, [r7, #20]
  /* USER CODE BEGIN I2C2_MspInit 1 */

  /* USER CODE END I2C2_MspInit 1 */
  }

}
 8000c88:	e037      	b.n	8000cfa <HAL_I2C_MspInit+0xfa>
  else if(hi2c->Instance==I2C2)
 8000c8a:	687b      	ldr	r3, [r7, #4]
 8000c8c:	681b      	ldr	r3, [r3, #0]
 8000c8e:	4a20      	ldr	r2, [pc, #128]	; (8000d10 <HAL_I2C_MspInit+0x110>)
 8000c90:	4293      	cmp	r3, r2
 8000c92:	d132      	bne.n	8000cfa <HAL_I2C_MspInit+0xfa>
    __HAL_RCC_GPIOB_CLK_ENABLE();
 8000c94:	4b1c      	ldr	r3, [pc, #112]	; (8000d08 <HAL_I2C_MspInit+0x108>)
 8000c96:	695a      	ldr	r2, [r3, #20]
 8000c98:	4b1b      	ldr	r3, [pc, #108]	; (8000d08 <HAL_I2C_MspInit+0x108>)
 8000c9a:	2180      	movs	r1, #128	; 0x80
 8000c9c:	02c9      	lsls	r1, r1, #11
 8000c9e:	430a      	orrs	r2, r1
 8000ca0:	615a      	str	r2, [r3, #20]
 8000ca2:	4b19      	ldr	r3, [pc, #100]	; (8000d08 <HAL_I2C_MspInit+0x108>)
 8000ca4:	695a      	ldr	r2, [r3, #20]
 8000ca6:	2380      	movs	r3, #128	; 0x80
 8000ca8:	02db      	lsls	r3, r3, #11
 8000caa:	4013      	ands	r3, r2
 8000cac:	613b      	str	r3, [r7, #16]
 8000cae:	693b      	ldr	r3, [r7, #16]
    GPIO_InitStruct.Pin = GPIO_PIN_10|GPIO_PIN_11;
 8000cb0:	211c      	movs	r1, #28
 8000cb2:	187b      	adds	r3, r7, r1
 8000cb4:	22c0      	movs	r2, #192	; 0xc0
 8000cb6:	0112      	lsls	r2, r2, #4
 8000cb8:	601a      	str	r2, [r3, #0]
    GPIO_InitStruct.Mode = GPIO_MODE_AF_OD;
 8000cba:	187b      	adds	r3, r7, r1
 8000cbc:	2212      	movs	r2, #18
 8000cbe:	605a      	str	r2, [r3, #4]
    GPIO_InitStruct.Pull = GPIO_NOPULL;
 8000cc0:	187b      	adds	r3, r7, r1
 8000cc2:	2200      	movs	r2, #0
 8000cc4:	609a      	str	r2, [r3, #8]
    GPIO_InitStruct.Speed = GPIO_SPEED_FREQ_HIGH;
 8000cc6:	187b      	adds	r3, r7, r1
 8000cc8:	2203      	movs	r2, #3
 8000cca:	60da      	str	r2, [r3, #12]
    GPIO_InitStruct.Alternate = GPIO_AF1_I2C2;
 8000ccc:	187b      	adds	r3, r7, r1
 8000cce:	2201      	movs	r2, #1
 8000cd0:	611a      	str	r2, [r3, #16]
    HAL_GPIO_Init(GPIOB, &GPIO_InitStruct);
 8000cd2:	187b      	adds	r3, r7, r1
 8000cd4:	4a0d      	ldr	r2, [pc, #52]	; (8000d0c <HAL_I2C_MspInit+0x10c>)
 8000cd6:	0019      	movs	r1, r3
 8000cd8:	0010      	movs	r0, r2
 8000cda:	f000 fa23 	bl	8001124 <HAL_GPIO_Init>
    __HAL_RCC_I2C2_CLK_ENABLE();
 8000cde:	4b0a      	ldr	r3, [pc, #40]	; (8000d08 <HAL_I2C_MspInit+0x108>)
 8000ce0:	69da      	ldr	r2, [r3, #28]
 8000ce2:	4b09      	ldr	r3, [pc, #36]	; (8000d08 <HAL_I2C_MspInit+0x108>)
 8000ce4:	2180      	movs	r1, #128	; 0x80
 8000ce6:	03c9      	lsls	r1, r1, #15
 8000ce8:	430a      	orrs	r2, r1
 8000cea:	61da      	str	r2, [r3, #28]
 8000cec:	4b06      	ldr	r3, [pc, #24]	; (8000d08 <HAL_I2C_MspInit+0x108>)
 8000cee:	69da      	ldr	r2, [r3, #28]
 8000cf0:	2380      	movs	r3, #128	; 0x80
 8000cf2:	03db      	lsls	r3, r3, #15
 8000cf4:	4013      	ands	r3, r2
 8000cf6:	60fb      	str	r3, [r7, #12]
 8000cf8:	68fb      	ldr	r3, [r7, #12]
}
 8000cfa:	46c0      	nop			; (mov r8, r8)
 8000cfc:	46bd      	mov	sp, r7
 8000cfe:	b00d      	add	sp, #52	; 0x34
 8000d00:	bd90      	pop	{r4, r7, pc}
 8000d02:	46c0      	nop			; (mov r8, r8)
 8000d04:	40005400 	.word	0x40005400
 8000d08:	40021000 	.word	0x40021000
 8000d0c:	48000400 	.word	0x48000400
 8000d10:	40005800 	.word	0x40005800

08000d14 <HAL_UART_MspInit>:
* This function configures the hardware resources used in this example
* @param huart: UART handle pointer
* @retval None
*/
void HAL_UART_MspInit(UART_HandleTypeDef* huart)
{
 8000d14:	b590      	push	{r4, r7, lr}
 8000d16:	b08b      	sub	sp, #44	; 0x2c
 8000d18:	af00      	add	r7, sp, #0
 8000d1a:	6078      	str	r0, [r7, #4]
  GPIO_InitTypeDef GPIO_InitStruct = {0};
 8000d1c:	2414      	movs	r4, #20
 8000d1e:	193b      	adds	r3, r7, r4
 8000d20:	0018      	movs	r0, r3
 8000d22:	2314      	movs	r3, #20
 8000d24:	001a      	movs	r2, r3
 8000d26:	2100      	movs	r1, #0
 8000d28:	f002 fafa 	bl	8003320 <memset>
  if(huart->Instance==USART1)
 8000d2c:	687b      	ldr	r3, [r7, #4]
 8000d2e:	681b      	ldr	r3, [r3, #0]
 8000d30:	4a1c      	ldr	r2, [pc, #112]	; (8000da4 <HAL_UART_MspInit+0x90>)
 8000d32:	4293      	cmp	r3, r2
 8000d34:	d131      	bne.n	8000d9a <HAL_UART_MspInit+0x86>
  {
  /* USER CODE BEGIN USART1_MspInit 0 */

  /* USER CODE END USART1_MspInit 0 */
    /* Peripheral clock enable */
    __HAL_RCC_USART1_CLK_ENABLE();
 8000d36:	4b1c      	ldr	r3, [pc, #112]	; (8000da8 <HAL_UART_MspInit+0x94>)
 8000d38:	699a      	ldr	r2, [r3, #24]
 8000d3a:	4b1b      	ldr	r3, [pc, #108]	; (8000da8 <HAL_UART_MspInit+0x94>)
 8000d3c:	2180      	movs	r1, #128	; 0x80
 8000d3e:	01c9      	lsls	r1, r1, #7
 8000d40:	430a      	orrs	r2, r1
 8000d42:	619a      	str	r2, [r3, #24]
 8000d44:	4b18      	ldr	r3, [pc, #96]	; (8000da8 <HAL_UART_MspInit+0x94>)
 8000d46:	699a      	ldr	r2, [r3, #24]
 8000d48:	2380      	movs	r3, #128	; 0x80
 8000d4a:	01db      	lsls	r3, r3, #7
 8000d4c:	4013      	ands	r3, r2
 8000d4e:	613b      	str	r3, [r7, #16]
 8000d50:	693b      	ldr	r3, [r7, #16]

    __HAL_RCC_GPIOB_CLK_ENABLE();
 8000d52:	4b15      	ldr	r3, [pc, #84]	; (8000da8 <HAL_UART_MspInit+0x94>)
 8000d54:	695a      	ldr	r2, [r3, #20]
 8000d56:	4b14      	ldr	r3, [pc, #80]	; (8000da8 <HAL_UART_MspInit+0x94>)
 8000d58:	2180      	movs	r1, #128	; 0x80
 8000d5a:	02c9      	lsls	r1, r1, #11
 8000d5c:	430a      	orrs	r2, r1
 8000d5e:	615a      	str	r2, [r3, #20]
 8000d60:	4b11      	ldr	r3, [pc, #68]	; (8000da8 <HAL_UART_MspInit+0x94>)
 8000d62:	695a      	ldr	r2, [r3, #20]
 8000d64:	2380      	movs	r3, #128	; 0x80
 8000d66:	02db      	lsls	r3, r3, #11
 8000d68:	4013      	ands	r3, r2
 8000d6a:	60fb      	str	r3, [r7, #12]
 8000d6c:	68fb      	ldr	r3, [r7, #12]
    /**USART1 GPIO Configuration
    PB6     ------> USART1_TX
    PB7     ------> USART1_RX
    */
    GPIO_InitStruct.Pin = GPIO_PIN_6|GPIO_PIN_7;
 8000d6e:	0021      	movs	r1, r4
 8000d70:	187b      	adds	r3, r7, r1
 8000d72:	22c0      	movs	r2, #192	; 0xc0
 8000d74:	601a      	str	r2, [r3, #0]
    GPIO_InitStruct.Mode = GPIO_MODE_AF_PP;
 8000d76:	187b      	adds	r3, r7, r1
 8000d78:	2202      	movs	r2, #2
 8000d7a:	605a      	str	r2, [r3, #4]
    GPIO_InitStruct.Pull = GPIO_NOPULL;
 8000d7c:	187b      	adds	r3, r7, r1
 8000d7e:	2200      	movs	r2, #0
 8000d80:	609a      	str	r2, [r3, #8]
    GPIO_InitStruct.Speed = GPIO_SPEED_FREQ_HIGH;
 8000d82:	187b      	adds	r3, r7, r1
 8000d84:	2203      	movs	r2, #3
 8000d86:	60da      	str	r2, [r3, #12]
    GPIO_InitStruct.Alternate = GPIO_AF0_USART1;
 8000d88:	187b      	adds	r3, r7, r1
 8000d8a:	2200      	movs	r2, #0
 8000d8c:	611a      	str	r2, [r3, #16]
    HAL_GPIO_Init(GPIOB, &GPIO_InitStruct);
 8000d8e:	187b      	adds	r3, r7, r1
 8000d90:	4a06      	ldr	r2, [pc, #24]	; (8000dac <HAL_UART_MspInit+0x98>)
 8000d92:	0019      	movs	r1, r3
 8000d94:	0010      	movs	r0, r2
 8000d96:	f000 f9c5 	bl	8001124 <HAL_GPIO_Init>
  /* USER CODE BEGIN USART1_MspInit 1 */

  /* USER CODE END USART1_MspInit 1 */
  }

}
 8000d9a:	46c0      	nop			; (mov r8, r8)
 8000d9c:	46bd      	mov	sp, r7
 8000d9e:	b00b      	add	sp, #44	; 0x2c
 8000da0:	bd90      	pop	{r4, r7, pc}
 8000da2:	46c0      	nop			; (mov r8, r8)
 8000da4:	40013800 	.word	0x40013800
 8000da8:	40021000 	.word	0x40021000
 8000dac:	48000400 	.word	0x48000400

08000db0 <NMI_Handler>:
/******************************************************************************/
/**
  * @brief This function handles Non maskable interrupt.
  */
void NMI_Handler(void)
{
 8000db0:	b580      	push	{r7, lr}
 8000db2:	af00      	add	r7, sp, #0
  /* USER CODE BEGIN NonMaskableInt_IRQn 0 */

  /* USER CODE END NonMaskableInt_IRQn 0 */
  /* USER CODE BEGIN NonMaskableInt_IRQn 1 */
  while (1)
 8000db4:	e7fe      	b.n	8000db4 <NMI_Handler+0x4>

08000db6 <HardFault_Handler>:

/**
  * @brief This function handles Hard fault interrupt.
  */
void HardFault_Handler(void)
{
 8000db6:	b580      	push	{r7, lr}
 8000db8:	af00      	add	r7, sp, #0
  /* USER CODE BEGIN HardFault_IRQn 0 */

  /* USER CODE END HardFault_IRQn 0 */
  while (1)
 8000dba:	e7fe      	b.n	8000dba <HardFault_Handler+0x4>

08000dbc <SVC_Handler>:

/**
  * @brief This function handles System service call via SWI instruction.
  */
void SVC_Handler(void)
{
 8000dbc:	b580      	push	{r7, lr}
 8000dbe:	af00      	add	r7, sp, #0

  /* USER CODE END SVC_IRQn 0 */
  /* USER CODE BEGIN SVC_IRQn 1 */

  /* USER CODE END SVC_IRQn 1 */
}
 8000dc0:	46c0      	nop			; (mov r8, r8)
 8000dc2:	46bd      	mov	sp, r7
 8000dc4:	bd80      	pop	{r7, pc}

08000dc6 <PendSV_Handler>:

/**
  * @brief This function handles Pendable request for system service.
  */
void PendSV_Handler(void)
{
 8000dc6:	b580      	push	{r7, lr}
 8000dc8:	af00      	add	r7, sp, #0

  /* USER CODE END PendSV_IRQn 0 */
  /* USER CODE BEGIN PendSV_IRQn 1 */

  /* USER CODE END PendSV_IRQn 1 */
}
 8000dca:	46c0      	nop			; (mov r8, r8)
 8000dcc:	46bd      	mov	sp, r7
 8000dce:	bd80      	pop	{r7, pc}

08000dd0 <SysTick_Handler>:

/**
  * @brief This function handles System tick timer.
  */
void SysTick_Handler(void)
{
 8000dd0:	b580      	push	{r7, lr}
 8000dd2:	af00      	add	r7, sp, #0
  /* USER CODE BEGIN SysTick_IRQn 0 */

  /* USER CODE END SysTick_IRQn 0 */
  HAL_IncTick();
 8000dd4:	f000 f8b2 	bl	8000f3c <HAL_IncTick>
  /* USER CODE BEGIN SysTick_IRQn 1 */

  /* USER CODE END SysTick_IRQn 1 */
}
 8000dd8:	46c0      	nop			; (mov r8, r8)
 8000dda:	46bd      	mov	sp, r7
 8000ddc:	bd80      	pop	{r7, pc}
	...

08000de0 <_sbrk>:
 *
 * @param incr Memory size
 * @return Pointer to allocated memory
 */
void *_sbrk(ptrdiff_t incr)
{
 8000de0:	b580      	push	{r7, lr}
 8000de2:	b086      	sub	sp, #24
 8000de4:	af00      	add	r7, sp, #0
 8000de6:	6078      	str	r0, [r7, #4]
  extern uint8_t _end; /* Symbol defined in the linker script */
  extern uint8_t _estack; /* Symbol defined in the linker script */
  extern uint32_t _Min_Stack_Size; /* Symbol defined in the linker script */
  const uint32_t stack_limit = (uint32_t)&_estack - (uint32_t)&_Min_Stack_Size;
 8000de8:	4a14      	ldr	r2, [pc, #80]	; (8000e3c <_sbrk+0x5c>)
 8000dea:	4b15      	ldr	r3, [pc, #84]	; (8000e40 <_sbrk+0x60>)
 8000dec:	1ad3      	subs	r3, r2, r3
 8000dee:	617b      	str	r3, [r7, #20]
  const uint8_t *max_heap = (uint8_t *)stack_limit;
 8000df0:	697b      	ldr	r3, [r7, #20]
 8000df2:	613b      	str	r3, [r7, #16]
  uint8_t *prev_heap_end;

  /* Initialize heap end at first call */
  if (NULL == __sbrk_heap_end)
 8000df4:	4b13      	ldr	r3, [pc, #76]	; (8000e44 <_sbrk+0x64>)
 8000df6:	681b      	ldr	r3, [r3, #0]
 8000df8:	2b00      	cmp	r3, #0
 8000dfa:	d102      	bne.n	8000e02 <_sbrk+0x22>
  {
    __sbrk_heap_end = &_end;
 8000dfc:	4b11      	ldr	r3, [pc, #68]	; (8000e44 <_sbrk+0x64>)
 8000dfe:	4a12      	ldr	r2, [pc, #72]	; (8000e48 <_sbrk+0x68>)
 8000e00:	601a      	str	r2, [r3, #0]
  }

  /* Protect heap from growing into the reserved MSP stack */
  if (__sbrk_heap_end + incr > max_heap)
 8000e02:	4b10      	ldr	r3, [pc, #64]	; (8000e44 <_sbrk+0x64>)
 8000e04:	681a      	ldr	r2, [r3, #0]
 8000e06:	687b      	ldr	r3, [r7, #4]
 8000e08:	18d3      	adds	r3, r2, r3
 8000e0a:	693a      	ldr	r2, [r7, #16]
 8000e0c:	429a      	cmp	r2, r3
 8000e0e:	d207      	bcs.n	8000e20 <_sbrk+0x40>
  {
    errno = ENOMEM;
 8000e10:	f002 fa5c 	bl	80032cc <__errno>
 8000e14:	0003      	movs	r3, r0
 8000e16:	220c      	movs	r2, #12
 8000e18:	601a      	str	r2, [r3, #0]
    return (void *)-1;
 8000e1a:	2301      	movs	r3, #1
 8000e1c:	425b      	negs	r3, r3
 8000e1e:	e009      	b.n	8000e34 <_sbrk+0x54>
  }

  prev_heap_end = __sbrk_heap_end;
 8000e20:	4b08      	ldr	r3, [pc, #32]	; (8000e44 <_sbrk+0x64>)
 8000e22:	681b      	ldr	r3, [r3, #0]
 8000e24:	60fb      	str	r3, [r7, #12]
  __sbrk_heap_end += incr;
 8000e26:	4b07      	ldr	r3, [pc, #28]	; (8000e44 <_sbrk+0x64>)
 8000e28:	681a      	ldr	r2, [r3, #0]
 8000e2a:	687b      	ldr	r3, [r7, #4]
 8000e2c:	18d2      	adds	r2, r2, r3
 8000e2e:	4b05      	ldr	r3, [pc, #20]	; (8000e44 <_sbrk+0x64>)
 8000e30:	601a      	str	r2, [r3, #0]

  return (void *)prev_heap_end;
 8000e32:	68fb      	ldr	r3, [r7, #12]
}
 8000e34:	0018      	movs	r0, r3
 8000e36:	46bd      	mov	sp, r7
 8000e38:	b006      	add	sp, #24
 8000e3a:	bd80      	pop	{r7, pc}
 8000e3c:	20002000 	.word	0x20002000
 8000e40:	00000400 	.word	0x00000400
 8000e44:	200001f8 	.word	0x200001f8
 8000e48:	20000210 	.word	0x20000210

08000e4c <SystemInit>:
  * @brief  Setup the microcontroller system
  * @param  None
  * @retval None
  */
void SystemInit(void)
{
 8000e4c:	b580      	push	{r7, lr}
 8000e4e:	af00      	add	r7, sp, #0
                         before branch to main program. This call is made inside
                         the "startup_stm32f0xx.s" file.
                         User can setups the default system clock (System clock source, PLL Multiplier
                         and Divider factors, AHB/APBx prescalers and Flash settings).
   */
}
 8000e50:	46c0      	nop			; (mov r8, r8)
 8000e52:	46bd      	mov	sp, r7
 8000e54:	bd80      	pop	{r7, pc}
	...

08000e58 <Reset_Handler>:

  .section .text.Reset_Handler
  .weak Reset_Handler
  .type Reset_Handler, %function
Reset_Handler:
  ldr   r0, =_estack
 8000e58:	480d      	ldr	r0, [pc, #52]	; (8000e90 <LoopForever+0x2>)
  mov   sp, r0          /* set stack pointer */
 8000e5a:	4685      	mov	sp, r0

/* Copy the data segment initializers from flash to SRAM */
  ldr r0, =_sdata
 8000e5c:	480d      	ldr	r0, [pc, #52]	; (8000e94 <LoopForever+0x6>)
  ldr r1, =_edata
 8000e5e:	490e      	ldr	r1, [pc, #56]	; (8000e98 <LoopForever+0xa>)
  ldr r2, =_sidata
 8000e60:	4a0e      	ldr	r2, [pc, #56]	; (8000e9c <LoopForever+0xe>)
  movs r3, #0
 8000e62:	2300      	movs	r3, #0
  b LoopCopyDataInit
 8000e64:	e002      	b.n	8000e6c <LoopCopyDataInit>

08000e66 <CopyDataInit>:

CopyDataInit:
  ldr r4, [r2, r3]
 8000e66:	58d4      	ldr	r4, [r2, r3]
  str r4, [r0, r3]
 8000e68:	50c4      	str	r4, [r0, r3]
  adds r3, r3, #4
 8000e6a:	3304      	adds	r3, #4

08000e6c <LoopCopyDataInit>:

LoopCopyDataInit:
  adds r4, r0, r3
 8000e6c:	18c4      	adds	r4, r0, r3
  cmp r4, r1
 8000e6e:	428c      	cmp	r4, r1
  bcc CopyDataInit
 8000e70:	d3f9      	bcc.n	8000e66 <CopyDataInit>
  
/* Zero fill the bss segment. */
  ldr r2, =_sbss
 8000e72:	4a0b      	ldr	r2, [pc, #44]	; (8000ea0 <LoopForever+0x12>)
  ldr r4, =_ebss
 8000e74:	4c0b      	ldr	r4, [pc, #44]	; (8000ea4 <LoopForever+0x16>)
  movs r3, #0
 8000e76:	2300      	movs	r3, #0
  b LoopFillZerobss
 8000e78:	e001      	b.n	8000e7e <LoopFillZerobss>

08000e7a <FillZerobss>:

FillZerobss:
  str  r3, [r2]
 8000e7a:	6013      	str	r3, [r2, #0]
  adds r2, r2, #4
 8000e7c:	3204      	adds	r2, #4

08000e7e <LoopFillZerobss>:

LoopFillZerobss:
  cmp r2, r4
 8000e7e:	42a2      	cmp	r2, r4
  bcc FillZerobss
 8000e80:	d3fb      	bcc.n	8000e7a <FillZerobss>

/* Call the clock system intitialization function.*/
  bl  SystemInit
 8000e82:	f7ff ffe3 	bl	8000e4c <SystemInit>
/* Call static constructors */
  bl __libc_init_array
 8000e86:	f002 fa27 	bl	80032d8 <__libc_init_array>
/* Call the application's entry point.*/
  bl main
 8000e8a:	f7ff f9fb 	bl	8000284 <main>

08000e8e <LoopForever>:

LoopForever:
    b LoopForever
 8000e8e:	e7fe      	b.n	8000e8e <LoopForever>
  ldr   r0, =_estack
 8000e90:	20002000 	.word	0x20002000
  ldr r0, =_sdata
 8000e94:	20000000 	.word	0x20000000
  ldr r1, =_edata
 8000e98:	20000078 	.word	0x20000078
  ldr r2, =_sidata
 8000e9c:	08003e3c 	.word	0x08003e3c
  ldr r2, =_sbss
 8000ea0:	20000078 	.word	0x20000078
  ldr r4, =_ebss
 8000ea4:	20000210 	.word	0x20000210

08000ea8 <ADC1_COMP_IRQHandler>:
 * @retval : None
*/
    .section .text.Default_Handler,"ax",%progbits
Default_Handler:
Infinite_Loop:
  b Infinite_Loop
 8000ea8:	e7fe      	b.n	8000ea8 <ADC1_COMP_IRQHandler>
	...

08000eac <HAL_Init>:
  *       In the default implementation,Systick is used as source of time base.
  *       The tick variable is incremented each 1ms in its ISR.
  * @retval HAL status
  */
HAL_StatusTypeDef HAL_Init(void)
{
 8000eac:	b580      	push	{r7, lr}
 8000eae:	af00      	add	r7, sp, #0
  /* Configure Flash prefetch */ 
#if (PREFETCH_ENABLE != 0)
  __HAL_FLASH_PREFETCH_BUFFER_ENABLE();
 8000eb0:	4b07      	ldr	r3, [pc, #28]	; (8000ed0 <HAL_Init+0x24>)
 8000eb2:	681a      	ldr	r2, [r3, #0]
 8000eb4:	4b06      	ldr	r3, [pc, #24]	; (8000ed0 <HAL_Init+0x24>)
 8000eb6:	2110      	movs	r1, #16
 8000eb8:	430a      	orrs	r2, r1
 8000eba:	601a      	str	r2, [r3, #0]
#endif /* PREFETCH_ENABLE */

  /* Use systick as time base source and configure 1ms tick (default clock after Reset is HSI) */

  HAL_InitTick(TICK_INT_PRIORITY);
 8000ebc:	2000      	movs	r0, #0
 8000ebe:	f000 f809 	bl	8000ed4 <HAL_InitTick>

  /* Init the low level hardware */
  HAL_MspInit();
 8000ec2:	f7ff fe79 	bl	8000bb8 <HAL_MspInit>

  /* Return function status */
  return HAL_OK;
 8000ec6:	2300      	movs	r3, #0
}
 8000ec8:	0018      	movs	r0, r3
 8000eca:	46bd      	mov	sp, r7
 8000ecc:	bd80      	pop	{r7, pc}
 8000ece:	46c0      	nop			; (mov r8, r8)
 8000ed0:	40022000 	.word	0x40022000

08000ed4 <HAL_InitTick>:
  *       implementation  in user file.
  * @param TickPriority Tick interrupt priority.
  * @retval HAL status
  */
__weak HAL_StatusTypeDef HAL_InitTick(uint32_t TickPriority)
{
 8000ed4:	b590      	push	{r4, r7, lr}
 8000ed6:	b083      	sub	sp, #12
 8000ed8:	af00      	add	r7, sp, #0
 8000eda:	6078      	str	r0, [r7, #4]
  /*Configure the SysTick to have interrupt in 1ms time basis*/
  if (HAL_SYSTICK_Config(SystemCoreClock / (1000U / uwTickFreq)) > 0U)
 8000edc:	4b14      	ldr	r3, [pc, #80]	; (8000f30 <HAL_InitTick+0x5c>)
 8000ede:	681c      	ldr	r4, [r3, #0]
 8000ee0:	4b14      	ldr	r3, [pc, #80]	; (8000f34 <HAL_InitTick+0x60>)
 8000ee2:	781b      	ldrb	r3, [r3, #0]
 8000ee4:	0019      	movs	r1, r3
 8000ee6:	23fa      	movs	r3, #250	; 0xfa
 8000ee8:	0098      	lsls	r0, r3, #2
 8000eea:	f7ff f91f 	bl	800012c <__udivsi3>
 8000eee:	0003      	movs	r3, r0
 8000ef0:	0019      	movs	r1, r3
 8000ef2:	0020      	movs	r0, r4
 8000ef4:	f7ff f91a 	bl	800012c <__udivsi3>
 8000ef8:	0003      	movs	r3, r0
 8000efa:	0018      	movs	r0, r3
 8000efc:	f000 f905 	bl	800110a <HAL_SYSTICK_Config>
 8000f00:	1e03      	subs	r3, r0, #0
 8000f02:	d001      	beq.n	8000f08 <HAL_InitTick+0x34>
  {
    return HAL_ERROR;
 8000f04:	2301      	movs	r3, #1
 8000f06:	e00f      	b.n	8000f28 <HAL_InitTick+0x54>
  }

  /* Configure the SysTick IRQ priority */
  if (TickPriority < (1UL << __NVIC_PRIO_BITS))
 8000f08:	687b      	ldr	r3, [r7, #4]
 8000f0a:	2b03      	cmp	r3, #3
 8000f0c:	d80b      	bhi.n	8000f26 <HAL_InitTick+0x52>
  {
    HAL_NVIC_SetPriority(SysTick_IRQn, TickPriority, 0U);
 8000f0e:	6879      	ldr	r1, [r7, #4]
 8000f10:	2301      	movs	r3, #1
 8000f12:	425b      	negs	r3, r3
 8000f14:	2200      	movs	r2, #0
 8000f16:	0018      	movs	r0, r3
 8000f18:	f000 f8e2 	bl	80010e0 <HAL_NVIC_SetPriority>
    uwTickPrio = TickPriority;
 8000f1c:	4b06      	ldr	r3, [pc, #24]	; (8000f38 <HAL_InitTick+0x64>)
 8000f1e:	687a      	ldr	r2, [r7, #4]
 8000f20:	601a      	str	r2, [r3, #0]
  {
    return HAL_ERROR;
  }

   /* Return function status */
  return HAL_OK;
 8000f22:	2300      	movs	r3, #0
 8000f24:	e000      	b.n	8000f28 <HAL_InitTick+0x54>
    return HAL_ERROR;
 8000f26:	2301      	movs	r3, #1
}
 8000f28:	0018      	movs	r0, r3
 8000f2a:	46bd      	mov	sp, r7
 8000f2c:	b003      	add	sp, #12
 8000f2e:	bd90      	pop	{r4, r7, pc}
 8000f30:	20000008 	.word	0x20000008
 8000f34:	20000010 	.word	0x20000010
 8000f38:	2000000c 	.word	0x2000000c

08000f3c <HAL_IncTick>:
  * @note This function is declared as __weak to be overwritten in case of other 
  *       implementations in user file.
  * @retval None
  */
__weak void HAL_IncTick(void)
{
 8000f3c:	b580      	push	{r7, lr}
 8000f3e:	af00      	add	r7, sp, #0
  uwTick += uwTickFreq;
 8000f40:	4b05      	ldr	r3, [pc, #20]	; (8000f58 <HAL_IncTick+0x1c>)
 8000f42:	781b      	ldrb	r3, [r3, #0]
 8000f44:	001a      	movs	r2, r3
 8000f46:	4b05      	ldr	r3, [pc, #20]	; (8000f5c <HAL_IncTick+0x20>)
 8000f48:	681b      	ldr	r3, [r3, #0]
 8000f4a:	18d2      	adds	r2, r2, r3
 8000f4c:	4b03      	ldr	r3, [pc, #12]	; (8000f5c <HAL_IncTick+0x20>)
 8000f4e:	601a      	str	r2, [r3, #0]
}
 8000f50:	46c0      	nop			; (mov r8, r8)
 8000f52:	46bd      	mov	sp, r7
 8000f54:	bd80      	pop	{r7, pc}
 8000f56:	46c0      	nop			; (mov r8, r8)
 8000f58:	20000010 	.word	0x20000010
 8000f5c:	200001fc 	.word	0x200001fc

08000f60 <HAL_GetTick>:
  * @note   This function is declared as __weak  to be overwritten  in case of other 
  *       implementations in user file.
  * @retval tick value
  */
__weak uint32_t HAL_GetTick(void)
{
 8000f60:	b580      	push	{r7, lr}
 8000f62:	af00      	add	r7, sp, #0
  return uwTick;
 8000f64:	4b02      	ldr	r3, [pc, #8]	; (8000f70 <HAL_GetTick+0x10>)
 8000f66:	681b      	ldr	r3, [r3, #0]
}
 8000f68:	0018      	movs	r0, r3
 8000f6a:	46bd      	mov	sp, r7
 8000f6c:	bd80      	pop	{r7, pc}
 8000f6e:	46c0      	nop			; (mov r8, r8)
 8000f70:	200001fc 	.word	0x200001fc

08000f74 <HAL_Delay>:
  *       implementations in user file.
  * @param Delay specifies the delay time length, in milliseconds.
  * @retval None
  */
__weak void HAL_Delay(uint32_t Delay)
{
 8000f74:	b580      	push	{r7, lr}
 8000f76:	b084      	sub	sp, #16
 8000f78:	af00      	add	r7, sp, #0
 8000f7a:	6078      	str	r0, [r7, #4]
  uint32_t tickstart = HAL_GetTick();
 8000f7c:	f7ff fff0 	bl	8000f60 <HAL_GetTick>
 8000f80:	0003      	movs	r3, r0
 8000f82:	60bb      	str	r3, [r7, #8]
  uint32_t wait = Delay;
 8000f84:	687b      	ldr	r3, [r7, #4]
 8000f86:	60fb      	str	r3, [r7, #12]
  
  /* Add a freq to guarantee minimum wait */
  if (wait < HAL_MAX_DELAY)
 8000f88:	68fb      	ldr	r3, [r7, #12]
 8000f8a:	3301      	adds	r3, #1
 8000f8c:	d005      	beq.n	8000f9a <HAL_Delay+0x26>
  {
    wait += (uint32_t)(uwTickFreq);
 8000f8e:	4b0a      	ldr	r3, [pc, #40]	; (8000fb8 <HAL_Delay+0x44>)
 8000f90:	781b      	ldrb	r3, [r3, #0]
 8000f92:	001a      	movs	r2, r3
 8000f94:	68fb      	ldr	r3, [r7, #12]
 8000f96:	189b      	adds	r3, r3, r2
 8000f98:	60fb      	str	r3, [r7, #12]
  }
  
  while((HAL_GetTick() - tickstart) < wait)
 8000f9a:	46c0      	nop			; (mov r8, r8)
 8000f9c:	f7ff ffe0 	bl	8000f60 <HAL_GetTick>
 8000fa0:	0002      	movs	r2, r0
 8000fa2:	68bb      	ldr	r3, [r7, #8]
 8000fa4:	1ad3      	subs	r3, r2, r3
 8000fa6:	68fa      	ldr	r2, [r7, #12]
 8000fa8:	429a      	cmp	r2, r3
 8000faa:	d8f7      	bhi.n	8000f9c <HAL_Delay+0x28>
  {
  }
}
 8000fac:	46c0      	nop			; (mov r8, r8)
 8000fae:	46c0      	nop			; (mov r8, r8)
 8000fb0:	46bd      	mov	sp, r7
 8000fb2:	b004      	add	sp, #16
 8000fb4:	bd80      	pop	{r7, pc}
 8000fb6:	46c0      	nop			; (mov r8, r8)
 8000fb8:	20000010 	.word	0x20000010

08000fbc <__NVIC_SetPriority>:
  \param [in]      IRQn  Interrupt number.
  \param [in]  priority  Priority to set.
  \note    The priority cannot be set for every processor exception.
 */
__STATIC_INLINE void __NVIC_SetPriority(IRQn_Type IRQn, uint32_t priority)
{
 8000fbc:	b590      	push	{r4, r7, lr}
 8000fbe:	b083      	sub	sp, #12
 8000fc0:	af00      	add	r7, sp, #0
 8000fc2:	0002      	movs	r2, r0
 8000fc4:	6039      	str	r1, [r7, #0]
 8000fc6:	1dfb      	adds	r3, r7, #7
 8000fc8:	701a      	strb	r2, [r3, #0]
  if ((int32_t)(IRQn) >= 0)
 8000fca:	1dfb      	adds	r3, r7, #7
 8000fcc:	781b      	ldrb	r3, [r3, #0]
 8000fce:	2b7f      	cmp	r3, #127	; 0x7f
 8000fd0:	d828      	bhi.n	8001024 <__NVIC_SetPriority+0x68>
  {
    NVIC->IP[_IP_IDX(IRQn)]  = ((uint32_t)(NVIC->IP[_IP_IDX(IRQn)]  & ~(0xFFUL << _BIT_SHIFT(IRQn))) |
 8000fd2:	4a2f      	ldr	r2, [pc, #188]	; (8001090 <__NVIC_SetPriority+0xd4>)
 8000fd4:	1dfb      	adds	r3, r7, #7
 8000fd6:	781b      	ldrb	r3, [r3, #0]
 8000fd8:	b25b      	sxtb	r3, r3
 8000fda:	089b      	lsrs	r3, r3, #2
 8000fdc:	33c0      	adds	r3, #192	; 0xc0
 8000fde:	009b      	lsls	r3, r3, #2
 8000fe0:	589b      	ldr	r3, [r3, r2]
 8000fe2:	1dfa      	adds	r2, r7, #7
 8000fe4:	7812      	ldrb	r2, [r2, #0]
 8000fe6:	0011      	movs	r1, r2
 8000fe8:	2203      	movs	r2, #3
 8000fea:	400a      	ands	r2, r1
 8000fec:	00d2      	lsls	r2, r2, #3
 8000fee:	21ff      	movs	r1, #255	; 0xff
 8000ff0:	4091      	lsls	r1, r2
 8000ff2:	000a      	movs	r2, r1
 8000ff4:	43d2      	mvns	r2, r2
 8000ff6:	401a      	ands	r2, r3
 8000ff8:	0011      	movs	r1, r2
       (((priority << (8U - __NVIC_PRIO_BITS)) & (uint32_t)0xFFUL) << _BIT_SHIFT(IRQn)));
 8000ffa:	683b      	ldr	r3, [r7, #0]
 8000ffc:	019b      	lsls	r3, r3, #6
 8000ffe:	22ff      	movs	r2, #255	; 0xff
 8001000:	401a      	ands	r2, r3
 8001002:	1dfb      	adds	r3, r7, #7
 8001004:	781b      	ldrb	r3, [r3, #0]
 8001006:	0018      	movs	r0, r3
 8001008:	2303      	movs	r3, #3
 800100a:	4003      	ands	r3, r0
 800100c:	00db      	lsls	r3, r3, #3
 800100e:	409a      	lsls	r2, r3
    NVIC->IP[_IP_IDX(IRQn)]  = ((uint32_t)(NVIC->IP[_IP_IDX(IRQn)]  & ~(0xFFUL << _BIT_SHIFT(IRQn))) |
 8001010:	481f      	ldr	r0, [pc, #124]	; (8001090 <__NVIC_SetPriority+0xd4>)
 8001012:	1dfb      	adds	r3, r7, #7
 8001014:	781b      	ldrb	r3, [r3, #0]
 8001016:	b25b      	sxtb	r3, r3
 8001018:	089b      	lsrs	r3, r3, #2
 800101a:	430a      	orrs	r2, r1
 800101c:	33c0      	adds	r3, #192	; 0xc0
 800101e:	009b      	lsls	r3, r3, #2
 8001020:	501a      	str	r2, [r3, r0]
  else
  {
    SCB->SHP[_SHP_IDX(IRQn)] = ((uint32_t)(SCB->SHP[_SHP_IDX(IRQn)] & ~(0xFFUL << _BIT_SHIFT(IRQn))) |
       (((priority << (8U - __NVIC_PRIO_BITS)) & (uint32_t)0xFFUL) << _BIT_SHIFT(IRQn)));
  }
}
 8001022:	e031      	b.n	8001088 <__NVIC_SetPriority+0xcc>
    SCB->SHP[_SHP_IDX(IRQn)] = ((uint32_t)(SCB->SHP[_SHP_IDX(IRQn)] & ~(0xFFUL << _BIT_SHIFT(IRQn))) |
 8001024:	4a1b      	ldr	r2, [pc, #108]	; (8001094 <__NVIC_SetPriority+0xd8>)
 8001026:	1dfb      	adds	r3, r7, #7
 8001028:	781b      	ldrb	r3, [r3, #0]
 800102a:	0019      	movs	r1, r3
 800102c:	230f      	movs	r3, #15
 800102e:	400b      	ands	r3, r1
 8001030:	3b08      	subs	r3, #8
 8001032:	089b      	lsrs	r3, r3, #2
 8001034:	3306      	adds	r3, #6
 8001036:	009b      	lsls	r3, r3, #2
 8001038:	18d3      	adds	r3, r2, r3
 800103a:	3304      	adds	r3, #4
 800103c:	681b      	ldr	r3, [r3, #0]
 800103e:	1dfa      	adds	r2, r7, #7
 8001040:	7812      	ldrb	r2, [r2, #0]
 8001042:	0011      	movs	r1, r2
 8001044:	2203      	movs	r2, #3
 8001046:	400a      	ands	r2, r1
 8001048:	00d2      	lsls	r2, r2, #3
 800104a:	21ff      	movs	r1, #255	; 0xff
 800104c:	4091      	lsls	r1, r2
 800104e:	000a      	movs	r2, r1
 8001050:	43d2      	mvns	r2, r2
 8001052:	401a      	ands	r2, r3
 8001054:	0011      	movs	r1, r2
       (((priority << (8U - __NVIC_PRIO_BITS)) & (uint32_t)0xFFUL) << _BIT_SHIFT(IRQn)));
 8001056:	683b      	ldr	r3, [r7, #0]
 8001058:	019b      	lsls	r3, r3, #6
 800105a:	22ff      	movs	r2, #255	; 0xff
 800105c:	401a      	ands	r2, r3
 800105e:	1dfb      	adds	r3, r7, #7
 8001060:	781b      	ldrb	r3, [r3, #0]
 8001062:	0018      	movs	r0, r3
 8001064:	2303      	movs	r3, #3
 8001066:	4003      	ands	r3, r0
 8001068:	00db      	lsls	r3, r3, #3
 800106a:	409a      	lsls	r2, r3
    SCB->SHP[_SHP_IDX(IRQn)] = ((uint32_t)(SCB->SHP[_SHP_IDX(IRQn)] & ~(0xFFUL << _BIT_SHIFT(IRQn))) |
 800106c:	4809      	ldr	r0, [pc, #36]	; (8001094 <__NVIC_SetPriority+0xd8>)
 800106e:	1dfb      	adds	r3, r7, #7
 8001070:	781b      	ldrb	r3, [r3, #0]
 8001072:	001c      	movs	r4, r3
 8001074:	230f      	movs	r3, #15
 8001076:	4023      	ands	r3, r4
 8001078:	3b08      	subs	r3, #8
 800107a:	089b      	lsrs	r3, r3, #2
 800107c:	430a      	orrs	r2, r1
 800107e:	3306      	adds	r3, #6
 8001080:	009b      	lsls	r3, r3, #2
 8001082:	18c3      	adds	r3, r0, r3
 8001084:	3304      	adds	r3, #4
 8001086:	601a      	str	r2, [r3, #0]
}
 8001088:	46c0      	nop			; (mov r8, r8)
 800108a:	46bd      	mov	sp, r7
 800108c:	b003      	add	sp, #12
 800108e:	bd90      	pop	{r4, r7, pc}
 8001090:	e000e100 	.word	0xe000e100
 8001094:	e000ed00 	.word	0xe000ed00

08001098 <SysTick_Config>:
  \note    When the variable <b>__Vendor_SysTickConfig</b> is set to 1, then the
           function <b>SysTick_Config</b> is not included. In this case, the file <b><i>device</i>.h</b>
           must contain a vendor-specific implementation of this function.
 */
__STATIC_INLINE uint32_t SysTick_Config(uint32_t ticks)
{
 8001098:	b580      	push	{r7, lr}
 800109a:	b082      	sub	sp, #8
 800109c:	af00      	add	r7, sp, #0
 800109e:	6078      	str	r0, [r7, #4]
  if ((ticks - 1UL) > SysTick_LOAD_RELOAD_Msk)
 80010a0:	687b      	ldr	r3, [r7, #4]
 80010a2:	1e5a      	subs	r2, r3, #1
 80010a4:	2380      	movs	r3, #128	; 0x80
 80010a6:	045b      	lsls	r3, r3, #17
 80010a8:	429a      	cmp	r2, r3
 80010aa:	d301      	bcc.n	80010b0 <SysTick_Config+0x18>
  {
    return (1UL);                                                   /* Reload value impossible */
 80010ac:	2301      	movs	r3, #1
 80010ae:	e010      	b.n	80010d2 <SysTick_Config+0x3a>
  }

  SysTick->LOAD  = (uint32_t)(ticks - 1UL);                         /* set reload register */
 80010b0:	4b0a      	ldr	r3, [pc, #40]	; (80010dc <SysTick_Config+0x44>)
 80010b2:	687a      	ldr	r2, [r7, #4]
 80010b4:	3a01      	subs	r2, #1
 80010b6:	605a      	str	r2, [r3, #4]
  NVIC_SetPriority (SysTick_IRQn, (1UL << __NVIC_PRIO_BITS) - 1UL); /* set Priority for Systick Interrupt */
 80010b8:	2301      	movs	r3, #1
 80010ba:	425b      	negs	r3, r3
 80010bc:	2103      	movs	r1, #3
 80010be:	0018      	movs	r0, r3
 80010c0:	f7ff ff7c 	bl	8000fbc <__NVIC_SetPriority>
  SysTick->VAL   = 0UL;                                             /* Load the SysTick Counter Value */
 80010c4:	4b05      	ldr	r3, [pc, #20]	; (80010dc <SysTick_Config+0x44>)
 80010c6:	2200      	movs	r2, #0
 80010c8:	609a      	str	r2, [r3, #8]
  SysTick->CTRL  = SysTick_CTRL_CLKSOURCE_Msk |
 80010ca:	4b04      	ldr	r3, [pc, #16]	; (80010dc <SysTick_Config+0x44>)
 80010cc:	2207      	movs	r2, #7
 80010ce:	601a      	str	r2, [r3, #0]
                   SysTick_CTRL_TICKINT_Msk   |
                   SysTick_CTRL_ENABLE_Msk;                         /* Enable SysTick IRQ and SysTick Timer */
  return (0UL);                                                     /* Function successful */
 80010d0:	2300      	movs	r3, #0
}
 80010d2:	0018      	movs	r0, r3
 80010d4:	46bd      	mov	sp, r7
 80010d6:	b002      	add	sp, #8
 80010d8:	bd80      	pop	{r7, pc}
 80010da:	46c0      	nop			; (mov r8, r8)
 80010dc:	e000e010 	.word	0xe000e010

080010e0 <HAL_NVIC_SetPriority>:
  *         with stm32f0xx devices, this parameter is a dummy value and it is ignored, because 
  *         no subpriority supported in Cortex M0 based products.   
  * @retval None
  */
void HAL_NVIC_SetPriority(IRQn_Type IRQn, uint32_t PreemptPriority, uint32_t SubPriority)
{ 
 80010e0:	b580      	push	{r7, lr}
 80010e2:	b084      	sub	sp, #16
 80010e4:	af00      	add	r7, sp, #0
 80010e6:	60b9      	str	r1, [r7, #8]
 80010e8:	607a      	str	r2, [r7, #4]
 80010ea:	210f      	movs	r1, #15
 80010ec:	187b      	adds	r3, r7, r1
 80010ee:	1c02      	adds	r2, r0, #0
 80010f0:	701a      	strb	r2, [r3, #0]
  /* Check the parameters */
  assert_param(IS_NVIC_PREEMPTION_PRIORITY(PreemptPriority));
  NVIC_SetPriority(IRQn,PreemptPriority);
 80010f2:	68ba      	ldr	r2, [r7, #8]
 80010f4:	187b      	adds	r3, r7, r1
 80010f6:	781b      	ldrb	r3, [r3, #0]
 80010f8:	b25b      	sxtb	r3, r3
 80010fa:	0011      	movs	r1, r2
 80010fc:	0018      	movs	r0, r3
 80010fe:	f7ff ff5d 	bl	8000fbc <__NVIC_SetPriority>
}
 8001102:	46c0      	nop			; (mov r8, r8)
 8001104:	46bd      	mov	sp, r7
 8001106:	b004      	add	sp, #16
 8001108:	bd80      	pop	{r7, pc}

0800110a <HAL_SYSTICK_Config>:
  * @param  TicksNumb Specifies the ticks Number of ticks between two interrupts.
  * @retval status:  - 0  Function succeeded.
  *                  - 1  Function failed.
  */
uint32_t HAL_SYSTICK_Config(uint32_t TicksNumb)
{
 800110a:	b580      	push	{r7, lr}
 800110c:	b082      	sub	sp, #8
 800110e:	af00      	add	r7, sp, #0
 8001110:	6078      	str	r0, [r7, #4]
   return SysTick_Config(TicksNumb);
 8001112:	687b      	ldr	r3, [r7, #4]
 8001114:	0018      	movs	r0, r3
 8001116:	f7ff ffbf 	bl	8001098 <SysTick_Config>
 800111a:	0003      	movs	r3, r0
}
 800111c:	0018      	movs	r0, r3
 800111e:	46bd      	mov	sp, r7
 8001120:	b002      	add	sp, #8
 8001122:	bd80      	pop	{r7, pc}

08001124 <HAL_GPIO_Init>:
  * @param  GPIO_Init pointer to a GPIO_InitTypeDef structure that contains
  *         the configuration information for the specified GPIO peripheral.
  * @retval None
  */
void HAL_GPIO_Init(GPIO_TypeDef  *GPIOx, GPIO_InitTypeDef *GPIO_Init)
{
 8001124:	b580      	push	{r7, lr}
 8001126:	b086      	sub	sp, #24
 8001128:	af00      	add	r7, sp, #0
 800112a:	6078      	str	r0, [r7, #4]
 800112c:	6039      	str	r1, [r7, #0]
  uint32_t position = 0x00u;
 800112e:	2300      	movs	r3, #0
 8001130:	617b      	str	r3, [r7, #20]
  assert_param(IS_GPIO_ALL_INSTANCE(GPIOx));
  assert_param(IS_GPIO_PIN(GPIO_Init->Pin));
  assert_param(IS_GPIO_MODE(GPIO_Init->Mode));

  /* Configure the port pins */
  while (((GPIO_Init->Pin) >> position) != 0x00u)
 8001132:	e14f      	b.n	80013d4 <HAL_GPIO_Init+0x2b0>
  {
    /* Get current io position */
    iocurrent = (GPIO_Init->Pin) & (1uL << position);
 8001134:	683b      	ldr	r3, [r7, #0]
 8001136:	681b      	ldr	r3, [r3, #0]
 8001138:	2101      	movs	r1, #1
 800113a:	697a      	ldr	r2, [r7, #20]
 800113c:	4091      	lsls	r1, r2
 800113e:	000a      	movs	r2, r1
 8001140:	4013      	ands	r3, r2
 8001142:	60fb      	str	r3, [r7, #12]

    if (iocurrent != 0x00u)
 8001144:	68fb      	ldr	r3, [r7, #12]
 8001146:	2b00      	cmp	r3, #0
 8001148:	d100      	bne.n	800114c <HAL_GPIO_Init+0x28>
 800114a:	e140      	b.n	80013ce <HAL_GPIO_Init+0x2aa>
    {
      /*--------------------- GPIO Mode Configuration ------------------------*/
      /* In case of Output or Alternate function mode selection */
      if(((GPIO_Init->Mode & GPIO_MODE) == MODE_OUTPUT) ||
 800114c:	683b      	ldr	r3, [r7, #0]
 800114e:	685b      	ldr	r3, [r3, #4]
 8001150:	2203      	movs	r2, #3
 8001152:	4013      	ands	r3, r2
 8001154:	2b01      	cmp	r3, #1
 8001156:	d005      	beq.n	8001164 <HAL_GPIO_Init+0x40>
         ((GPIO_Init->Mode & GPIO_MODE) == MODE_AF))
 8001158:	683b      	ldr	r3, [r7, #0]
 800115a:	685b      	ldr	r3, [r3, #4]
 800115c:	2203      	movs	r2, #3
 800115e:	4013      	ands	r3, r2
      if(((GPIO_Init->Mode & GPIO_MODE) == MODE_OUTPUT) ||
 8001160:	2b02      	cmp	r3, #2
 8001162:	d130      	bne.n	80011c6 <HAL_GPIO_Init+0xa2>
      {
        /* Check the Speed parameter */
        assert_param(IS_GPIO_SPEED(GPIO_Init->Speed));
        /* Configure the IO Speed */
        temp = GPIOx->OSPEEDR;
 8001164:	687b      	ldr	r3, [r7, #4]
 8001166:	689b      	ldr	r3, [r3, #8]
 8001168:	613b      	str	r3, [r7, #16]
        temp &= ~(GPIO_OSPEEDER_OSPEEDR0 << (position * 2u));
 800116a:	697b      	ldr	r3, [r7, #20]
 800116c:	005b      	lsls	r3, r3, #1
 800116e:	2203      	movs	r2, #3
 8001170:	409a      	lsls	r2, r3
 8001172:	0013      	movs	r3, r2
 8001174:	43da      	mvns	r2, r3
 8001176:	693b      	ldr	r3, [r7, #16]
 8001178:	4013      	ands	r3, r2
 800117a:	613b      	str	r3, [r7, #16]
        temp |= (GPIO_Init->Speed << (position * 2u));
 800117c:	683b      	ldr	r3, [r7, #0]
 800117e:	68da      	ldr	r2, [r3, #12]
 8001180:	697b      	ldr	r3, [r7, #20]
 8001182:	005b      	lsls	r3, r3, #1
 8001184:	409a      	lsls	r2, r3
 8001186:	0013      	movs	r3, r2
 8001188:	693a      	ldr	r2, [r7, #16]
 800118a:	4313      	orrs	r3, r2
 800118c:	613b      	str	r3, [r7, #16]
        GPIOx->OSPEEDR = temp;
 800118e:	687b      	ldr	r3, [r7, #4]
 8001190:	693a      	ldr	r2, [r7, #16]
 8001192:	609a      	str	r2, [r3, #8]

        /* Configure the IO Output Type */
        temp = GPIOx->OTYPER;
 8001194:	687b      	ldr	r3, [r7, #4]
 8001196:	685b      	ldr	r3, [r3, #4]
 8001198:	613b      	str	r3, [r7, #16]
        temp &= ~(GPIO_OTYPER_OT_0 << position) ;
 800119a:	2201      	movs	r2, #1
 800119c:	697b      	ldr	r3, [r7, #20]
 800119e:	409a      	lsls	r2, r3
 80011a0:	0013      	movs	r3, r2
 80011a2:	43da      	mvns	r2, r3
 80011a4:	693b      	ldr	r3, [r7, #16]
 80011a6:	4013      	ands	r3, r2
 80011a8:	613b      	str	r3, [r7, #16]
        temp |= (((GPIO_Init->Mode & OUTPUT_TYPE) >> OUTPUT_TYPE_Pos) << position);
 80011aa:	683b      	ldr	r3, [r7, #0]
 80011ac:	685b      	ldr	r3, [r3, #4]
 80011ae:	091b      	lsrs	r3, r3, #4
 80011b0:	2201      	movs	r2, #1
 80011b2:	401a      	ands	r2, r3
 80011b4:	697b      	ldr	r3, [r7, #20]
 80011b6:	409a      	lsls	r2, r3
 80011b8:	0013      	movs	r3, r2
 80011ba:	693a      	ldr	r2, [r7, #16]
 80011bc:	4313      	orrs	r3, r2
 80011be:	613b      	str	r3, [r7, #16]
        GPIOx->OTYPER = temp;
 80011c0:	687b      	ldr	r3, [r7, #4]
 80011c2:	693a      	ldr	r2, [r7, #16]
 80011c4:	605a      	str	r2, [r3, #4]
      }
      
      if((GPIO_Init->Mode & GPIO_MODE) != MODE_ANALOG)
 80011c6:	683b      	ldr	r3, [r7, #0]
 80011c8:	685b      	ldr	r3, [r3, #4]
 80011ca:	2203      	movs	r2, #3
 80011cc:	4013      	ands	r3, r2
 80011ce:	2b03      	cmp	r3, #3
 80011d0:	d017      	beq.n	8001202 <HAL_GPIO_Init+0xde>
      {
        /* Check the Pull parameter */
        assert_param(IS_GPIO_PULL(GPIO_Init->Pull));

        /* Activate the Pull-up or Pull down resistor for the current IO */
        temp = GPIOx->PUPDR;
 80011d2:	687b      	ldr	r3, [r7, #4]
 80011d4:	68db      	ldr	r3, [r3, #12]
 80011d6:	613b      	str	r3, [r7, #16]
        temp &= ~(GPIO_PUPDR_PUPDR0 << (position * 2u));
 80011d8:	697b      	ldr	r3, [r7, #20]
 80011da:	005b      	lsls	r3, r3, #1
 80011dc:	2203      	movs	r2, #3
 80011de:	409a      	lsls	r2, r3
 80011e0:	0013      	movs	r3, r2
 80011e2:	43da      	mvns	r2, r3
 80011e4:	693b      	ldr	r3, [r7, #16]
 80011e6:	4013      	ands	r3, r2
 80011e8:	613b      	str	r3, [r7, #16]
        temp |= ((GPIO_Init->Pull) << (position * 2u));
 80011ea:	683b      	ldr	r3, [r7, #0]
 80011ec:	689a      	ldr	r2, [r3, #8]
 80011ee:	697b      	ldr	r3, [r7, #20]
 80011f0:	005b      	lsls	r3, r3, #1
 80011f2:	409a      	lsls	r2, r3
 80011f4:	0013      	movs	r3, r2
 80011f6:	693a      	ldr	r2, [r7, #16]
 80011f8:	4313      	orrs	r3, r2
 80011fa:	613b      	str	r3, [r7, #16]
        GPIOx->PUPDR = temp;
 80011fc:	687b      	ldr	r3, [r7, #4]
 80011fe:	693a      	ldr	r2, [r7, #16]
 8001200:	60da      	str	r2, [r3, #12]
      }

      /* In case of Alternate function mode selection */
      if((GPIO_Init->Mode & GPIO_MODE) == MODE_AF)
 8001202:	683b      	ldr	r3, [r7, #0]
 8001204:	685b      	ldr	r3, [r3, #4]
 8001206:	2203      	movs	r2, #3
 8001208:	4013      	ands	r3, r2
 800120a:	2b02      	cmp	r3, #2
 800120c:	d123      	bne.n	8001256 <HAL_GPIO_Init+0x132>
        /* Check the Alternate function parameters */
        assert_param(IS_GPIO_AF_INSTANCE(GPIOx));
        assert_param(IS_GPIO_AF(GPIO_Init->Alternate));

        /* Configure Alternate function mapped with the current IO */
        temp = GPIOx->AFR[position >> 3u];
 800120e:	697b      	ldr	r3, [r7, #20]
 8001210:	08da      	lsrs	r2, r3, #3
 8001212:	687b      	ldr	r3, [r7, #4]
 8001214:	3208      	adds	r2, #8
 8001216:	0092      	lsls	r2, r2, #2
 8001218:	58d3      	ldr	r3, [r2, r3]
 800121a:	613b      	str	r3, [r7, #16]
        temp &= ~(0xFu << ((position & 0x07u) * 4u));
 800121c:	697b      	ldr	r3, [r7, #20]
 800121e:	2207      	movs	r2, #7
 8001220:	4013      	ands	r3, r2
 8001222:	009b      	lsls	r3, r3, #2
 8001224:	220f      	movs	r2, #15
 8001226:	409a      	lsls	r2, r3
 8001228:	0013      	movs	r3, r2
 800122a:	43da      	mvns	r2, r3
 800122c:	693b      	ldr	r3, [r7, #16]
 800122e:	4013      	ands	r3, r2
 8001230:	613b      	str	r3, [r7, #16]
        temp |= ((GPIO_Init->Alternate) << ((position & 0x07u) * 4u));
 8001232:	683b      	ldr	r3, [r7, #0]
 8001234:	691a      	ldr	r2, [r3, #16]
 8001236:	697b      	ldr	r3, [r7, #20]
 8001238:	2107      	movs	r1, #7
 800123a:	400b      	ands	r3, r1
 800123c:	009b      	lsls	r3, r3, #2
 800123e:	409a      	lsls	r2, r3
 8001240:	0013      	movs	r3, r2
 8001242:	693a      	ldr	r2, [r7, #16]
 8001244:	4313      	orrs	r3, r2
 8001246:	613b      	str	r3, [r7, #16]
        GPIOx->AFR[position >> 3u] = temp;
 8001248:	697b      	ldr	r3, [r7, #20]
 800124a:	08da      	lsrs	r2, r3, #3
 800124c:	687b      	ldr	r3, [r7, #4]
 800124e:	3208      	adds	r2, #8
 8001250:	0092      	lsls	r2, r2, #2
 8001252:	6939      	ldr	r1, [r7, #16]
 8001254:	50d1      	str	r1, [r2, r3]
      }

      /* Configure IO Direction mode (Input, Output, Alternate or Analog) */
      temp = GPIOx->MODER;
 8001256:	687b      	ldr	r3, [r7, #4]
 8001258:	681b      	ldr	r3, [r3, #0]
 800125a:	613b      	str	r3, [r7, #16]
      temp &= ~(GPIO_MODER_MODER0 << (position * 2u));
 800125c:	697b      	ldr	r3, [r7, #20]
 800125e:	005b      	lsls	r3, r3, #1
 8001260:	2203      	movs	r2, #3
 8001262:	409a      	lsls	r2, r3
 8001264:	0013      	movs	r3, r2
 8001266:	43da      	mvns	r2, r3
 8001268:	693b      	ldr	r3, [r7, #16]
 800126a:	4013      	ands	r3, r2
 800126c:	613b      	str	r3, [r7, #16]
      temp |= ((GPIO_Init->Mode & GPIO_MODE) << (position * 2u));
 800126e:	683b      	ldr	r3, [r7, #0]
 8001270:	685b      	ldr	r3, [r3, #4]
 8001272:	2203      	movs	r2, #3
 8001274:	401a      	ands	r2, r3
 8001276:	697b      	ldr	r3, [r7, #20]
 8001278:	005b      	lsls	r3, r3, #1
 800127a:	409a      	lsls	r2, r3
 800127c:	0013      	movs	r3, r2
 800127e:	693a      	ldr	r2, [r7, #16]
 8001280:	4313      	orrs	r3, r2
 8001282:	613b      	str	r3, [r7, #16]
      GPIOx->MODER = temp;
 8001284:	687b      	ldr	r3, [r7, #4]
 8001286:	693a      	ldr	r2, [r7, #16]
 8001288:	601a      	str	r2, [r3, #0]

      /*--------------------- EXTI Mode Configuration ------------------------*/
      /* Configure the External Interrupt or event for the current IO */
      if((GPIO_Init->Mode & EXTI_MODE) != 0x00u)
 800128a:	683b      	ldr	r3, [r7, #0]
 800128c:	685a      	ldr	r2, [r3, #4]
 800128e:	23c0      	movs	r3, #192	; 0xc0
 8001290:	029b      	lsls	r3, r3, #10
 8001292:	4013      	ands	r3, r2
 8001294:	d100      	bne.n	8001298 <HAL_GPIO_Init+0x174>
 8001296:	e09a      	b.n	80013ce <HAL_GPIO_Init+0x2aa>
      {
        /* Enable SYSCFG Clock */
        __HAL_RCC_SYSCFG_CLK_ENABLE();
 8001298:	4b54      	ldr	r3, [pc, #336]	; (80013ec <HAL_GPIO_Init+0x2c8>)
 800129a:	699a      	ldr	r2, [r3, #24]
 800129c:	4b53      	ldr	r3, [pc, #332]	; (80013ec <HAL_GPIO_Init+0x2c8>)
 800129e:	2101      	movs	r1, #1
 80012a0:	430a      	orrs	r2, r1
 80012a2:	619a      	str	r2, [r3, #24]
 80012a4:	4b51      	ldr	r3, [pc, #324]	; (80013ec <HAL_GPIO_Init+0x2c8>)
 80012a6:	699b      	ldr	r3, [r3, #24]
 80012a8:	2201      	movs	r2, #1
 80012aa:	4013      	ands	r3, r2
 80012ac:	60bb      	str	r3, [r7, #8]
 80012ae:	68bb      	ldr	r3, [r7, #8]

        temp = SYSCFG->EXTICR[position >> 2u];
 80012b0:	4a4f      	ldr	r2, [pc, #316]	; (80013f0 <HAL_GPIO_Init+0x2cc>)
 80012b2:	697b      	ldr	r3, [r7, #20]
 80012b4:	089b      	lsrs	r3, r3, #2
 80012b6:	3302      	adds	r3, #2
 80012b8:	009b      	lsls	r3, r3, #2
 80012ba:	589b      	ldr	r3, [r3, r2]
 80012bc:	613b      	str	r3, [r7, #16]
        temp &= ~(0x0FuL << (4u * (position & 0x03u)));
 80012be:	697b      	ldr	r3, [r7, #20]
 80012c0:	2203      	movs	r2, #3
 80012c2:	4013      	ands	r3, r2
 80012c4:	009b      	lsls	r3, r3, #2
 80012c6:	220f      	movs	r2, #15
 80012c8:	409a      	lsls	r2, r3
 80012ca:	0013      	movs	r3, r2
 80012cc:	43da      	mvns	r2, r3
 80012ce:	693b      	ldr	r3, [r7, #16]
 80012d0:	4013      	ands	r3, r2
 80012d2:	613b      	str	r3, [r7, #16]
        temp |= (GPIO_GET_INDEX(GPIOx) << (4u * (position & 0x03u)));
 80012d4:	687a      	ldr	r2, [r7, #4]
 80012d6:	2390      	movs	r3, #144	; 0x90
 80012d8:	05db      	lsls	r3, r3, #23
 80012da:	429a      	cmp	r2, r3
 80012dc:	d013      	beq.n	8001306 <HAL_GPIO_Init+0x1e2>
 80012de:	687b      	ldr	r3, [r7, #4]
 80012e0:	4a44      	ldr	r2, [pc, #272]	; (80013f4 <HAL_GPIO_Init+0x2d0>)
 80012e2:	4293      	cmp	r3, r2
 80012e4:	d00d      	beq.n	8001302 <HAL_GPIO_Init+0x1de>
 80012e6:	687b      	ldr	r3, [r7, #4]
 80012e8:	4a43      	ldr	r2, [pc, #268]	; (80013f8 <HAL_GPIO_Init+0x2d4>)
 80012ea:	4293      	cmp	r3, r2
 80012ec:	d007      	beq.n	80012fe <HAL_GPIO_Init+0x1da>
 80012ee:	687b      	ldr	r3, [r7, #4]
 80012f0:	4a42      	ldr	r2, [pc, #264]	; (80013fc <HAL_GPIO_Init+0x2d8>)
 80012f2:	4293      	cmp	r3, r2
 80012f4:	d101      	bne.n	80012fa <HAL_GPIO_Init+0x1d6>
 80012f6:	2303      	movs	r3, #3
 80012f8:	e006      	b.n	8001308 <HAL_GPIO_Init+0x1e4>
 80012fa:	2305      	movs	r3, #5
 80012fc:	e004      	b.n	8001308 <HAL_GPIO_Init+0x1e4>
 80012fe:	2302      	movs	r3, #2
 8001300:	e002      	b.n	8001308 <HAL_GPIO_Init+0x1e4>
 8001302:	2301      	movs	r3, #1
 8001304:	e000      	b.n	8001308 <HAL_GPIO_Init+0x1e4>
 8001306:	2300      	movs	r3, #0
 8001308:	697a      	ldr	r2, [r7, #20]
 800130a:	2103      	movs	r1, #3
 800130c:	400a      	ands	r2, r1
 800130e:	0092      	lsls	r2, r2, #2
 8001310:	4093      	lsls	r3, r2
 8001312:	693a      	ldr	r2, [r7, #16]
 8001314:	4313      	orrs	r3, r2
 8001316:	613b      	str	r3, [r7, #16]
        SYSCFG->EXTICR[position >> 2u] = temp;
 8001318:	4935      	ldr	r1, [pc, #212]	; (80013f0 <HAL_GPIO_Init+0x2cc>)
 800131a:	697b      	ldr	r3, [r7, #20]
 800131c:	089b      	lsrs	r3, r3, #2
 800131e:	3302      	adds	r3, #2
 8001320:	009b      	lsls	r3, r3, #2
 8001322:	693a      	ldr	r2, [r7, #16]
 8001324:	505a      	str	r2, [r3, r1]

        /* Clear EXTI line configuration */
        temp = EXTI->IMR;
 8001326:	4b36      	ldr	r3, [pc, #216]	; (8001400 <HAL_GPIO_Init+0x2dc>)
 8001328:	681b      	ldr	r3, [r3, #0]
 800132a:	613b      	str	r3, [r7, #16]
        temp &= ~(iocurrent);
 800132c:	68fb      	ldr	r3, [r7, #12]
 800132e:	43da      	mvns	r2, r3
 8001330:	693b      	ldr	r3, [r7, #16]
 8001332:	4013      	ands	r3, r2
 8001334:	613b      	str	r3, [r7, #16]
        if((GPIO_Init->Mode & EXTI_IT) != 0x00u)
 8001336:	683b      	ldr	r3, [r7, #0]
 8001338:	685a      	ldr	r2, [r3, #4]
 800133a:	2380      	movs	r3, #128	; 0x80
 800133c:	025b      	lsls	r3, r3, #9
 800133e:	4013      	ands	r3, r2
 8001340:	d003      	beq.n	800134a <HAL_GPIO_Init+0x226>
        {
          temp |= iocurrent;
 8001342:	693a      	ldr	r2, [r7, #16]
 8001344:	68fb      	ldr	r3, [r7, #12]
 8001346:	4313      	orrs	r3, r2
 8001348:	613b      	str	r3, [r7, #16]
        }
        EXTI->IMR = temp;
 800134a:	4b2d      	ldr	r3, [pc, #180]	; (8001400 <HAL_GPIO_Init+0x2dc>)
 800134c:	693a      	ldr	r2, [r7, #16]
 800134e:	601a      	str	r2, [r3, #0]

        temp = EXTI->EMR;
 8001350:	4b2b      	ldr	r3, [pc, #172]	; (8001400 <HAL_GPIO_Init+0x2dc>)
 8001352:	685b      	ldr	r3, [r3, #4]
 8001354:	613b      	str	r3, [r7, #16]
        temp &= ~(iocurrent);
 8001356:	68fb      	ldr	r3, [r7, #12]
 8001358:	43da      	mvns	r2, r3
 800135a:	693b      	ldr	r3, [r7, #16]
 800135c:	4013      	ands	r3, r2
 800135e:	613b      	str	r3, [r7, #16]
        if((GPIO_Init->Mode & EXTI_EVT) != 0x00u)
 8001360:	683b      	ldr	r3, [r7, #0]
 8001362:	685a      	ldr	r2, [r3, #4]
 8001364:	2380      	movs	r3, #128	; 0x80
 8001366:	029b      	lsls	r3, r3, #10
 8001368:	4013      	ands	r3, r2
 800136a:	d003      	beq.n	8001374 <HAL_GPIO_Init+0x250>
        {
          temp |= iocurrent;
 800136c:	693a      	ldr	r2, [r7, #16]
 800136e:	68fb      	ldr	r3, [r7, #12]
 8001370:	4313      	orrs	r3, r2
 8001372:	613b      	str	r3, [r7, #16]
        }
        EXTI->EMR = temp;
 8001374:	4b22      	ldr	r3, [pc, #136]	; (8001400 <HAL_GPIO_Init+0x2dc>)
 8001376:	693a      	ldr	r2, [r7, #16]
 8001378:	605a      	str	r2, [r3, #4]

        /* Clear Rising Falling edge configuration */
        temp = EXTI->RTSR;
 800137a:	4b21      	ldr	r3, [pc, #132]	; (8001400 <HAL_GPIO_Init+0x2dc>)
 800137c:	689b      	ldr	r3, [r3, #8]
 800137e:	613b      	str	r3, [r7, #16]
        temp &= ~(iocurrent);
 8001380:	68fb      	ldr	r3, [r7, #12]
 8001382:	43da      	mvns	r2, r3
 8001384:	693b      	ldr	r3, [r7, #16]
 8001386:	4013      	ands	r3, r2
 8001388:	613b      	str	r3, [r7, #16]
        if((GPIO_Init->Mode & TRIGGER_RISING) != 0x00u)
 800138a:	683b      	ldr	r3, [r7, #0]
 800138c:	685a      	ldr	r2, [r3, #4]
 800138e:	2380      	movs	r3, #128	; 0x80
 8001390:	035b      	lsls	r3, r3, #13
 8001392:	4013      	ands	r3, r2
 8001394:	d003      	beq.n	800139e <HAL_GPIO_Init+0x27a>
        {
          temp |= iocurrent;
 8001396:	693a      	ldr	r2, [r7, #16]
 8001398:	68fb      	ldr	r3, [r7, #12]
 800139a:	4313      	orrs	r3, r2
 800139c:	613b      	str	r3, [r7, #16]
        }
        EXTI->RTSR = temp;
 800139e:	4b18      	ldr	r3, [pc, #96]	; (8001400 <HAL_GPIO_Init+0x2dc>)
 80013a0:	693a      	ldr	r2, [r7, #16]
 80013a2:	609a      	str	r2, [r3, #8]

        temp = EXTI->FTSR;
 80013a4:	4b16      	ldr	r3, [pc, #88]	; (8001400 <HAL_GPIO_Init+0x2dc>)
 80013a6:	68db      	ldr	r3, [r3, #12]
 80013a8:	613b      	str	r3, [r7, #16]
        temp &= ~(iocurrent);
 80013aa:	68fb      	ldr	r3, [r7, #12]
 80013ac:	43da      	mvns	r2, r3
 80013ae:	693b      	ldr	r3, [r7, #16]
 80013b0:	4013      	ands	r3, r2
 80013b2:	613b      	str	r3, [r7, #16]
        if((GPIO_Init->Mode & TRIGGER_FALLING) != 0x00u)
 80013b4:	683b      	ldr	r3, [r7, #0]
 80013b6:	685a      	ldr	r2, [r3, #4]
 80013b8:	2380      	movs	r3, #128	; 0x80
 80013ba:	039b      	lsls	r3, r3, #14
 80013bc:	4013      	ands	r3, r2
 80013be:	d003      	beq.n	80013c8 <HAL_GPIO_Init+0x2a4>
        {
          temp |= iocurrent;
 80013c0:	693a      	ldr	r2, [r7, #16]
 80013c2:	68fb      	ldr	r3, [r7, #12]
 80013c4:	4313      	orrs	r3, r2
 80013c6:	613b      	str	r3, [r7, #16]
        }
        EXTI->FTSR = temp;
 80013c8:	4b0d      	ldr	r3, [pc, #52]	; (8001400 <HAL_GPIO_Init+0x2dc>)
 80013ca:	693a      	ldr	r2, [r7, #16]
 80013cc:	60da      	str	r2, [r3, #12]
      }
    }

    position++;
 80013ce:	697b      	ldr	r3, [r7, #20]
 80013d0:	3301      	adds	r3, #1
 80013d2:	617b      	str	r3, [r7, #20]
  while (((GPIO_Init->Pin) >> position) != 0x00u)
 80013d4:	683b      	ldr	r3, [r7, #0]
 80013d6:	681a      	ldr	r2, [r3, #0]
 80013d8:	697b      	ldr	r3, [r7, #20]
 80013da:	40da      	lsrs	r2, r3
 80013dc:	1e13      	subs	r3, r2, #0
 80013de:	d000      	beq.n	80013e2 <HAL_GPIO_Init+0x2be>
 80013e0:	e6a8      	b.n	8001134 <HAL_GPIO_Init+0x10>
  } 
}
 80013e2:	46c0      	nop			; (mov r8, r8)
 80013e4:	46c0      	nop			; (mov r8, r8)
 80013e6:	46bd      	mov	sp, r7
 80013e8:	b006      	add	sp, #24
 80013ea:	bd80      	pop	{r7, pc}
 80013ec:	40021000 	.word	0x40021000
 80013f0:	40010000 	.word	0x40010000
 80013f4:	48000400 	.word	0x48000400
 80013f8:	48000800 	.word	0x48000800
 80013fc:	48000c00 	.word	0x48000c00
 8001400:	40010400 	.word	0x40010400

08001404 <HAL_GPIO_ReadPin>:
  * @param  GPIO_Pin specifies the port bit to read.
  *         This parameter can be GPIO_PIN_x where x can be (0..15).
  * @retval The input port pin value.
  */
GPIO_PinState HAL_GPIO_ReadPin(GPIO_TypeDef* GPIOx, uint16_t GPIO_Pin)
{
 8001404:	b580      	push	{r7, lr}
 8001406:	b084      	sub	sp, #16
 8001408:	af00      	add	r7, sp, #0
 800140a:	6078      	str	r0, [r7, #4]
 800140c:	000a      	movs	r2, r1
 800140e:	1cbb      	adds	r3, r7, #2
 8001410:	801a      	strh	r2, [r3, #0]
  GPIO_PinState bitstatus;

  /* Check the parameters */
  assert_param(IS_GPIO_PIN(GPIO_Pin));

  if ((GPIOx->IDR & GPIO_Pin) != (uint32_t)GPIO_PIN_RESET)
 8001412:	687b      	ldr	r3, [r7, #4]
 8001414:	691b      	ldr	r3, [r3, #16]
 8001416:	1cba      	adds	r2, r7, #2
 8001418:	8812      	ldrh	r2, [r2, #0]
 800141a:	4013      	ands	r3, r2
 800141c:	d004      	beq.n	8001428 <HAL_GPIO_ReadPin+0x24>
  {
    bitstatus = GPIO_PIN_SET;
 800141e:	230f      	movs	r3, #15
 8001420:	18fb      	adds	r3, r7, r3
 8001422:	2201      	movs	r2, #1
 8001424:	701a      	strb	r2, [r3, #0]
 8001426:	e003      	b.n	8001430 <HAL_GPIO_ReadPin+0x2c>
  }
  else
  {
    bitstatus = GPIO_PIN_RESET;
 8001428:	230f      	movs	r3, #15
 800142a:	18fb      	adds	r3, r7, r3
 800142c:	2200      	movs	r2, #0
 800142e:	701a      	strb	r2, [r3, #0]
  }
  return bitstatus;
 8001430:	230f      	movs	r3, #15
 8001432:	18fb      	adds	r3, r7, r3
 8001434:	781b      	ldrb	r3, [r3, #0]
  }
 8001436:	0018      	movs	r0, r3
 8001438:	46bd      	mov	sp, r7
 800143a:	b004      	add	sp, #16
 800143c:	bd80      	pop	{r7, pc}

0800143e <HAL_GPIO_WritePin>:
  *            @arg GPIO_PIN_RESET: to clear the port pin
  *            @arg GPIO_PIN_SET: to set the port pin
  * @retval None
  */
void HAL_GPIO_WritePin(GPIO_TypeDef* GPIOx, uint16_t GPIO_Pin, GPIO_PinState PinState)
{
 800143e:	b580      	push	{r7, lr}
 8001440:	b082      	sub	sp, #8
 8001442:	af00      	add	r7, sp, #0
 8001444:	6078      	str	r0, [r7, #4]
 8001446:	0008      	movs	r0, r1
 8001448:	0011      	movs	r1, r2
 800144a:	1cbb      	adds	r3, r7, #2
 800144c:	1c02      	adds	r2, r0, #0
 800144e:	801a      	strh	r2, [r3, #0]
 8001450:	1c7b      	adds	r3, r7, #1
 8001452:	1c0a      	adds	r2, r1, #0
 8001454:	701a      	strb	r2, [r3, #0]
  /* Check the parameters */
  assert_param(IS_GPIO_PIN(GPIO_Pin));
  assert_param(IS_GPIO_PIN_ACTION(PinState));

  if (PinState != GPIO_PIN_RESET)
 8001456:	1c7b      	adds	r3, r7, #1
 8001458:	781b      	ldrb	r3, [r3, #0]
 800145a:	2b00      	cmp	r3, #0
 800145c:	d004      	beq.n	8001468 <HAL_GPIO_WritePin+0x2a>
  {
    GPIOx->BSRR = (uint32_t)GPIO_Pin;
 800145e:	1cbb      	adds	r3, r7, #2
 8001460:	881a      	ldrh	r2, [r3, #0]
 8001462:	687b      	ldr	r3, [r7, #4]
 8001464:	619a      	str	r2, [r3, #24]
  }
  else
  {
    GPIOx->BRR = (uint32_t)GPIO_Pin;
  }
}
 8001466:	e003      	b.n	8001470 <HAL_GPIO_WritePin+0x32>
    GPIOx->BRR = (uint32_t)GPIO_Pin;
 8001468:	1cbb      	adds	r3, r7, #2
 800146a:	881a      	ldrh	r2, [r3, #0]
 800146c:	687b      	ldr	r3, [r7, #4]
 800146e:	629a      	str	r2, [r3, #40]	; 0x28
}
 8001470:	46c0      	nop			; (mov r8, r8)
 8001472:	46bd      	mov	sp, r7
 8001474:	b002      	add	sp, #8
 8001476:	bd80      	pop	{r7, pc}

08001478 <HAL_I2C_Init>:
  * @param  hi2c Pointer to a I2C_HandleTypeDef structure that contains
  *                the configuration information for the specified I2C.
  * @retval HAL status
  */
HAL_StatusTypeDef HAL_I2C_Init(I2C_HandleTypeDef *hi2c)
{
 8001478:	b580      	push	{r7, lr}
 800147a:	b082      	sub	sp, #8
 800147c:	af00      	add	r7, sp, #0
 800147e:	6078      	str	r0, [r7, #4]
  /* Check the I2C handle allocation */
  if (hi2c == NULL)
 8001480:	687b      	ldr	r3, [r7, #4]
 8001482:	2b00      	cmp	r3, #0
 8001484:	d101      	bne.n	800148a <HAL_I2C_Init+0x12>
  {
    return HAL_ERROR;
 8001486:	2301      	movs	r3, #1
 8001488:	e082      	b.n	8001590 <HAL_I2C_Init+0x118>
  assert_param(IS_I2C_OWN_ADDRESS2(hi2c->Init.OwnAddress2));
  assert_param(IS_I2C_OWN_ADDRESS2_MASK(hi2c->Init.OwnAddress2Masks));
  assert_param(IS_I2C_GENERAL_CALL(hi2c->Init.GeneralCallMode));
  assert_param(IS_I2C_NO_STRETCH(hi2c->Init.NoStretchMode));

  if (hi2c->State == HAL_I2C_STATE_RESET)
 800148a:	687b      	ldr	r3, [r7, #4]
 800148c:	2241      	movs	r2, #65	; 0x41
 800148e:	5c9b      	ldrb	r3, [r3, r2]
 8001490:	b2db      	uxtb	r3, r3
 8001492:	2b00      	cmp	r3, #0
 8001494:	d107      	bne.n	80014a6 <HAL_I2C_Init+0x2e>
  {
    /* Allocate lock resource and initialize it */
    hi2c->Lock = HAL_UNLOCKED;
 8001496:	687b      	ldr	r3, [r7, #4]
 8001498:	2240      	movs	r2, #64	; 0x40
 800149a:	2100      	movs	r1, #0
 800149c:	5499      	strb	r1, [r3, r2]

    /* Init the low level hardware : GPIO, CLOCK, CORTEX...etc */
    hi2c->MspInitCallback(hi2c);
#else
    /* Init the low level hardware : GPIO, CLOCK, CORTEX...etc */
    HAL_I2C_MspInit(hi2c);
 800149e:	687b      	ldr	r3, [r7, #4]
 80014a0:	0018      	movs	r0, r3
 80014a2:	f7ff fbad 	bl	8000c00 <HAL_I2C_MspInit>
#endif /* USE_HAL_I2C_REGISTER_CALLBACKS */
  }

  hi2c->State = HAL_I2C_STATE_BUSY;
 80014a6:	687b      	ldr	r3, [r7, #4]
 80014a8:	2241      	movs	r2, #65	; 0x41
 80014aa:	2124      	movs	r1, #36	; 0x24
 80014ac:	5499      	strb	r1, [r3, r2]

  /* Disable the selected I2C peripheral */
  __HAL_I2C_DISABLE(hi2c);
 80014ae:	687b      	ldr	r3, [r7, #4]
 80014b0:	681b      	ldr	r3, [r3, #0]
 80014b2:	681a      	ldr	r2, [r3, #0]
 80014b4:	687b      	ldr	r3, [r7, #4]
 80014b6:	681b      	ldr	r3, [r3, #0]
 80014b8:	2101      	movs	r1, #1
 80014ba:	438a      	bics	r2, r1
 80014bc:	601a      	str	r2, [r3, #0]

  /*---------------------------- I2Cx TIMINGR Configuration ------------------*/
  /* Configure I2Cx: Frequency range */
  hi2c->Instance->TIMINGR = hi2c->Init.Timing & TIMING_CLEAR_MASK;
 80014be:	687b      	ldr	r3, [r7, #4]
 80014c0:	685a      	ldr	r2, [r3, #4]
 80014c2:	687b      	ldr	r3, [r7, #4]
 80014c4:	681b      	ldr	r3, [r3, #0]
 80014c6:	4934      	ldr	r1, [pc, #208]	; (8001598 <HAL_I2C_Init+0x120>)
 80014c8:	400a      	ands	r2, r1
 80014ca:	611a      	str	r2, [r3, #16]

  /*---------------------------- I2Cx OAR1 Configuration ---------------------*/
  /* Disable Own Address1 before set the Own Address1 configuration */
  hi2c->Instance->OAR1 &= ~I2C_OAR1_OA1EN;
 80014cc:	687b      	ldr	r3, [r7, #4]
 80014ce:	681b      	ldr	r3, [r3, #0]
 80014d0:	689a      	ldr	r2, [r3, #8]
 80014d2:	687b      	ldr	r3, [r7, #4]
 80014d4:	681b      	ldr	r3, [r3, #0]
 80014d6:	4931      	ldr	r1, [pc, #196]	; (800159c <HAL_I2C_Init+0x124>)
 80014d8:	400a      	ands	r2, r1
 80014da:	609a      	str	r2, [r3, #8]

  /* Configure I2Cx: Own Address1 and ack own address1 mode */
  if (hi2c->Init.AddressingMode == I2C_ADDRESSINGMODE_7BIT)
 80014dc:	687b      	ldr	r3, [r7, #4]
 80014de:	68db      	ldr	r3, [r3, #12]
 80014e0:	2b01      	cmp	r3, #1
 80014e2:	d108      	bne.n	80014f6 <HAL_I2C_Init+0x7e>
  {
    hi2c->Instance->OAR1 = (I2C_OAR1_OA1EN | hi2c->Init.OwnAddress1);
 80014e4:	687b      	ldr	r3, [r7, #4]
 80014e6:	689a      	ldr	r2, [r3, #8]
 80014e8:	687b      	ldr	r3, [r7, #4]
 80014ea:	681b      	ldr	r3, [r3, #0]
 80014ec:	2180      	movs	r1, #128	; 0x80
 80014ee:	0209      	lsls	r1, r1, #8
 80014f0:	430a      	orrs	r2, r1
 80014f2:	609a      	str	r2, [r3, #8]
 80014f4:	e007      	b.n	8001506 <HAL_I2C_Init+0x8e>
  }
  else /* I2C_ADDRESSINGMODE_10BIT */
  {
    hi2c->Instance->OAR1 = (I2C_OAR1_OA1EN | I2C_OAR1_OA1MODE | hi2c->Init.OwnAddress1);
 80014f6:	687b      	ldr	r3, [r7, #4]
 80014f8:	689a      	ldr	r2, [r3, #8]
 80014fa:	687b      	ldr	r3, [r7, #4]
 80014fc:	681b      	ldr	r3, [r3, #0]
 80014fe:	2184      	movs	r1, #132	; 0x84
 8001500:	0209      	lsls	r1, r1, #8
 8001502:	430a      	orrs	r2, r1
 8001504:	609a      	str	r2, [r3, #8]
  }

  /*---------------------------- I2Cx CR2 Configuration ----------------------*/
  /* Configure I2Cx: Addressing Master mode */
  if (hi2c->Init.AddressingMode == I2C_ADDRESSINGMODE_10BIT)
 8001506:	687b      	ldr	r3, [r7, #4]
 8001508:	68db      	ldr	r3, [r3, #12]
 800150a:	2b02      	cmp	r3, #2
 800150c:	d104      	bne.n	8001518 <HAL_I2C_Init+0xa0>
  {
    hi2c->Instance->CR2 = (I2C_CR2_ADD10);
 800150e:	687b      	ldr	r3, [r7, #4]
 8001510:	681b      	ldr	r3, [r3, #0]
 8001512:	2280      	movs	r2, #128	; 0x80
 8001514:	0112      	lsls	r2, r2, #4
 8001516:	605a      	str	r2, [r3, #4]
  }
  /* Enable the AUTOEND by default, and enable NACK (should be disable only during Slave process */
  hi2c->Instance->CR2 |= (I2C_CR2_AUTOEND | I2C_CR2_NACK);
 8001518:	687b      	ldr	r3, [r7, #4]
 800151a:	681b      	ldr	r3, [r3, #0]
 800151c:	685a      	ldr	r2, [r3, #4]
 800151e:	687b      	ldr	r3, [r7, #4]
 8001520:	681b      	ldr	r3, [r3, #0]
 8001522:	491f      	ldr	r1, [pc, #124]	; (80015a0 <HAL_I2C_Init+0x128>)
 8001524:	430a      	orrs	r2, r1
 8001526:	605a      	str	r2, [r3, #4]

  /*---------------------------- I2Cx OAR2 Configuration ---------------------*/
  /* Disable Own Address2 before set the Own Address2 configuration */
  hi2c->Instance->OAR2 &= ~I2C_DUALADDRESS_ENABLE;
 8001528:	687b      	ldr	r3, [r7, #4]
 800152a:	681b      	ldr	r3, [r3, #0]
 800152c:	68da      	ldr	r2, [r3, #12]
 800152e:	687b      	ldr	r3, [r7, #4]
 8001530:	681b      	ldr	r3, [r3, #0]
 8001532:	491a      	ldr	r1, [pc, #104]	; (800159c <HAL_I2C_Init+0x124>)
 8001534:	400a      	ands	r2, r1
 8001536:	60da      	str	r2, [r3, #12]

  /* Configure I2Cx: Dual mode and Own Address2 */
  hi2c->Instance->OAR2 = (hi2c->Init.DualAddressMode | hi2c->Init.OwnAddress2 | \
 8001538:	687b      	ldr	r3, [r7, #4]
 800153a:	691a      	ldr	r2, [r3, #16]
 800153c:	687b      	ldr	r3, [r7, #4]
 800153e:	695b      	ldr	r3, [r3, #20]
 8001540:	431a      	orrs	r2, r3
 8001542:	0011      	movs	r1, r2
                          (hi2c->Init.OwnAddress2Masks << 8));
 8001544:	687b      	ldr	r3, [r7, #4]
 8001546:	699b      	ldr	r3, [r3, #24]
 8001548:	021a      	lsls	r2, r3, #8
  hi2c->Instance->OAR2 = (hi2c->Init.DualAddressMode | hi2c->Init.OwnAddress2 | \
 800154a:	687b      	ldr	r3, [r7, #4]
 800154c:	681b      	ldr	r3, [r3, #0]
 800154e:	430a      	orrs	r2, r1
 8001550:	60da      	str	r2, [r3, #12]

  /*---------------------------- I2Cx CR1 Configuration ----------------------*/
  /* Configure I2Cx: Generalcall and NoStretch mode */
  hi2c->Instance->CR1 = (hi2c->Init.GeneralCallMode | hi2c->Init.NoStretchMode);
 8001552:	687b      	ldr	r3, [r7, #4]
 8001554:	69d9      	ldr	r1, [r3, #28]
 8001556:	687b      	ldr	r3, [r7, #4]
 8001558:	6a1a      	ldr	r2, [r3, #32]
 800155a:	687b      	ldr	r3, [r7, #4]
 800155c:	681b      	ldr	r3, [r3, #0]
 800155e:	430a      	orrs	r2, r1
 8001560:	601a      	str	r2, [r3, #0]

  /* Enable the selected I2C peripheral */
  __HAL_I2C_ENABLE(hi2c);
 8001562:	687b      	ldr	r3, [r7, #4]
 8001564:	681b      	ldr	r3, [r3, #0]
 8001566:	681a      	ldr	r2, [r3, #0]
 8001568:	687b      	ldr	r3, [r7, #4]
 800156a:	681b      	ldr	r3, [r3, #0]
 800156c:	2101      	movs	r1, #1
 800156e:	430a      	orrs	r2, r1
 8001570:	601a      	str	r2, [r3, #0]

  hi2c->ErrorCode = HAL_I2C_ERROR_NONE;
 8001572:	687b      	ldr	r3, [r7, #4]
 8001574:	2200      	movs	r2, #0
 8001576:	645a      	str	r2, [r3, #68]	; 0x44
  hi2c->State = HAL_I2C_STATE_READY;
 8001578:	687b      	ldr	r3, [r7, #4]
 800157a:	2241      	movs	r2, #65	; 0x41
 800157c:	2120      	movs	r1, #32
 800157e:	5499      	strb	r1, [r3, r2]
  hi2c->PreviousState = I2C_STATE_NONE;
 8001580:	687b      	ldr	r3, [r7, #4]
 8001582:	2200      	movs	r2, #0
 8001584:	631a      	str	r2, [r3, #48]	; 0x30
  hi2c->Mode = HAL_I2C_MODE_NONE;
 8001586:	687b      	ldr	r3, [r7, #4]
 8001588:	2242      	movs	r2, #66	; 0x42
 800158a:	2100      	movs	r1, #0
 800158c:	5499      	strb	r1, [r3, r2]

  return HAL_OK;
 800158e:	2300      	movs	r3, #0
}
 8001590:	0018      	movs	r0, r3
 8001592:	46bd      	mov	sp, r7
 8001594:	b002      	add	sp, #8
 8001596:	bd80      	pop	{r7, pc}
 8001598:	f0ffffff 	.word	0xf0ffffff
 800159c:	ffff7fff 	.word	0xffff7fff
 80015a0:	02008000 	.word	0x02008000

080015a4 <HAL_I2C_Mem_Write>:
  * @param  Timeout Timeout duration
  * @retval HAL status
  */
HAL_StatusTypeDef HAL_I2C_Mem_Write(I2C_HandleTypeDef *hi2c, uint16_t DevAddress, uint16_t MemAddress,
                                    uint16_t MemAddSize, uint8_t *pData, uint16_t Size, uint32_t Timeout)
{
 80015a4:	b590      	push	{r4, r7, lr}
 80015a6:	b089      	sub	sp, #36	; 0x24
 80015a8:	af02      	add	r7, sp, #8
 80015aa:	60f8      	str	r0, [r7, #12]
 80015ac:	000c      	movs	r4, r1
 80015ae:	0010      	movs	r0, r2
 80015b0:	0019      	movs	r1, r3
 80015b2:	230a      	movs	r3, #10
 80015b4:	18fb      	adds	r3, r7, r3
 80015b6:	1c22      	adds	r2, r4, #0
 80015b8:	801a      	strh	r2, [r3, #0]
 80015ba:	2308      	movs	r3, #8
 80015bc:	18fb      	adds	r3, r7, r3
 80015be:	1c02      	adds	r2, r0, #0
 80015c0:	801a      	strh	r2, [r3, #0]
 80015c2:	1dbb      	adds	r3, r7, #6
 80015c4:	1c0a      	adds	r2, r1, #0
 80015c6:	801a      	strh	r2, [r3, #0]
  uint32_t tickstart;

  /* Check the parameters */
  assert_param(IS_I2C_MEMADD_SIZE(MemAddSize));

  if (hi2c->State == HAL_I2C_STATE_READY)
 80015c8:	68fb      	ldr	r3, [r7, #12]
 80015ca:	2241      	movs	r2, #65	; 0x41
 80015cc:	5c9b      	ldrb	r3, [r3, r2]
 80015ce:	b2db      	uxtb	r3, r3
 80015d0:	2b20      	cmp	r3, #32
 80015d2:	d000      	beq.n	80015d6 <HAL_I2C_Mem_Write+0x32>
 80015d4:	e10c      	b.n	80017f0 <HAL_I2C_Mem_Write+0x24c>
  {
    if ((pData == NULL) || (Size == 0U))
 80015d6:	6abb      	ldr	r3, [r7, #40]	; 0x28
 80015d8:	2b00      	cmp	r3, #0
 80015da:	d004      	beq.n	80015e6 <HAL_I2C_Mem_Write+0x42>
 80015dc:	232c      	movs	r3, #44	; 0x2c
 80015de:	18fb      	adds	r3, r7, r3
 80015e0:	881b      	ldrh	r3, [r3, #0]
 80015e2:	2b00      	cmp	r3, #0
 80015e4:	d105      	bne.n	80015f2 <HAL_I2C_Mem_Write+0x4e>
    {
      hi2c->ErrorCode = HAL_I2C_ERROR_INVALID_PARAM;
 80015e6:	68fb      	ldr	r3, [r7, #12]
 80015e8:	2280      	movs	r2, #128	; 0x80
 80015ea:	0092      	lsls	r2, r2, #2
 80015ec:	645a      	str	r2, [r3, #68]	; 0x44
      return  HAL_ERROR;
 80015ee:	2301      	movs	r3, #1
 80015f0:	e0ff      	b.n	80017f2 <HAL_I2C_Mem_Write+0x24e>
    }

    /* Process Locked */
    __HAL_LOCK(hi2c);
 80015f2:	68fb      	ldr	r3, [r7, #12]
 80015f4:	2240      	movs	r2, #64	; 0x40
 80015f6:	5c9b      	ldrb	r3, [r3, r2]
 80015f8:	2b01      	cmp	r3, #1
 80015fa:	d101      	bne.n	8001600 <HAL_I2C_Mem_Write+0x5c>
 80015fc:	2302      	movs	r3, #2
 80015fe:	e0f8      	b.n	80017f2 <HAL_I2C_Mem_Write+0x24e>
 8001600:	68fb      	ldr	r3, [r7, #12]
 8001602:	2240      	movs	r2, #64	; 0x40
 8001604:	2101      	movs	r1, #1
 8001606:	5499      	strb	r1, [r3, r2]

    /* Init tickstart for timeout management*/
    tickstart = HAL_GetTick();
 8001608:	f7ff fcaa 	bl	8000f60 <HAL_GetTick>
 800160c:	0003      	movs	r3, r0
 800160e:	617b      	str	r3, [r7, #20]

    if (I2C_WaitOnFlagUntilTimeout(hi2c, I2C_FLAG_BUSY, SET, I2C_TIMEOUT_BUSY, tickstart) != HAL_OK)
 8001610:	2380      	movs	r3, #128	; 0x80
 8001612:	0219      	lsls	r1, r3, #8
 8001614:	68f8      	ldr	r0, [r7, #12]
 8001616:	697b      	ldr	r3, [r7, #20]
 8001618:	9300      	str	r3, [sp, #0]
 800161a:	2319      	movs	r3, #25
 800161c:	2201      	movs	r2, #1
 800161e:	f000 fb0b 	bl	8001c38 <I2C_WaitOnFlagUntilTimeout>
 8001622:	1e03      	subs	r3, r0, #0
 8001624:	d001      	beq.n	800162a <HAL_I2C_Mem_Write+0x86>
    {
      return HAL_ERROR;
 8001626:	2301      	movs	r3, #1
 8001628:	e0e3      	b.n	80017f2 <HAL_I2C_Mem_Write+0x24e>
    }

    hi2c->State     = HAL_I2C_STATE_BUSY_TX;
 800162a:	68fb      	ldr	r3, [r7, #12]
 800162c:	2241      	movs	r2, #65	; 0x41
 800162e:	2121      	movs	r1, #33	; 0x21
 8001630:	5499      	strb	r1, [r3, r2]
    hi2c->Mode      = HAL_I2C_MODE_MEM;
 8001632:	68fb      	ldr	r3, [r7, #12]
 8001634:	2242      	movs	r2, #66	; 0x42
 8001636:	2140      	movs	r1, #64	; 0x40
 8001638:	5499      	strb	r1, [r3, r2]
    hi2c->ErrorCode = HAL_I2C_ERROR_NONE;
 800163a:	68fb      	ldr	r3, [r7, #12]
 800163c:	2200      	movs	r2, #0
 800163e:	645a      	str	r2, [r3, #68]	; 0x44

    /* Prepare transfer parameters */
    hi2c->pBuffPtr  = pData;
 8001640:	68fb      	ldr	r3, [r7, #12]
 8001642:	6aba      	ldr	r2, [r7, #40]	; 0x28
 8001644:	625a      	str	r2, [r3, #36]	; 0x24
    hi2c->XferCount = Size;
 8001646:	68fb      	ldr	r3, [r7, #12]
 8001648:	222c      	movs	r2, #44	; 0x2c
 800164a:	18ba      	adds	r2, r7, r2
 800164c:	8812      	ldrh	r2, [r2, #0]
 800164e:	855a      	strh	r2, [r3, #42]	; 0x2a
    hi2c->XferISR   = NULL;
 8001650:	68fb      	ldr	r3, [r7, #12]
 8001652:	2200      	movs	r2, #0
 8001654:	635a      	str	r2, [r3, #52]	; 0x34

    /* Send Slave Address and Memory Address */
    if (I2C_RequestMemoryWrite(hi2c, DevAddress, MemAddress, MemAddSize, Timeout, tickstart) != HAL_OK)
 8001656:	1dbb      	adds	r3, r7, #6
 8001658:	881c      	ldrh	r4, [r3, #0]
 800165a:	2308      	movs	r3, #8
 800165c:	18fb      	adds	r3, r7, r3
 800165e:	881a      	ldrh	r2, [r3, #0]
 8001660:	230a      	movs	r3, #10
 8001662:	18fb      	adds	r3, r7, r3
 8001664:	8819      	ldrh	r1, [r3, #0]
 8001666:	68f8      	ldr	r0, [r7, #12]
 8001668:	697b      	ldr	r3, [r7, #20]
 800166a:	9301      	str	r3, [sp, #4]
 800166c:	6b3b      	ldr	r3, [r7, #48]	; 0x30
 800166e:	9300      	str	r3, [sp, #0]
 8001670:	0023      	movs	r3, r4
 8001672:	f000 f9f9 	bl	8001a68 <I2C_RequestMemoryWrite>
 8001676:	1e03      	subs	r3, r0, #0
 8001678:	d005      	beq.n	8001686 <HAL_I2C_Mem_Write+0xe2>
    {
      /* Process Unlocked */
      __HAL_UNLOCK(hi2c);
 800167a:	68fb      	ldr	r3, [r7, #12]
 800167c:	2240      	movs	r2, #64	; 0x40
 800167e:	2100      	movs	r1, #0
 8001680:	5499      	strb	r1, [r3, r2]
      return HAL_ERROR;
 8001682:	2301      	movs	r3, #1
 8001684:	e0b5      	b.n	80017f2 <HAL_I2C_Mem_Write+0x24e>
    }

    /* Set NBYTES to write and reload if hi2c->XferCount > MAX_NBYTE_SIZE */
    if (hi2c->XferCount > MAX_NBYTE_SIZE)
 8001686:	68fb      	ldr	r3, [r7, #12]
 8001688:	8d5b      	ldrh	r3, [r3, #42]	; 0x2a
 800168a:	b29b      	uxth	r3, r3
 800168c:	2bff      	cmp	r3, #255	; 0xff
 800168e:	d911      	bls.n	80016b4 <HAL_I2C_Mem_Write+0x110>
    {
      hi2c->XferSize = MAX_NBYTE_SIZE;
 8001690:	68fb      	ldr	r3, [r7, #12]
 8001692:	22ff      	movs	r2, #255	; 0xff
 8001694:	851a      	strh	r2, [r3, #40]	; 0x28
      I2C_TransferConfig(hi2c, DevAddress, (uint8_t)hi2c->XferSize, I2C_RELOAD_MODE, I2C_NO_STARTSTOP);
 8001696:	68fb      	ldr	r3, [r7, #12]
 8001698:	8d1b      	ldrh	r3, [r3, #40]	; 0x28
 800169a:	b2da      	uxtb	r2, r3
 800169c:	2380      	movs	r3, #128	; 0x80
 800169e:	045c      	lsls	r4, r3, #17
 80016a0:	230a      	movs	r3, #10
 80016a2:	18fb      	adds	r3, r7, r3
 80016a4:	8819      	ldrh	r1, [r3, #0]
 80016a6:	68f8      	ldr	r0, [r7, #12]
 80016a8:	2300      	movs	r3, #0
 80016aa:	9300      	str	r3, [sp, #0]
 80016ac:	0023      	movs	r3, r4
 80016ae:	f000 fbf7 	bl	8001ea0 <I2C_TransferConfig>
 80016b2:	e012      	b.n	80016da <HAL_I2C_Mem_Write+0x136>
    }
    else
    {
      hi2c->XferSize = hi2c->XferCount;
 80016b4:	68fb      	ldr	r3, [r7, #12]
 80016b6:	8d5b      	ldrh	r3, [r3, #42]	; 0x2a
 80016b8:	b29a      	uxth	r2, r3
 80016ba:	68fb      	ldr	r3, [r7, #12]
 80016bc:	851a      	strh	r2, [r3, #40]	; 0x28
      I2C_TransferConfig(hi2c, DevAddress, (uint8_t)hi2c->XferSize, I2C_AUTOEND_MODE, I2C_NO_STARTSTOP);
 80016be:	68fb      	ldr	r3, [r7, #12]
 80016c0:	8d1b      	ldrh	r3, [r3, #40]	; 0x28
 80016c2:	b2da      	uxtb	r2, r3
 80016c4:	2380      	movs	r3, #128	; 0x80
 80016c6:	049c      	lsls	r4, r3, #18
 80016c8:	230a      	movs	r3, #10
 80016ca:	18fb      	adds	r3, r7, r3
 80016cc:	8819      	ldrh	r1, [r3, #0]
 80016ce:	68f8      	ldr	r0, [r7, #12]
 80016d0:	2300      	movs	r3, #0
 80016d2:	9300      	str	r3, [sp, #0]
 80016d4:	0023      	movs	r3, r4
 80016d6:	f000 fbe3 	bl	8001ea0 <I2C_TransferConfig>
    }

    do
    {
      /* Wait until TXIS flag is set */
      if (I2C_WaitOnTXISFlagUntilTimeout(hi2c, Timeout, tickstart) != HAL_OK)
 80016da:	697a      	ldr	r2, [r7, #20]
 80016dc:	6b39      	ldr	r1, [r7, #48]	; 0x30
 80016de:	68fb      	ldr	r3, [r7, #12]
 80016e0:	0018      	movs	r0, r3
 80016e2:	f000 fae8 	bl	8001cb6 <I2C_WaitOnTXISFlagUntilTimeout>
 80016e6:	1e03      	subs	r3, r0, #0
 80016e8:	d001      	beq.n	80016ee <HAL_I2C_Mem_Write+0x14a>
      {
        return HAL_ERROR;
 80016ea:	2301      	movs	r3, #1
 80016ec:	e081      	b.n	80017f2 <HAL_I2C_Mem_Write+0x24e>
      }

      /* Write data to TXDR */
      hi2c->Instance->TXDR = *hi2c->pBuffPtr;
 80016ee:	68fb      	ldr	r3, [r7, #12]
 80016f0:	6a5b      	ldr	r3, [r3, #36]	; 0x24
 80016f2:	781a      	ldrb	r2, [r3, #0]
 80016f4:	68fb      	ldr	r3, [r7, #12]
 80016f6:	681b      	ldr	r3, [r3, #0]
 80016f8:	629a      	str	r2, [r3, #40]	; 0x28

      /* Increment Buffer pointer */
      hi2c->pBuffPtr++;
 80016fa:	68fb      	ldr	r3, [r7, #12]
 80016fc:	6a5b      	ldr	r3, [r3, #36]	; 0x24
 80016fe:	1c5a      	adds	r2, r3, #1
 8001700:	68fb      	ldr	r3, [r7, #12]
 8001702:	625a      	str	r2, [r3, #36]	; 0x24

      hi2c->XferCount--;
 8001704:	68fb      	ldr	r3, [r7, #12]
 8001706:	8d5b      	ldrh	r3, [r3, #42]	; 0x2a
 8001708:	b29b      	uxth	r3, r3
 800170a:	3b01      	subs	r3, #1
 800170c:	b29a      	uxth	r2, r3
 800170e:	68fb      	ldr	r3, [r7, #12]
 8001710:	855a      	strh	r2, [r3, #42]	; 0x2a
      hi2c->XferSize--;
 8001712:	68fb      	ldr	r3, [r7, #12]
 8001714:	8d1b      	ldrh	r3, [r3, #40]	; 0x28
 8001716:	3b01      	subs	r3, #1
 8001718:	b29a      	uxth	r2, r3
 800171a:	68fb      	ldr	r3, [r7, #12]
 800171c:	851a      	strh	r2, [r3, #40]	; 0x28

      if ((hi2c->XferCount != 0U) && (hi2c->XferSize == 0U))
 800171e:	68fb      	ldr	r3, [r7, #12]
 8001720:	8d5b      	ldrh	r3, [r3, #42]	; 0x2a
 8001722:	b29b      	uxth	r3, r3
 8001724:	2b00      	cmp	r3, #0
 8001726:	d03a      	beq.n	800179e <HAL_I2C_Mem_Write+0x1fa>
 8001728:	68fb      	ldr	r3, [r7, #12]
 800172a:	8d1b      	ldrh	r3, [r3, #40]	; 0x28
 800172c:	2b00      	cmp	r3, #0
 800172e:	d136      	bne.n	800179e <HAL_I2C_Mem_Write+0x1fa>
      {
        /* Wait until TCR flag is set */
        if (I2C_WaitOnFlagUntilTimeout(hi2c, I2C_FLAG_TCR, RESET, Timeout, tickstart) != HAL_OK)
 8001730:	6b3a      	ldr	r2, [r7, #48]	; 0x30
 8001732:	68f8      	ldr	r0, [r7, #12]
 8001734:	697b      	ldr	r3, [r7, #20]
 8001736:	9300      	str	r3, [sp, #0]
 8001738:	0013      	movs	r3, r2
 800173a:	2200      	movs	r2, #0
 800173c:	2180      	movs	r1, #128	; 0x80
 800173e:	f000 fa7b 	bl	8001c38 <I2C_WaitOnFlagUntilTimeout>
 8001742:	1e03      	subs	r3, r0, #0
 8001744:	d001      	beq.n	800174a <HAL_I2C_Mem_Write+0x1a6>
        {
          return HAL_ERROR;
 8001746:	2301      	movs	r3, #1
 8001748:	e053      	b.n	80017f2 <HAL_I2C_Mem_Write+0x24e>
        }

        if (hi2c->XferCount > MAX_NBYTE_SIZE)
 800174a:	68fb      	ldr	r3, [r7, #12]
 800174c:	8d5b      	ldrh	r3, [r3, #42]	; 0x2a
 800174e:	b29b      	uxth	r3, r3
 8001750:	2bff      	cmp	r3, #255	; 0xff
 8001752:	d911      	bls.n	8001778 <HAL_I2C_Mem_Write+0x1d4>
        {
          hi2c->XferSize = MAX_NBYTE_SIZE;
 8001754:	68fb      	ldr	r3, [r7, #12]
 8001756:	22ff      	movs	r2, #255	; 0xff
 8001758:	851a      	strh	r2, [r3, #40]	; 0x28
          I2C_TransferConfig(hi2c, DevAddress, (uint8_t)hi2c->XferSize, I2C_RELOAD_MODE,
 800175a:	68fb      	ldr	r3, [r7, #12]
 800175c:	8d1b      	ldrh	r3, [r3, #40]	; 0x28
 800175e:	b2da      	uxtb	r2, r3
 8001760:	2380      	movs	r3, #128	; 0x80
 8001762:	045c      	lsls	r4, r3, #17
 8001764:	230a      	movs	r3, #10
 8001766:	18fb      	adds	r3, r7, r3
 8001768:	8819      	ldrh	r1, [r3, #0]
 800176a:	68f8      	ldr	r0, [r7, #12]
 800176c:	2300      	movs	r3, #0
 800176e:	9300      	str	r3, [sp, #0]
 8001770:	0023      	movs	r3, r4
 8001772:	f000 fb95 	bl	8001ea0 <I2C_TransferConfig>
 8001776:	e012      	b.n	800179e <HAL_I2C_Mem_Write+0x1fa>
                             I2C_NO_STARTSTOP);
        }
        else
        {
          hi2c->XferSize = hi2c->XferCount;
 8001778:	68fb      	ldr	r3, [r7, #12]
 800177a:	8d5b      	ldrh	r3, [r3, #42]	; 0x2a
 800177c:	b29a      	uxth	r2, r3
 800177e:	68fb      	ldr	r3, [r7, #12]
 8001780:	851a      	strh	r2, [r3, #40]	; 0x28
          I2C_TransferConfig(hi2c, DevAddress, (uint8_t)hi2c->XferSize, I2C_AUTOEND_MODE,
 8001782:	68fb      	ldr	r3, [r7, #12]
 8001784:	8d1b      	ldrh	r3, [r3, #40]	; 0x28
 8001786:	b2da      	uxtb	r2, r3
 8001788:	2380      	movs	r3, #128	; 0x80
 800178a:	049c      	lsls	r4, r3, #18
 800178c:	230a      	movs	r3, #10
 800178e:	18fb      	adds	r3, r7, r3
 8001790:	8819      	ldrh	r1, [r3, #0]
 8001792:	68f8      	ldr	r0, [r7, #12]
 8001794:	2300      	movs	r3, #0
 8001796:	9300      	str	r3, [sp, #0]
 8001798:	0023      	movs	r3, r4
 800179a:	f000 fb81 	bl	8001ea0 <I2C_TransferConfig>
                             I2C_NO_STARTSTOP);
        }
      }

    } while (hi2c->XferCount > 0U);
 800179e:	68fb      	ldr	r3, [r7, #12]
 80017a0:	8d5b      	ldrh	r3, [r3, #42]	; 0x2a
 80017a2:	b29b      	uxth	r3, r3
 80017a4:	2b00      	cmp	r3, #0
 80017a6:	d198      	bne.n	80016da <HAL_I2C_Mem_Write+0x136>

    /* No need to Check TC flag, with AUTOEND mode the stop is automatically generated */
    /* Wait until STOPF flag is reset */
    if (I2C_WaitOnSTOPFlagUntilTimeout(hi2c, Timeout, tickstart) != HAL_OK)
 80017a8:	697a      	ldr	r2, [r7, #20]
 80017aa:	6b39      	ldr	r1, [r7, #48]	; 0x30
 80017ac:	68fb      	ldr	r3, [r7, #12]
 80017ae:	0018      	movs	r0, r3
 80017b0:	f000 fac0 	bl	8001d34 <I2C_WaitOnSTOPFlagUntilTimeout>
 80017b4:	1e03      	subs	r3, r0, #0
 80017b6:	d001      	beq.n	80017bc <HAL_I2C_Mem_Write+0x218>
    {
      return HAL_ERROR;
 80017b8:	2301      	movs	r3, #1
 80017ba:	e01a      	b.n	80017f2 <HAL_I2C_Mem_Write+0x24e>
    }

    /* Clear STOP Flag */
    __HAL_I2C_CLEAR_FLAG(hi2c, I2C_FLAG_STOPF);
 80017bc:	68fb      	ldr	r3, [r7, #12]
 80017be:	681b      	ldr	r3, [r3, #0]
 80017c0:	2220      	movs	r2, #32
 80017c2:	61da      	str	r2, [r3, #28]

    /* Clear Configuration Register 2 */
    I2C_RESET_CR2(hi2c);
 80017c4:	68fb      	ldr	r3, [r7, #12]
 80017c6:	681b      	ldr	r3, [r3, #0]
 80017c8:	685a      	ldr	r2, [r3, #4]
 80017ca:	68fb      	ldr	r3, [r7, #12]
 80017cc:	681b      	ldr	r3, [r3, #0]
 80017ce:	490b      	ldr	r1, [pc, #44]	; (80017fc <HAL_I2C_Mem_Write+0x258>)
 80017d0:	400a      	ands	r2, r1
 80017d2:	605a      	str	r2, [r3, #4]

    hi2c->State = HAL_I2C_STATE_READY;
 80017d4:	68fb      	ldr	r3, [r7, #12]
 80017d6:	2241      	movs	r2, #65	; 0x41
 80017d8:	2120      	movs	r1, #32
 80017da:	5499      	strb	r1, [r3, r2]
    hi2c->Mode  = HAL_I2C_MODE_NONE;
 80017dc:	68fb      	ldr	r3, [r7, #12]
 80017de:	2242      	movs	r2, #66	; 0x42
 80017e0:	2100      	movs	r1, #0
 80017e2:	5499      	strb	r1, [r3, r2]

    /* Process Unlocked */
    __HAL_UNLOCK(hi2c);
 80017e4:	68fb      	ldr	r3, [r7, #12]
 80017e6:	2240      	movs	r2, #64	; 0x40
 80017e8:	2100      	movs	r1, #0
 80017ea:	5499      	strb	r1, [r3, r2]

    return HAL_OK;
 80017ec:	2300      	movs	r3, #0
 80017ee:	e000      	b.n	80017f2 <HAL_I2C_Mem_Write+0x24e>
  }
  else
  {
    return HAL_BUSY;
 80017f0:	2302      	movs	r3, #2
  }
}
 80017f2:	0018      	movs	r0, r3
 80017f4:	46bd      	mov	sp, r7
 80017f6:	b007      	add	sp, #28
 80017f8:	bd90      	pop	{r4, r7, pc}
 80017fa:	46c0      	nop			; (mov r8, r8)
 80017fc:	fe00e800 	.word	0xfe00e800

08001800 <HAL_I2C_Mem_Read>:
  * @param  Timeout Timeout duration
  * @retval HAL status
  */
HAL_StatusTypeDef HAL_I2C_Mem_Read(I2C_HandleTypeDef *hi2c, uint16_t DevAddress, uint16_t MemAddress,
                                   uint16_t MemAddSize, uint8_t *pData, uint16_t Size, uint32_t Timeout)
{
 8001800:	b590      	push	{r4, r7, lr}
 8001802:	b089      	sub	sp, #36	; 0x24
 8001804:	af02      	add	r7, sp, #8
 8001806:	60f8      	str	r0, [r7, #12]
 8001808:	000c      	movs	r4, r1
 800180a:	0010      	movs	r0, r2
 800180c:	0019      	movs	r1, r3
 800180e:	230a      	movs	r3, #10
 8001810:	18fb      	adds	r3, r7, r3
 8001812:	1c22      	adds	r2, r4, #0
 8001814:	801a      	strh	r2, [r3, #0]
 8001816:	2308      	movs	r3, #8
 8001818:	18fb      	adds	r3, r7, r3
 800181a:	1c02      	adds	r2, r0, #0
 800181c:	801a      	strh	r2, [r3, #0]
 800181e:	1dbb      	adds	r3, r7, #6
 8001820:	1c0a      	adds	r2, r1, #0
 8001822:	801a      	strh	r2, [r3, #0]
  uint32_t tickstart;

  /* Check the parameters */
  assert_param(IS_I2C_MEMADD_SIZE(MemAddSize));

  if (hi2c->State == HAL_I2C_STATE_READY)
 8001824:	68fb      	ldr	r3, [r7, #12]
 8001826:	2241      	movs	r2, #65	; 0x41
 8001828:	5c9b      	ldrb	r3, [r3, r2]
 800182a:	b2db      	uxtb	r3, r3
 800182c:	2b20      	cmp	r3, #32
 800182e:	d000      	beq.n	8001832 <HAL_I2C_Mem_Read+0x32>
 8001830:	e110      	b.n	8001a54 <HAL_I2C_Mem_Read+0x254>
  {
    if ((pData == NULL) || (Size == 0U))
 8001832:	6abb      	ldr	r3, [r7, #40]	; 0x28
 8001834:	2b00      	cmp	r3, #0
 8001836:	d004      	beq.n	8001842 <HAL_I2C_Mem_Read+0x42>
 8001838:	232c      	movs	r3, #44	; 0x2c
 800183a:	18fb      	adds	r3, r7, r3
 800183c:	881b      	ldrh	r3, [r3, #0]
 800183e:	2b00      	cmp	r3, #0
 8001840:	d105      	bne.n	800184e <HAL_I2C_Mem_Read+0x4e>
    {
      hi2c->ErrorCode = HAL_I2C_ERROR_INVALID_PARAM;
 8001842:	68fb      	ldr	r3, [r7, #12]
 8001844:	2280      	movs	r2, #128	; 0x80
 8001846:	0092      	lsls	r2, r2, #2
 8001848:	645a      	str	r2, [r3, #68]	; 0x44
      return  HAL_ERROR;
 800184a:	2301      	movs	r3, #1
 800184c:	e103      	b.n	8001a56 <HAL_I2C_Mem_Read+0x256>
    }

    /* Process Locked */
    __HAL_LOCK(hi2c);
 800184e:	68fb      	ldr	r3, [r7, #12]
 8001850:	2240      	movs	r2, #64	; 0x40
 8001852:	5c9b      	ldrb	r3, [r3, r2]
 8001854:	2b01      	cmp	r3, #1
 8001856:	d101      	bne.n	800185c <HAL_I2C_Mem_Read+0x5c>
 8001858:	2302      	movs	r3, #2
 800185a:	e0fc      	b.n	8001a56 <HAL_I2C_Mem_Read+0x256>
 800185c:	68fb      	ldr	r3, [r7, #12]
 800185e:	2240      	movs	r2, #64	; 0x40
 8001860:	2101      	movs	r1, #1
 8001862:	5499      	strb	r1, [r3, r2]

    /* Init tickstart for timeout management*/
    tickstart = HAL_GetTick();
 8001864:	f7ff fb7c 	bl	8000f60 <HAL_GetTick>
 8001868:	0003      	movs	r3, r0
 800186a:	617b      	str	r3, [r7, #20]

    if (I2C_WaitOnFlagUntilTimeout(hi2c, I2C_FLAG_BUSY, SET, I2C_TIMEOUT_BUSY, tickstart) != HAL_OK)
 800186c:	2380      	movs	r3, #128	; 0x80
 800186e:	0219      	lsls	r1, r3, #8
 8001870:	68f8      	ldr	r0, [r7, #12]
 8001872:	697b      	ldr	r3, [r7, #20]
 8001874:	9300      	str	r3, [sp, #0]
 8001876:	2319      	movs	r3, #25
 8001878:	2201      	movs	r2, #1
 800187a:	f000 f9dd 	bl	8001c38 <I2C_WaitOnFlagUntilTimeout>
 800187e:	1e03      	subs	r3, r0, #0
 8001880:	d001      	beq.n	8001886 <HAL_I2C_Mem_Read+0x86>
    {
      return HAL_ERROR;
 8001882:	2301      	movs	r3, #1
 8001884:	e0e7      	b.n	8001a56 <HAL_I2C_Mem_Read+0x256>
    }

    hi2c->State     = HAL_I2C_STATE_BUSY_RX;
 8001886:	68fb      	ldr	r3, [r7, #12]
 8001888:	2241      	movs	r2, #65	; 0x41
 800188a:	2122      	movs	r1, #34	; 0x22
 800188c:	5499      	strb	r1, [r3, r2]
    hi2c->Mode      = HAL_I2C_MODE_MEM;
 800188e:	68fb      	ldr	r3, [r7, #12]
 8001890:	2242      	movs	r2, #66	; 0x42
 8001892:	2140      	movs	r1, #64	; 0x40
 8001894:	5499      	strb	r1, [r3, r2]
    hi2c->ErrorCode = HAL_I2C_ERROR_NONE;
 8001896:	68fb      	ldr	r3, [r7, #12]
 8001898:	2200      	movs	r2, #0
 800189a:	645a      	str	r2, [r3, #68]	; 0x44

    /* Prepare transfer parameters */
    hi2c->pBuffPtr  = pData;
 800189c:	68fb      	ldr	r3, [r7, #12]
 800189e:	6aba      	ldr	r2, [r7, #40]	; 0x28
 80018a0:	625a      	str	r2, [r3, #36]	; 0x24
    hi2c->XferCount = Size;
 80018a2:	68fb      	ldr	r3, [r7, #12]
 80018a4:	222c      	movs	r2, #44	; 0x2c
 80018a6:	18ba      	adds	r2, r7, r2
 80018a8:	8812      	ldrh	r2, [r2, #0]
 80018aa:	855a      	strh	r2, [r3, #42]	; 0x2a
    hi2c->XferISR   = NULL;
 80018ac:	68fb      	ldr	r3, [r7, #12]
 80018ae:	2200      	movs	r2, #0
 80018b0:	635a      	str	r2, [r3, #52]	; 0x34

    /* Send Slave Address and Memory Address */
    if (I2C_RequestMemoryRead(hi2c, DevAddress, MemAddress, MemAddSize, Timeout, tickstart) != HAL_OK)
 80018b2:	1dbb      	adds	r3, r7, #6
 80018b4:	881c      	ldrh	r4, [r3, #0]
 80018b6:	2308      	movs	r3, #8
 80018b8:	18fb      	adds	r3, r7, r3
 80018ba:	881a      	ldrh	r2, [r3, #0]
 80018bc:	230a      	movs	r3, #10
 80018be:	18fb      	adds	r3, r7, r3
 80018c0:	8819      	ldrh	r1, [r3, #0]
 80018c2:	68f8      	ldr	r0, [r7, #12]
 80018c4:	697b      	ldr	r3, [r7, #20]
 80018c6:	9301      	str	r3, [sp, #4]
 80018c8:	6b3b      	ldr	r3, [r7, #48]	; 0x30
 80018ca:	9300      	str	r3, [sp, #0]
 80018cc:	0023      	movs	r3, r4
 80018ce:	f000 f92f 	bl	8001b30 <I2C_RequestMemoryRead>
 80018d2:	1e03      	subs	r3, r0, #0
 80018d4:	d005      	beq.n	80018e2 <HAL_I2C_Mem_Read+0xe2>
    {
      /* Process Unlocked */
      __HAL_UNLOCK(hi2c);
 80018d6:	68fb      	ldr	r3, [r7, #12]
 80018d8:	2240      	movs	r2, #64	; 0x40
 80018da:	2100      	movs	r1, #0
 80018dc:	5499      	strb	r1, [r3, r2]
      return HAL_ERROR;
 80018de:	2301      	movs	r3, #1
 80018e0:	e0b9      	b.n	8001a56 <HAL_I2C_Mem_Read+0x256>
    }

    /* Send Slave Address */
    /* Set NBYTES to write and reload if hi2c->XferCount > MAX_NBYTE_SIZE and generate RESTART */
    if (hi2c->XferCount > MAX_NBYTE_SIZE)
 80018e2:	68fb      	ldr	r3, [r7, #12]
 80018e4:	8d5b      	ldrh	r3, [r3, #42]	; 0x2a
 80018e6:	b29b      	uxth	r3, r3
 80018e8:	2bff      	cmp	r3, #255	; 0xff
 80018ea:	d911      	bls.n	8001910 <HAL_I2C_Mem_Read+0x110>
    {
      hi2c->XferSize = MAX_NBYTE_SIZE;
 80018ec:	68fb      	ldr	r3, [r7, #12]
 80018ee:	22ff      	movs	r2, #255	; 0xff
 80018f0:	851a      	strh	r2, [r3, #40]	; 0x28
      I2C_TransferConfig(hi2c, DevAddress, (uint8_t)hi2c->XferSize, I2C_RELOAD_MODE,
 80018f2:	68fb      	ldr	r3, [r7, #12]
 80018f4:	8d1b      	ldrh	r3, [r3, #40]	; 0x28
 80018f6:	b2da      	uxtb	r2, r3
 80018f8:	2380      	movs	r3, #128	; 0x80
 80018fa:	045c      	lsls	r4, r3, #17
 80018fc:	230a      	movs	r3, #10
 80018fe:	18fb      	adds	r3, r7, r3
 8001900:	8819      	ldrh	r1, [r3, #0]
 8001902:	68f8      	ldr	r0, [r7, #12]
 8001904:	4b56      	ldr	r3, [pc, #344]	; (8001a60 <HAL_I2C_Mem_Read+0x260>)
 8001906:	9300      	str	r3, [sp, #0]
 8001908:	0023      	movs	r3, r4
 800190a:	f000 fac9 	bl	8001ea0 <I2C_TransferConfig>
 800190e:	e012      	b.n	8001936 <HAL_I2C_Mem_Read+0x136>
                         I2C_GENERATE_START_READ);
    }
    else
    {
      hi2c->XferSize = hi2c->XferCount;
 8001910:	68fb      	ldr	r3, [r7, #12]
 8001912:	8d5b      	ldrh	r3, [r3, #42]	; 0x2a
 8001914:	b29a      	uxth	r2, r3
 8001916:	68fb      	ldr	r3, [r7, #12]
 8001918:	851a      	strh	r2, [r3, #40]	; 0x28
      I2C_TransferConfig(hi2c, DevAddress, (uint8_t)hi2c->XferSize, I2C_AUTOEND_MODE,
 800191a:	68fb      	ldr	r3, [r7, #12]
 800191c:	8d1b      	ldrh	r3, [r3, #40]	; 0x28
 800191e:	b2da      	uxtb	r2, r3
 8001920:	2380      	movs	r3, #128	; 0x80
 8001922:	049c      	lsls	r4, r3, #18
 8001924:	230a      	movs	r3, #10
 8001926:	18fb      	adds	r3, r7, r3
 8001928:	8819      	ldrh	r1, [r3, #0]
 800192a:	68f8      	ldr	r0, [r7, #12]
 800192c:	4b4c      	ldr	r3, [pc, #304]	; (8001a60 <HAL_I2C_Mem_Read+0x260>)
 800192e:	9300      	str	r3, [sp, #0]
 8001930:	0023      	movs	r3, r4
 8001932:	f000 fab5 	bl	8001ea0 <I2C_TransferConfig>
    }

    do
    {
      /* Wait until RXNE flag is set */
      if (I2C_WaitOnFlagUntilTimeout(hi2c, I2C_FLAG_RXNE, RESET, Timeout, tickstart) != HAL_OK)
 8001936:	6b3a      	ldr	r2, [r7, #48]	; 0x30
 8001938:	68f8      	ldr	r0, [r7, #12]
 800193a:	697b      	ldr	r3, [r7, #20]
 800193c:	9300      	str	r3, [sp, #0]
 800193e:	0013      	movs	r3, r2
 8001940:	2200      	movs	r2, #0
 8001942:	2104      	movs	r1, #4
 8001944:	f000 f978 	bl	8001c38 <I2C_WaitOnFlagUntilTimeout>
 8001948:	1e03      	subs	r3, r0, #0
 800194a:	d001      	beq.n	8001950 <HAL_I2C_Mem_Read+0x150>
      {
        return HAL_ERROR;
 800194c:	2301      	movs	r3, #1
 800194e:	e082      	b.n	8001a56 <HAL_I2C_Mem_Read+0x256>
      }

      /* Read data from RXDR */
      *hi2c->pBuffPtr = (uint8_t)hi2c->Instance->RXDR;
 8001950:	68fb      	ldr	r3, [r7, #12]
 8001952:	681b      	ldr	r3, [r3, #0]
 8001954:	6a5a      	ldr	r2, [r3, #36]	; 0x24
 8001956:	68fb      	ldr	r3, [r7, #12]
 8001958:	6a5b      	ldr	r3, [r3, #36]	; 0x24
 800195a:	b2d2      	uxtb	r2, r2
 800195c:	701a      	strb	r2, [r3, #0]

      /* Increment Buffer pointer */
      hi2c->pBuffPtr++;
 800195e:	68fb      	ldr	r3, [r7, #12]
 8001960:	6a5b      	ldr	r3, [r3, #36]	; 0x24
 8001962:	1c5a      	adds	r2, r3, #1
 8001964:	68fb      	ldr	r3, [r7, #12]
 8001966:	625a      	str	r2, [r3, #36]	; 0x24

      hi2c->XferSize--;
 8001968:	68fb      	ldr	r3, [r7, #12]
 800196a:	8d1b      	ldrh	r3, [r3, #40]	; 0x28
 800196c:	3b01      	subs	r3, #1
 800196e:	b29a      	uxth	r2, r3
 8001970:	68fb      	ldr	r3, [r7, #12]
 8001972:	851a      	strh	r2, [r3, #40]	; 0x28
      hi2c->XferCount--;
 8001974:	68fb      	ldr	r3, [r7, #12]
 8001976:	8d5b      	ldrh	r3, [r3, #42]	; 0x2a
 8001978:	b29b      	uxth	r3, r3
 800197a:	3b01      	subs	r3, #1
 800197c:	b29a      	uxth	r2, r3
 800197e:	68fb      	ldr	r3, [r7, #12]
 8001980:	855a      	strh	r2, [r3, #42]	; 0x2a

      if ((hi2c->XferCount != 0U) && (hi2c->XferSize == 0U))
 8001982:	68fb      	ldr	r3, [r7, #12]
 8001984:	8d5b      	ldrh	r3, [r3, #42]	; 0x2a
 8001986:	b29b      	uxth	r3, r3
 8001988:	2b00      	cmp	r3, #0
 800198a:	d03a      	beq.n	8001a02 <HAL_I2C_Mem_Read+0x202>
 800198c:	68fb      	ldr	r3, [r7, #12]
 800198e:	8d1b      	ldrh	r3, [r3, #40]	; 0x28
 8001990:	2b00      	cmp	r3, #0
 8001992:	d136      	bne.n	8001a02 <HAL_I2C_Mem_Read+0x202>
      {
        /* Wait until TCR flag is set */
        if (I2C_WaitOnFlagUntilTimeout(hi2c, I2C_FLAG_TCR, RESET, Timeout, tickstart) != HAL_OK)
 8001994:	6b3a      	ldr	r2, [r7, #48]	; 0x30
 8001996:	68f8      	ldr	r0, [r7, #12]
 8001998:	697b      	ldr	r3, [r7, #20]
 800199a:	9300      	str	r3, [sp, #0]
 800199c:	0013      	movs	r3, r2
 800199e:	2200      	movs	r2, #0
 80019a0:	2180      	movs	r1, #128	; 0x80
 80019a2:	f000 f949 	bl	8001c38 <I2C_WaitOnFlagUntilTimeout>
 80019a6:	1e03      	subs	r3, r0, #0
 80019a8:	d001      	beq.n	80019ae <HAL_I2C_Mem_Read+0x1ae>
        {
          return HAL_ERROR;
 80019aa:	2301      	movs	r3, #1
 80019ac:	e053      	b.n	8001a56 <HAL_I2C_Mem_Read+0x256>
        }

        if (hi2c->XferCount > MAX_NBYTE_SIZE)
 80019ae:	68fb      	ldr	r3, [r7, #12]
 80019b0:	8d5b      	ldrh	r3, [r3, #42]	; 0x2a
 80019b2:	b29b      	uxth	r3, r3
 80019b4:	2bff      	cmp	r3, #255	; 0xff
 80019b6:	d911      	bls.n	80019dc <HAL_I2C_Mem_Read+0x1dc>
        {
          hi2c->XferSize = MAX_NBYTE_SIZE;
 80019b8:	68fb      	ldr	r3, [r7, #12]
 80019ba:	22ff      	movs	r2, #255	; 0xff
 80019bc:	851a      	strh	r2, [r3, #40]	; 0x28
          I2C_TransferConfig(hi2c, DevAddress, (uint8_t) hi2c->XferSize, I2C_RELOAD_MODE,
 80019be:	68fb      	ldr	r3, [r7, #12]
 80019c0:	8d1b      	ldrh	r3, [r3, #40]	; 0x28
 80019c2:	b2da      	uxtb	r2, r3
 80019c4:	2380      	movs	r3, #128	; 0x80
 80019c6:	045c      	lsls	r4, r3, #17
 80019c8:	230a      	movs	r3, #10
 80019ca:	18fb      	adds	r3, r7, r3
 80019cc:	8819      	ldrh	r1, [r3, #0]
 80019ce:	68f8      	ldr	r0, [r7, #12]
 80019d0:	2300      	movs	r3, #0
 80019d2:	9300      	str	r3, [sp, #0]
 80019d4:	0023      	movs	r3, r4
 80019d6:	f000 fa63 	bl	8001ea0 <I2C_TransferConfig>
 80019da:	e012      	b.n	8001a02 <HAL_I2C_Mem_Read+0x202>
                             I2C_NO_STARTSTOP);
        }
        else
        {
          hi2c->XferSize = hi2c->XferCount;
 80019dc:	68fb      	ldr	r3, [r7, #12]
 80019de:	8d5b      	ldrh	r3, [r3, #42]	; 0x2a
 80019e0:	b29a      	uxth	r2, r3
 80019e2:	68fb      	ldr	r3, [r7, #12]
 80019e4:	851a      	strh	r2, [r3, #40]	; 0x28
          I2C_TransferConfig(hi2c, DevAddress, (uint8_t)hi2c->XferSize, I2C_AUTOEND_MODE,
 80019e6:	68fb      	ldr	r3, [r7, #12]
 80019e8:	8d1b      	ldrh	r3, [r3, #40]	; 0x28
 80019ea:	b2da      	uxtb	r2, r3
 80019ec:	2380      	movs	r3, #128	; 0x80
 80019ee:	049c      	lsls	r4, r3, #18
 80019f0:	230a      	movs	r3, #10
 80019f2:	18fb      	adds	r3, r7, r3
 80019f4:	8819      	ldrh	r1, [r3, #0]
 80019f6:	68f8      	ldr	r0, [r7, #12]
 80019f8:	2300      	movs	r3, #0
 80019fa:	9300      	str	r3, [sp, #0]
 80019fc:	0023      	movs	r3, r4
 80019fe:	f000 fa4f 	bl	8001ea0 <I2C_TransferConfig>
                             I2C_NO_STARTSTOP);
        }
      }
    } while (hi2c->XferCount > 0U);
 8001a02:	68fb      	ldr	r3, [r7, #12]
 8001a04:	8d5b      	ldrh	r3, [r3, #42]	; 0x2a
 8001a06:	b29b      	uxth	r3, r3
 8001a08:	2b00      	cmp	r3, #0
 8001a0a:	d194      	bne.n	8001936 <HAL_I2C_Mem_Read+0x136>

    /* No need to Check TC flag, with AUTOEND mode the stop is automatically generated */
    /* Wait until STOPF flag is reset */
    if (I2C_WaitOnSTOPFlagUntilTimeout(hi2c, Timeout, tickstart) != HAL_OK)
 8001a0c:	697a      	ldr	r2, [r7, #20]
 8001a0e:	6b39      	ldr	r1, [r7, #48]	; 0x30
 8001a10:	68fb      	ldr	r3, [r7, #12]
 8001a12:	0018      	movs	r0, r3
 8001a14:	f000 f98e 	bl	8001d34 <I2C_WaitOnSTOPFlagUntilTimeout>
 8001a18:	1e03      	subs	r3, r0, #0
 8001a1a:	d001      	beq.n	8001a20 <HAL_I2C_Mem_Read+0x220>
    {
      return HAL_ERROR;
 8001a1c:	2301      	movs	r3, #1
 8001a1e:	e01a      	b.n	8001a56 <HAL_I2C_Mem_Read+0x256>
    }

    /* Clear STOP Flag */
    __HAL_I2C_CLEAR_FLAG(hi2c, I2C_FLAG_STOPF);
 8001a20:	68fb      	ldr	r3, [r7, #12]
 8001a22:	681b      	ldr	r3, [r3, #0]
 8001a24:	2220      	movs	r2, #32
 8001a26:	61da      	str	r2, [r3, #28]

    /* Clear Configuration Register 2 */
    I2C_RESET_CR2(hi2c);
 8001a28:	68fb      	ldr	r3, [r7, #12]
 8001a2a:	681b      	ldr	r3, [r3, #0]
 8001a2c:	685a      	ldr	r2, [r3, #4]
 8001a2e:	68fb      	ldr	r3, [r7, #12]
 8001a30:	681b      	ldr	r3, [r3, #0]
 8001a32:	490c      	ldr	r1, [pc, #48]	; (8001a64 <HAL_I2C_Mem_Read+0x264>)
 8001a34:	400a      	ands	r2, r1
 8001a36:	605a      	str	r2, [r3, #4]

    hi2c->State = HAL_I2C_STATE_READY;
 8001a38:	68fb      	ldr	r3, [r7, #12]
 8001a3a:	2241      	movs	r2, #65	; 0x41
 8001a3c:	2120      	movs	r1, #32
 8001a3e:	5499      	strb	r1, [r3, r2]
    hi2c->Mode  = HAL_I2C_MODE_NONE;
 8001a40:	68fb      	ldr	r3, [r7, #12]
 8001a42:	2242      	movs	r2, #66	; 0x42
 8001a44:	2100      	movs	r1, #0
 8001a46:	5499      	strb	r1, [r3, r2]

    /* Process Unlocked */
    __HAL_UNLOCK(hi2c);
 8001a48:	68fb      	ldr	r3, [r7, #12]
 8001a4a:	2240      	movs	r2, #64	; 0x40
 8001a4c:	2100      	movs	r1, #0
 8001a4e:	5499      	strb	r1, [r3, r2]

    return HAL_OK;
 8001a50:	2300      	movs	r3, #0
 8001a52:	e000      	b.n	8001a56 <HAL_I2C_Mem_Read+0x256>
  }
  else
  {
    return HAL_BUSY;
 8001a54:	2302      	movs	r3, #2
  }
}
 8001a56:	0018      	movs	r0, r3
 8001a58:	46bd      	mov	sp, r7
 8001a5a:	b007      	add	sp, #28
 8001a5c:	bd90      	pop	{r4, r7, pc}
 8001a5e:	46c0      	nop			; (mov r8, r8)
 8001a60:	80002400 	.word	0x80002400
 8001a64:	fe00e800 	.word	0xfe00e800

08001a68 <I2C_RequestMemoryWrite>:
  * @retval HAL status
  */
static HAL_StatusTypeDef I2C_RequestMemoryWrite(I2C_HandleTypeDef *hi2c, uint16_t DevAddress,
                                                uint16_t MemAddress, uint16_t MemAddSize, uint32_t Timeout,
                                                uint32_t Tickstart)
{
 8001a68:	b5b0      	push	{r4, r5, r7, lr}
 8001a6a:	b086      	sub	sp, #24
 8001a6c:	af02      	add	r7, sp, #8
 8001a6e:	60f8      	str	r0, [r7, #12]
 8001a70:	000c      	movs	r4, r1
 8001a72:	0010      	movs	r0, r2
 8001a74:	0019      	movs	r1, r3
 8001a76:	250a      	movs	r5, #10
 8001a78:	197b      	adds	r3, r7, r5
 8001a7a:	1c22      	adds	r2, r4, #0
 8001a7c:	801a      	strh	r2, [r3, #0]
 8001a7e:	2308      	movs	r3, #8
 8001a80:	18fb      	adds	r3, r7, r3
 8001a82:	1c02      	adds	r2, r0, #0
 8001a84:	801a      	strh	r2, [r3, #0]
 8001a86:	1dbb      	adds	r3, r7, #6
 8001a88:	1c0a      	adds	r2, r1, #0
 8001a8a:	801a      	strh	r2, [r3, #0]
  I2C_TransferConfig(hi2c, DevAddress, (uint8_t)MemAddSize, I2C_RELOAD_MODE, I2C_GENERATE_START_WRITE);
 8001a8c:	1dbb      	adds	r3, r7, #6
 8001a8e:	881b      	ldrh	r3, [r3, #0]
 8001a90:	b2da      	uxtb	r2, r3
 8001a92:	2380      	movs	r3, #128	; 0x80
 8001a94:	045c      	lsls	r4, r3, #17
 8001a96:	197b      	adds	r3, r7, r5
 8001a98:	8819      	ldrh	r1, [r3, #0]
 8001a9a:	68f8      	ldr	r0, [r7, #12]
 8001a9c:	4b23      	ldr	r3, [pc, #140]	; (8001b2c <I2C_RequestMemoryWrite+0xc4>)
 8001a9e:	9300      	str	r3, [sp, #0]
 8001aa0:	0023      	movs	r3, r4
 8001aa2:	f000 f9fd 	bl	8001ea0 <I2C_TransferConfig>

  /* Wait until TXIS flag is set */
  if (I2C_WaitOnTXISFlagUntilTimeout(hi2c, Timeout, Tickstart) != HAL_OK)
 8001aa6:	6a7a      	ldr	r2, [r7, #36]	; 0x24
 8001aa8:	6a39      	ldr	r1, [r7, #32]
 8001aaa:	68fb      	ldr	r3, [r7, #12]
 8001aac:	0018      	movs	r0, r3
 8001aae:	f000 f902 	bl	8001cb6 <I2C_WaitOnTXISFlagUntilTimeout>
 8001ab2:	1e03      	subs	r3, r0, #0
 8001ab4:	d001      	beq.n	8001aba <I2C_RequestMemoryWrite+0x52>
  {
    return HAL_ERROR;
 8001ab6:	2301      	movs	r3, #1
 8001ab8:	e033      	b.n	8001b22 <I2C_RequestMemoryWrite+0xba>
  }

  /* If Memory address size is 8Bit */
  if (MemAddSize == I2C_MEMADD_SIZE_8BIT)
 8001aba:	1dbb      	adds	r3, r7, #6
 8001abc:	881b      	ldrh	r3, [r3, #0]
 8001abe:	2b01      	cmp	r3, #1
 8001ac0:	d107      	bne.n	8001ad2 <I2C_RequestMemoryWrite+0x6a>
  {
    /* Send Memory Address */
    hi2c->Instance->TXDR = I2C_MEM_ADD_LSB(MemAddress);
 8001ac2:	2308      	movs	r3, #8
 8001ac4:	18fb      	adds	r3, r7, r3
 8001ac6:	881b      	ldrh	r3, [r3, #0]
 8001ac8:	b2da      	uxtb	r2, r3
 8001aca:	68fb      	ldr	r3, [r7, #12]
 8001acc:	681b      	ldr	r3, [r3, #0]
 8001ace:	629a      	str	r2, [r3, #40]	; 0x28
 8001ad0:	e019      	b.n	8001b06 <I2C_RequestMemoryWrite+0x9e>
  }
  /* If Memory address size is 16Bit */
  else
  {
    /* Send MSB of Memory Address */
    hi2c->Instance->TXDR = I2C_MEM_ADD_MSB(MemAddress);
 8001ad2:	2308      	movs	r3, #8
 8001ad4:	18fb      	adds	r3, r7, r3
 8001ad6:	881b      	ldrh	r3, [r3, #0]
 8001ad8:	0a1b      	lsrs	r3, r3, #8
 8001ada:	b29b      	uxth	r3, r3
 8001adc:	b2da      	uxtb	r2, r3
 8001ade:	68fb      	ldr	r3, [r7, #12]
 8001ae0:	681b      	ldr	r3, [r3, #0]
 8001ae2:	629a      	str	r2, [r3, #40]	; 0x28

    /* Wait until TXIS flag is set */
    if (I2C_WaitOnTXISFlagUntilTimeout(hi2c, Timeout, Tickstart) != HAL_OK)
 8001ae4:	6a7a      	ldr	r2, [r7, #36]	; 0x24
 8001ae6:	6a39      	ldr	r1, [r7, #32]
 8001ae8:	68fb      	ldr	r3, [r7, #12]
 8001aea:	0018      	movs	r0, r3
 8001aec:	f000 f8e3 	bl	8001cb6 <I2C_WaitOnTXISFlagUntilTimeout>
 8001af0:	1e03      	subs	r3, r0, #0
 8001af2:	d001      	beq.n	8001af8 <I2C_RequestMemoryWrite+0x90>
    {
      return HAL_ERROR;
 8001af4:	2301      	movs	r3, #1
 8001af6:	e014      	b.n	8001b22 <I2C_RequestMemoryWrite+0xba>
    }

    /* Send LSB of Memory Address */
    hi2c->Instance->TXDR = I2C_MEM_ADD_LSB(MemAddress);
 8001af8:	2308      	movs	r3, #8
 8001afa:	18fb      	adds	r3, r7, r3
 8001afc:	881b      	ldrh	r3, [r3, #0]
 8001afe:	b2da      	uxtb	r2, r3
 8001b00:	68fb      	ldr	r3, [r7, #12]
 8001b02:	681b      	ldr	r3, [r3, #0]
 8001b04:	629a      	str	r2, [r3, #40]	; 0x28
  }

  /* Wait until TCR flag is set */
  if (I2C_WaitOnFlagUntilTimeout(hi2c, I2C_FLAG_TCR, RESET, Timeout, Tickstart) != HAL_OK)
 8001b06:	6a3a      	ldr	r2, [r7, #32]
 8001b08:	68f8      	ldr	r0, [r7, #12]
 8001b0a:	6a7b      	ldr	r3, [r7, #36]	; 0x24
 8001b0c:	9300      	str	r3, [sp, #0]
 8001b0e:	0013      	movs	r3, r2
 8001b10:	2200      	movs	r2, #0
 8001b12:	2180      	movs	r1, #128	; 0x80
 8001b14:	f000 f890 	bl	8001c38 <I2C_WaitOnFlagUntilTimeout>
 8001b18:	1e03      	subs	r3, r0, #0
 8001b1a:	d001      	beq.n	8001b20 <I2C_RequestMemoryWrite+0xb8>
  {
    return HAL_ERROR;
 8001b1c:	2301      	movs	r3, #1
 8001b1e:	e000      	b.n	8001b22 <I2C_RequestMemoryWrite+0xba>
  }

  return HAL_OK;
 8001b20:	2300      	movs	r3, #0
}
 8001b22:	0018      	movs	r0, r3
 8001b24:	46bd      	mov	sp, r7
 8001b26:	b004      	add	sp, #16
 8001b28:	bdb0      	pop	{r4, r5, r7, pc}
 8001b2a:	46c0      	nop			; (mov r8, r8)
 8001b2c:	80002000 	.word	0x80002000

08001b30 <I2C_RequestMemoryRead>:
  * @retval HAL status
  */
static HAL_StatusTypeDef I2C_RequestMemoryRead(I2C_HandleTypeDef *hi2c, uint16_t DevAddress,
                                               uint16_t MemAddress, uint16_t MemAddSize, uint32_t Timeout,
                                               uint32_t Tickstart)
{
 8001b30:	b5b0      	push	{r4, r5, r7, lr}
 8001b32:	b086      	sub	sp, #24
 8001b34:	af02      	add	r7, sp, #8
 8001b36:	60f8      	str	r0, [r7, #12]
 8001b38:	000c      	movs	r4, r1
 8001b3a:	0010      	movs	r0, r2
 8001b3c:	0019      	movs	r1, r3
 8001b3e:	250a      	movs	r5, #10
 8001b40:	197b      	adds	r3, r7, r5
 8001b42:	1c22      	adds	r2, r4, #0
 8001b44:	801a      	strh	r2, [r3, #0]
 8001b46:	2308      	movs	r3, #8
 8001b48:	18fb      	adds	r3, r7, r3
 8001b4a:	1c02      	adds	r2, r0, #0
 8001b4c:	801a      	strh	r2, [r3, #0]
 8001b4e:	1dbb      	adds	r3, r7, #6
 8001b50:	1c0a      	adds	r2, r1, #0
 8001b52:	801a      	strh	r2, [r3, #0]
  I2C_TransferConfig(hi2c, DevAddress, (uint8_t)MemAddSize, I2C_SOFTEND_MODE, I2C_GENERATE_START_WRITE);
 8001b54:	1dbb      	adds	r3, r7, #6
 8001b56:	881b      	ldrh	r3, [r3, #0]
 8001b58:	b2da      	uxtb	r2, r3
 8001b5a:	197b      	adds	r3, r7, r5
 8001b5c:	8819      	ldrh	r1, [r3, #0]
 8001b5e:	68f8      	ldr	r0, [r7, #12]
 8001b60:	4b23      	ldr	r3, [pc, #140]	; (8001bf0 <I2C_RequestMemoryRead+0xc0>)
 8001b62:	9300      	str	r3, [sp, #0]
 8001b64:	2300      	movs	r3, #0
 8001b66:	f000 f99b 	bl	8001ea0 <I2C_TransferConfig>

  /* Wait until TXIS flag is set */
  if (I2C_WaitOnTXISFlagUntilTimeout(hi2c, Timeout, Tickstart) != HAL_OK)
 8001b6a:	6a7a      	ldr	r2, [r7, #36]	; 0x24
 8001b6c:	6a39      	ldr	r1, [r7, #32]
 8001b6e:	68fb      	ldr	r3, [r7, #12]
 8001b70:	0018      	movs	r0, r3
 8001b72:	f000 f8a0 	bl	8001cb6 <I2C_WaitOnTXISFlagUntilTimeout>
 8001b76:	1e03      	subs	r3, r0, #0
 8001b78:	d001      	beq.n	8001b7e <I2C_RequestMemoryRead+0x4e>
  {
    return HAL_ERROR;
 8001b7a:	2301      	movs	r3, #1
 8001b7c:	e033      	b.n	8001be6 <I2C_RequestMemoryRead+0xb6>
  }

  /* If Memory address size is 8Bit */
  if (MemAddSize == I2C_MEMADD_SIZE_8BIT)
 8001b7e:	1dbb      	adds	r3, r7, #6
 8001b80:	881b      	ldrh	r3, [r3, #0]
 8001b82:	2b01      	cmp	r3, #1
 8001b84:	d107      	bne.n	8001b96 <I2C_RequestMemoryRead+0x66>
  {
    /* Send Memory Address */
    hi2c->Instance->TXDR = I2C_MEM_ADD_LSB(MemAddress);
 8001b86:	2308      	movs	r3, #8
 8001b88:	18fb      	adds	r3, r7, r3
 8001b8a:	881b      	ldrh	r3, [r3, #0]
 8001b8c:	b2da      	uxtb	r2, r3
 8001b8e:	68fb      	ldr	r3, [r7, #12]
 8001b90:	681b      	ldr	r3, [r3, #0]
 8001b92:	629a      	str	r2, [r3, #40]	; 0x28
 8001b94:	e019      	b.n	8001bca <I2C_RequestMemoryRead+0x9a>
  }
  /* If Memory address size is 16Bit */
  else
  {
    /* Send MSB of Memory Address */
    hi2c->Instance->TXDR = I2C_MEM_ADD_MSB(MemAddress);
 8001b96:	2308      	movs	r3, #8
 8001b98:	18fb      	adds	r3, r7, r3
 8001b9a:	881b      	ldrh	r3, [r3, #0]
 8001b9c:	0a1b      	lsrs	r3, r3, #8
 8001b9e:	b29b      	uxth	r3, r3
 8001ba0:	b2da      	uxtb	r2, r3
 8001ba2:	68fb      	ldr	r3, [r7, #12]
 8001ba4:	681b      	ldr	r3, [r3, #0]
 8001ba6:	629a      	str	r2, [r3, #40]	; 0x28

    /* Wait until TXIS flag is set */
    if (I2C_WaitOnTXISFlagUntilTimeout(hi2c, Timeout, Tickstart) != HAL_OK)
 8001ba8:	6a7a      	ldr	r2, [r7, #36]	; 0x24
 8001baa:	6a39      	ldr	r1, [r7, #32]
 8001bac:	68fb      	ldr	r3, [r7, #12]
 8001bae:	0018      	movs	r0, r3
 8001bb0:	f000 f881 	bl	8001cb6 <I2C_WaitOnTXISFlagUntilTimeout>
 8001bb4:	1e03      	subs	r3, r0, #0
 8001bb6:	d001      	beq.n	8001bbc <I2C_RequestMemoryRead+0x8c>
    {
      return HAL_ERROR;
 8001bb8:	2301      	movs	r3, #1
 8001bba:	e014      	b.n	8001be6 <I2C_RequestMemoryRead+0xb6>
    }

    /* Send LSB of Memory Address */
    hi2c->Instance->TXDR = I2C_MEM_ADD_LSB(MemAddress);
 8001bbc:	2308      	movs	r3, #8
 8001bbe:	18fb      	adds	r3, r7, r3
 8001bc0:	881b      	ldrh	r3, [r3, #0]
 8001bc2:	b2da      	uxtb	r2, r3
 8001bc4:	68fb      	ldr	r3, [r7, #12]
 8001bc6:	681b      	ldr	r3, [r3, #0]
 8001bc8:	629a      	str	r2, [r3, #40]	; 0x28
  }

  /* Wait until TC flag is set */
  if (I2C_WaitOnFlagUntilTimeout(hi2c, I2C_FLAG_TC, RESET, Timeout, Tickstart) != HAL_OK)
 8001bca:	6a3a      	ldr	r2, [r7, #32]
 8001bcc:	68f8      	ldr	r0, [r7, #12]
 8001bce:	6a7b      	ldr	r3, [r7, #36]	; 0x24
 8001bd0:	9300      	str	r3, [sp, #0]
 8001bd2:	0013      	movs	r3, r2
 8001bd4:	2200      	movs	r2, #0
 8001bd6:	2140      	movs	r1, #64	; 0x40
 8001bd8:	f000 f82e 	bl	8001c38 <I2C_WaitOnFlagUntilTimeout>
 8001bdc:	1e03      	subs	r3, r0, #0
 8001bde:	d001      	beq.n	8001be4 <I2C_RequestMemoryRead+0xb4>
  {
    return HAL_ERROR;
 8001be0:	2301      	movs	r3, #1
 8001be2:	e000      	b.n	8001be6 <I2C_RequestMemoryRead+0xb6>
  }

  return HAL_OK;
 8001be4:	2300      	movs	r3, #0
}
 8001be6:	0018      	movs	r0, r3
 8001be8:	46bd      	mov	sp, r7
 8001bea:	b004      	add	sp, #16
 8001bec:	bdb0      	pop	{r4, r5, r7, pc}
 8001bee:	46c0      	nop			; (mov r8, r8)
 8001bf0:	80002000 	.word	0x80002000

08001bf4 <I2C_Flush_TXDR>:
  * @brief  I2C Tx data register flush process.
  * @param  hi2c I2C handle.
  * @retval None
  */
static void I2C_Flush_TXDR(I2C_HandleTypeDef *hi2c)
{
 8001bf4:	b580      	push	{r7, lr}
 8001bf6:	b082      	sub	sp, #8
 8001bf8:	af00      	add	r7, sp, #0
 8001bfa:	6078      	str	r0, [r7, #4]
  /* If a pending TXIS flag is set */
  /* Write a dummy data in TXDR to clear it */
  if (__HAL_I2C_GET_FLAG(hi2c, I2C_FLAG_TXIS) != RESET)
 8001bfc:	687b      	ldr	r3, [r7, #4]
 8001bfe:	681b      	ldr	r3, [r3, #0]
 8001c00:	699b      	ldr	r3, [r3, #24]
 8001c02:	2202      	movs	r2, #2
 8001c04:	4013      	ands	r3, r2
 8001c06:	2b02      	cmp	r3, #2
 8001c08:	d103      	bne.n	8001c12 <I2C_Flush_TXDR+0x1e>
  {
    hi2c->Instance->TXDR = 0x00U;
 8001c0a:	687b      	ldr	r3, [r7, #4]
 8001c0c:	681b      	ldr	r3, [r3, #0]
 8001c0e:	2200      	movs	r2, #0
 8001c10:	629a      	str	r2, [r3, #40]	; 0x28
  }

  /* Flush TX register if not empty */
  if (__HAL_I2C_GET_FLAG(hi2c, I2C_FLAG_TXE) == RESET)
 8001c12:	687b      	ldr	r3, [r7, #4]
 8001c14:	681b      	ldr	r3, [r3, #0]
 8001c16:	699b      	ldr	r3, [r3, #24]
 8001c18:	2201      	movs	r2, #1
 8001c1a:	4013      	ands	r3, r2
 8001c1c:	2b01      	cmp	r3, #1
 8001c1e:	d007      	beq.n	8001c30 <I2C_Flush_TXDR+0x3c>
  {
    __HAL_I2C_CLEAR_FLAG(hi2c, I2C_FLAG_TXE);
 8001c20:	687b      	ldr	r3, [r7, #4]
 8001c22:	681b      	ldr	r3, [r3, #0]
 8001c24:	699a      	ldr	r2, [r3, #24]
 8001c26:	687b      	ldr	r3, [r7, #4]
 8001c28:	681b      	ldr	r3, [r3, #0]
 8001c2a:	2101      	movs	r1, #1
 8001c2c:	430a      	orrs	r2, r1
 8001c2e:	619a      	str	r2, [r3, #24]
  }
}
 8001c30:	46c0      	nop			; (mov r8, r8)
 8001c32:	46bd      	mov	sp, r7
 8001c34:	b002      	add	sp, #8
 8001c36:	bd80      	pop	{r7, pc}

08001c38 <I2C_WaitOnFlagUntilTimeout>:
  * @param  Tickstart Tick start value
  * @retval HAL status
  */
static HAL_StatusTypeDef I2C_WaitOnFlagUntilTimeout(I2C_HandleTypeDef *hi2c, uint32_t Flag, FlagStatus Status,
                                                    uint32_t Timeout, uint32_t Tickstart)
{
 8001c38:	b580      	push	{r7, lr}
 8001c3a:	b084      	sub	sp, #16
 8001c3c:	af00      	add	r7, sp, #0
 8001c3e:	60f8      	str	r0, [r7, #12]
 8001c40:	60b9      	str	r1, [r7, #8]
 8001c42:	603b      	str	r3, [r7, #0]
 8001c44:	1dfb      	adds	r3, r7, #7
 8001c46:	701a      	strb	r2, [r3, #0]
  while (__HAL_I2C_GET_FLAG(hi2c, Flag) == Status)
 8001c48:	e021      	b.n	8001c8e <I2C_WaitOnFlagUntilTimeout+0x56>
  {
    /* Check for the Timeout */
    if (Timeout != HAL_MAX_DELAY)
 8001c4a:	683b      	ldr	r3, [r7, #0]
 8001c4c:	3301      	adds	r3, #1
 8001c4e:	d01e      	beq.n	8001c8e <I2C_WaitOnFlagUntilTimeout+0x56>
    {
      if (((HAL_GetTick() - Tickstart) > Timeout) || (Timeout == 0U))
 8001c50:	f7ff f986 	bl	8000f60 <HAL_GetTick>
 8001c54:	0002      	movs	r2, r0
 8001c56:	69bb      	ldr	r3, [r7, #24]
 8001c58:	1ad3      	subs	r3, r2, r3
 8001c5a:	683a      	ldr	r2, [r7, #0]
 8001c5c:	429a      	cmp	r2, r3
 8001c5e:	d302      	bcc.n	8001c66 <I2C_WaitOnFlagUntilTimeout+0x2e>
 8001c60:	683b      	ldr	r3, [r7, #0]
 8001c62:	2b00      	cmp	r3, #0
 8001c64:	d113      	bne.n	8001c8e <I2C_WaitOnFlagUntilTimeout+0x56>
      {
        hi2c->ErrorCode |= HAL_I2C_ERROR_TIMEOUT;
 8001c66:	68fb      	ldr	r3, [r7, #12]
 8001c68:	6c5b      	ldr	r3, [r3, #68]	; 0x44
 8001c6a:	2220      	movs	r2, #32
 8001c6c:	431a      	orrs	r2, r3
 8001c6e:	68fb      	ldr	r3, [r7, #12]
 8001c70:	645a      	str	r2, [r3, #68]	; 0x44
        hi2c->State = HAL_I2C_STATE_READY;
 8001c72:	68fb      	ldr	r3, [r7, #12]
 8001c74:	2241      	movs	r2, #65	; 0x41
 8001c76:	2120      	movs	r1, #32
 8001c78:	5499      	strb	r1, [r3, r2]
        hi2c->Mode = HAL_I2C_MODE_NONE;
 8001c7a:	68fb      	ldr	r3, [r7, #12]
 8001c7c:	2242      	movs	r2, #66	; 0x42
 8001c7e:	2100      	movs	r1, #0
 8001c80:	5499      	strb	r1, [r3, r2]

        /* Process Unlocked */
        __HAL_UNLOCK(hi2c);
 8001c82:	68fb      	ldr	r3, [r7, #12]
 8001c84:	2240      	movs	r2, #64	; 0x40
 8001c86:	2100      	movs	r1, #0
 8001c88:	5499      	strb	r1, [r3, r2]
        return HAL_ERROR;
 8001c8a:	2301      	movs	r3, #1
 8001c8c:	e00f      	b.n	8001cae <I2C_WaitOnFlagUntilTimeout+0x76>
  while (__HAL_I2C_GET_FLAG(hi2c, Flag) == Status)
 8001c8e:	68fb      	ldr	r3, [r7, #12]
 8001c90:	681b      	ldr	r3, [r3, #0]
 8001c92:	699b      	ldr	r3, [r3, #24]
 8001c94:	68ba      	ldr	r2, [r7, #8]
 8001c96:	4013      	ands	r3, r2
 8001c98:	68ba      	ldr	r2, [r7, #8]
 8001c9a:	1ad3      	subs	r3, r2, r3
 8001c9c:	425a      	negs	r2, r3
 8001c9e:	4153      	adcs	r3, r2
 8001ca0:	b2db      	uxtb	r3, r3
 8001ca2:	001a      	movs	r2, r3
 8001ca4:	1dfb      	adds	r3, r7, #7
 8001ca6:	781b      	ldrb	r3, [r3, #0]
 8001ca8:	429a      	cmp	r2, r3
 8001caa:	d0ce      	beq.n	8001c4a <I2C_WaitOnFlagUntilTimeout+0x12>
      }
    }
  }
  return HAL_OK;
 8001cac:	2300      	movs	r3, #0
}
 8001cae:	0018      	movs	r0, r3
 8001cb0:	46bd      	mov	sp, r7
 8001cb2:	b004      	add	sp, #16
 8001cb4:	bd80      	pop	{r7, pc}

08001cb6 <I2C_WaitOnTXISFlagUntilTimeout>:
  * @param  Tickstart Tick start value
  * @retval HAL status
  */
static HAL_StatusTypeDef I2C_WaitOnTXISFlagUntilTimeout(I2C_HandleTypeDef *hi2c, uint32_t Timeout,
                                                        uint32_t Tickstart)
{
 8001cb6:	b580      	push	{r7, lr}
 8001cb8:	b084      	sub	sp, #16
 8001cba:	af00      	add	r7, sp, #0
 8001cbc:	60f8      	str	r0, [r7, #12]
 8001cbe:	60b9      	str	r1, [r7, #8]
 8001cc0:	607a      	str	r2, [r7, #4]
  while (__HAL_I2C_GET_FLAG(hi2c, I2C_FLAG_TXIS) == RESET)
 8001cc2:	e02b      	b.n	8001d1c <I2C_WaitOnTXISFlagUntilTimeout+0x66>
  {
    /* Check if a NACK is detected */
    if (I2C_IsAcknowledgeFailed(hi2c, Timeout, Tickstart) != HAL_OK)
 8001cc4:	687a      	ldr	r2, [r7, #4]
 8001cc6:	68b9      	ldr	r1, [r7, #8]
 8001cc8:	68fb      	ldr	r3, [r7, #12]
 8001cca:	0018      	movs	r0, r3
 8001ccc:	f000 f86e 	bl	8001dac <I2C_IsAcknowledgeFailed>
 8001cd0:	1e03      	subs	r3, r0, #0
 8001cd2:	d001      	beq.n	8001cd8 <I2C_WaitOnTXISFlagUntilTimeout+0x22>
    {
      return HAL_ERROR;
 8001cd4:	2301      	movs	r3, #1
 8001cd6:	e029      	b.n	8001d2c <I2C_WaitOnTXISFlagUntilTimeout+0x76>
    }

    /* Check for the Timeout */
    if (Timeout != HAL_MAX_DELAY)
 8001cd8:	68bb      	ldr	r3, [r7, #8]
 8001cda:	3301      	adds	r3, #1
 8001cdc:	d01e      	beq.n	8001d1c <I2C_WaitOnTXISFlagUntilTimeout+0x66>
    {
      if (((HAL_GetTick() - Tickstart) > Timeout) || (Timeout == 0U))
 8001cde:	f7ff f93f 	bl	8000f60 <HAL_GetTick>
 8001ce2:	0002      	movs	r2, r0
 8001ce4:	687b      	ldr	r3, [r7, #4]
 8001ce6:	1ad3      	subs	r3, r2, r3
 8001ce8:	68ba      	ldr	r2, [r7, #8]
 8001cea:	429a      	cmp	r2, r3
 8001cec:	d302      	bcc.n	8001cf4 <I2C_WaitOnTXISFlagUntilTimeout+0x3e>
 8001cee:	68bb      	ldr	r3, [r7, #8]
 8001cf0:	2b00      	cmp	r3, #0
 8001cf2:	d113      	bne.n	8001d1c <I2C_WaitOnTXISFlagUntilTimeout+0x66>
      {
        hi2c->ErrorCode |= HAL_I2C_ERROR_TIMEOUT;
 8001cf4:	68fb      	ldr	r3, [r7, #12]
 8001cf6:	6c5b      	ldr	r3, [r3, #68]	; 0x44
 8001cf8:	2220      	movs	r2, #32
 8001cfa:	431a      	orrs	r2, r3
 8001cfc:	68fb      	ldr	r3, [r7, #12]
 8001cfe:	645a      	str	r2, [r3, #68]	; 0x44
        hi2c->State = HAL_I2C_STATE_READY;
 8001d00:	68fb      	ldr	r3, [r7, #12]
 8001d02:	2241      	movs	r2, #65	; 0x41
 8001d04:	2120      	movs	r1, #32
 8001d06:	5499      	strb	r1, [r3, r2]
        hi2c->Mode = HAL_I2C_MODE_NONE;
 8001d08:	68fb      	ldr	r3, [r7, #12]
 8001d0a:	2242      	movs	r2, #66	; 0x42
 8001d0c:	2100      	movs	r1, #0
 8001d0e:	5499      	strb	r1, [r3, r2]

        /* Process Unlocked */
        __HAL_UNLOCK(hi2c);
 8001d10:	68fb      	ldr	r3, [r7, #12]
 8001d12:	2240      	movs	r2, #64	; 0x40
 8001d14:	2100      	movs	r1, #0
 8001d16:	5499      	strb	r1, [r3, r2]

        return HAL_ERROR;
 8001d18:	2301      	movs	r3, #1
 8001d1a:	e007      	b.n	8001d2c <I2C_WaitOnTXISFlagUntilTimeout+0x76>
  while (__HAL_I2C_GET_FLAG(hi2c, I2C_FLAG_TXIS) == RESET)
 8001d1c:	68fb      	ldr	r3, [r7, #12]
 8001d1e:	681b      	ldr	r3, [r3, #0]
 8001d20:	699b      	ldr	r3, [r3, #24]
 8001d22:	2202      	movs	r2, #2
 8001d24:	4013      	ands	r3, r2
 8001d26:	2b02      	cmp	r3, #2
 8001d28:	d1cc      	bne.n	8001cc4 <I2C_WaitOnTXISFlagUntilTimeout+0xe>
      }
    }
  }
  return HAL_OK;
 8001d2a:	2300      	movs	r3, #0
}
 8001d2c:	0018      	movs	r0, r3
 8001d2e:	46bd      	mov	sp, r7
 8001d30:	b004      	add	sp, #16
 8001d32:	bd80      	pop	{r7, pc}

08001d34 <I2C_WaitOnSTOPFlagUntilTimeout>:
  * @param  Tickstart Tick start value
  * @retval HAL status
  */
static HAL_StatusTypeDef I2C_WaitOnSTOPFlagUntilTimeout(I2C_HandleTypeDef *hi2c, uint32_t Timeout,
                                                        uint32_t Tickstart)
{
 8001d34:	b580      	push	{r7, lr}
 8001d36:	b084      	sub	sp, #16
 8001d38:	af00      	add	r7, sp, #0
 8001d3a:	60f8      	str	r0, [r7, #12]
 8001d3c:	60b9      	str	r1, [r7, #8]
 8001d3e:	607a      	str	r2, [r7, #4]
  while (__HAL_I2C_GET_FLAG(hi2c, I2C_FLAG_STOPF) == RESET)
 8001d40:	e028      	b.n	8001d94 <I2C_WaitOnSTOPFlagUntilTimeout+0x60>
  {
    /* Check if a NACK is detected */
    if (I2C_IsAcknowledgeFailed(hi2c, Timeout, Tickstart) != HAL_OK)
 8001d42:	687a      	ldr	r2, [r7, #4]
 8001d44:	68b9      	ldr	r1, [r7, #8]
 8001d46:	68fb      	ldr	r3, [r7, #12]
 8001d48:	0018      	movs	r0, r3
 8001d4a:	f000 f82f 	bl	8001dac <I2C_IsAcknowledgeFailed>
 8001d4e:	1e03      	subs	r3, r0, #0
 8001d50:	d001      	beq.n	8001d56 <I2C_WaitOnSTOPFlagUntilTimeout+0x22>
    {
      return HAL_ERROR;
 8001d52:	2301      	movs	r3, #1
 8001d54:	e026      	b.n	8001da4 <I2C_WaitOnSTOPFlagUntilTimeout+0x70>
    }

    /* Check for the Timeout */
    if (((HAL_GetTick() - Tickstart) > Timeout) || (Timeout == 0U))
 8001d56:	f7ff f903 	bl	8000f60 <HAL_GetTick>
 8001d5a:	0002      	movs	r2, r0
 8001d5c:	687b      	ldr	r3, [r7, #4]
 8001d5e:	1ad3      	subs	r3, r2, r3
 8001d60:	68ba      	ldr	r2, [r7, #8]
 8001d62:	429a      	cmp	r2, r3
 8001d64:	d302      	bcc.n	8001d6c <I2C_WaitOnSTOPFlagUntilTimeout+0x38>
 8001d66:	68bb      	ldr	r3, [r7, #8]
 8001d68:	2b00      	cmp	r3, #0
 8001d6a:	d113      	bne.n	8001d94 <I2C_WaitOnSTOPFlagUntilTimeout+0x60>
    {
      hi2c->ErrorCode |= HAL_I2C_ERROR_TIMEOUT;
 8001d6c:	68fb      	ldr	r3, [r7, #12]
 8001d6e:	6c5b      	ldr	r3, [r3, #68]	; 0x44
 8001d70:	2220      	movs	r2, #32
 8001d72:	431a      	orrs	r2, r3
 8001d74:	68fb      	ldr	r3, [r7, #12]
 8001d76:	645a      	str	r2, [r3, #68]	; 0x44
      hi2c->State = HAL_I2C_STATE_READY;
 8001d78:	68fb      	ldr	r3, [r7, #12]
 8001d7a:	2241      	movs	r2, #65	; 0x41
 8001d7c:	2120      	movs	r1, #32
 8001d7e:	5499      	strb	r1, [r3, r2]
      hi2c->Mode = HAL_I2C_MODE_NONE;
 8001d80:	68fb      	ldr	r3, [r7, #12]
 8001d82:	2242      	movs	r2, #66	; 0x42
 8001d84:	2100      	movs	r1, #0
 8001d86:	5499      	strb	r1, [r3, r2]

      /* Process Unlocked */
      __HAL_UNLOCK(hi2c);
 8001d88:	68fb      	ldr	r3, [r7, #12]
 8001d8a:	2240      	movs	r2, #64	; 0x40
 8001d8c:	2100      	movs	r1, #0
 8001d8e:	5499      	strb	r1, [r3, r2]

      return HAL_ERROR;
 8001d90:	2301      	movs	r3, #1
 8001d92:	e007      	b.n	8001da4 <I2C_WaitOnSTOPFlagUntilTimeout+0x70>
  while (__HAL_I2C_GET_FLAG(hi2c, I2C_FLAG_STOPF) == RESET)
 8001d94:	68fb      	ldr	r3, [r7, #12]
 8001d96:	681b      	ldr	r3, [r3, #0]
 8001d98:	699b      	ldr	r3, [r3, #24]
 8001d9a:	2220      	movs	r2, #32
 8001d9c:	4013      	ands	r3, r2
 8001d9e:	2b20      	cmp	r3, #32
 8001da0:	d1cf      	bne.n	8001d42 <I2C_WaitOnSTOPFlagUntilTimeout+0xe>
    }
  }
  return HAL_OK;
 8001da2:	2300      	movs	r3, #0
}
 8001da4:	0018      	movs	r0, r3
 8001da6:	46bd      	mov	sp, r7
 8001da8:	b004      	add	sp, #16
 8001daa:	bd80      	pop	{r7, pc}

08001dac <I2C_IsAcknowledgeFailed>:
  * @param  Timeout Timeout duration
  * @param  Tickstart Tick start value
  * @retval HAL status
  */
static HAL_StatusTypeDef I2C_IsAcknowledgeFailed(I2C_HandleTypeDef *hi2c, uint32_t Timeout, uint32_t Tickstart)
{
 8001dac:	b580      	push	{r7, lr}
 8001dae:	b084      	sub	sp, #16
 8001db0:	af00      	add	r7, sp, #0
 8001db2:	60f8      	str	r0, [r7, #12]
 8001db4:	60b9      	str	r1, [r7, #8]
 8001db6:	607a      	str	r2, [r7, #4]
  if (__HAL_I2C_GET_FLAG(hi2c, I2C_FLAG_AF) == SET)
 8001db8:	68fb      	ldr	r3, [r7, #12]
 8001dba:	681b      	ldr	r3, [r3, #0]
 8001dbc:	699b      	ldr	r3, [r3, #24]
 8001dbe:	2210      	movs	r2, #16
 8001dc0:	4013      	ands	r3, r2
 8001dc2:	2b10      	cmp	r3, #16
 8001dc4:	d164      	bne.n	8001e90 <I2C_IsAcknowledgeFailed+0xe4>
  {
    /* In case of Soft End condition, generate the STOP condition */
    if (I2C_GET_STOP_MODE(hi2c) != I2C_AUTOEND_MODE)
 8001dc6:	68fb      	ldr	r3, [r7, #12]
 8001dc8:	681b      	ldr	r3, [r3, #0]
 8001dca:	685a      	ldr	r2, [r3, #4]
 8001dcc:	2380      	movs	r3, #128	; 0x80
 8001dce:	049b      	lsls	r3, r3, #18
 8001dd0:	401a      	ands	r2, r3
 8001dd2:	2380      	movs	r3, #128	; 0x80
 8001dd4:	049b      	lsls	r3, r3, #18
 8001dd6:	429a      	cmp	r2, r3
 8001dd8:	d02b      	beq.n	8001e32 <I2C_IsAcknowledgeFailed+0x86>
    {
      /* Generate Stop */
      hi2c->Instance->CR2 |= I2C_CR2_STOP;
 8001dda:	68fb      	ldr	r3, [r7, #12]
 8001ddc:	681b      	ldr	r3, [r3, #0]
 8001dde:	685a      	ldr	r2, [r3, #4]
 8001de0:	68fb      	ldr	r3, [r7, #12]
 8001de2:	681b      	ldr	r3, [r3, #0]
 8001de4:	2180      	movs	r1, #128	; 0x80
 8001de6:	01c9      	lsls	r1, r1, #7
 8001de8:	430a      	orrs	r2, r1
 8001dea:	605a      	str	r2, [r3, #4]
    }
    /* Wait until STOP Flag is reset */
    /* AutoEnd should be initiate after AF */
    while (__HAL_I2C_GET_FLAG(hi2c, I2C_FLAG_STOPF) == RESET)
 8001dec:	e021      	b.n	8001e32 <I2C_IsAcknowledgeFailed+0x86>
    {
      /* Check for the Timeout */
      if (Timeout != HAL_MAX_DELAY)
 8001dee:	68bb      	ldr	r3, [r7, #8]
 8001df0:	3301      	adds	r3, #1
 8001df2:	d01e      	beq.n	8001e32 <I2C_IsAcknowledgeFailed+0x86>
      {
        if (((HAL_GetTick() - Tickstart) > Timeout) || (Timeout == 0U))
 8001df4:	f7ff f8b4 	bl	8000f60 <HAL_GetTick>
 8001df8:	0002      	movs	r2, r0
 8001dfa:	687b      	ldr	r3, [r7, #4]
 8001dfc:	1ad3      	subs	r3, r2, r3
 8001dfe:	68ba      	ldr	r2, [r7, #8]
 8001e00:	429a      	cmp	r2, r3
 8001e02:	d302      	bcc.n	8001e0a <I2C_IsAcknowledgeFailed+0x5e>
 8001e04:	68bb      	ldr	r3, [r7, #8]
 8001e06:	2b00      	cmp	r3, #0
 8001e08:	d113      	bne.n	8001e32 <I2C_IsAcknowledgeFailed+0x86>
        {
          hi2c->ErrorCode |= HAL_I2C_ERROR_TIMEOUT;
 8001e0a:	68fb      	ldr	r3, [r7, #12]
 8001e0c:	6c5b      	ldr	r3, [r3, #68]	; 0x44
 8001e0e:	2220      	movs	r2, #32
 8001e10:	431a      	orrs	r2, r3
 8001e12:	68fb      	ldr	r3, [r7, #12]
 8001e14:	645a      	str	r2, [r3, #68]	; 0x44
          hi2c->State = HAL_I2C_STATE_READY;
 8001e16:	68fb      	ldr	r3, [r7, #12]
 8001e18:	2241      	movs	r2, #65	; 0x41
 8001e1a:	2120      	movs	r1, #32
 8001e1c:	5499      	strb	r1, [r3, r2]
          hi2c->Mode = HAL_I2C_MODE_NONE;
 8001e1e:	68fb      	ldr	r3, [r7, #12]
 8001e20:	2242      	movs	r2, #66	; 0x42
 8001e22:	2100      	movs	r1, #0
 8001e24:	5499      	strb	r1, [r3, r2]

          /* Process Unlocked */
          __HAL_UNLOCK(hi2c);
 8001e26:	68fb      	ldr	r3, [r7, #12]
 8001e28:	2240      	movs	r2, #64	; 0x40
 8001e2a:	2100      	movs	r1, #0
 8001e2c:	5499      	strb	r1, [r3, r2]

          return HAL_ERROR;
 8001e2e:	2301      	movs	r3, #1
 8001e30:	e02f      	b.n	8001e92 <I2C_IsAcknowledgeFailed+0xe6>
    while (__HAL_I2C_GET_FLAG(hi2c, I2C_FLAG_STOPF) == RESET)
 8001e32:	68fb      	ldr	r3, [r7, #12]
 8001e34:	681b      	ldr	r3, [r3, #0]
 8001e36:	699b      	ldr	r3, [r3, #24]
 8001e38:	2220      	movs	r2, #32
 8001e3a:	4013      	ands	r3, r2
 8001e3c:	2b20      	cmp	r3, #32
 8001e3e:	d1d6      	bne.n	8001dee <I2C_IsAcknowledgeFailed+0x42>
        }
      }
    }

    /* Clear NACKF Flag */
    __HAL_I2C_CLEAR_FLAG(hi2c, I2C_FLAG_AF);
 8001e40:	68fb      	ldr	r3, [r7, #12]
 8001e42:	681b      	ldr	r3, [r3, #0]
 8001e44:	2210      	movs	r2, #16
 8001e46:	61da      	str	r2, [r3, #28]

    /* Clear STOP Flag */
    __HAL_I2C_CLEAR_FLAG(hi2c, I2C_FLAG_STOPF);
 8001e48:	68fb      	ldr	r3, [r7, #12]
 8001e4a:	681b      	ldr	r3, [r3, #0]
 8001e4c:	2220      	movs	r2, #32
 8001e4e:	61da      	str	r2, [r3, #28]

    /* Flush TX register */
    I2C_Flush_TXDR(hi2c);
 8001e50:	68fb      	ldr	r3, [r7, #12]
 8001e52:	0018      	movs	r0, r3
 8001e54:	f7ff fece 	bl	8001bf4 <I2C_Flush_TXDR>

    /* Clear Configuration Register 2 */
    I2C_RESET_CR2(hi2c);
 8001e58:	68fb      	ldr	r3, [r7, #12]
 8001e5a:	681b      	ldr	r3, [r3, #0]
 8001e5c:	685a      	ldr	r2, [r3, #4]
 8001e5e:	68fb      	ldr	r3, [r7, #12]
 8001e60:	681b      	ldr	r3, [r3, #0]
 8001e62:	490e      	ldr	r1, [pc, #56]	; (8001e9c <I2C_IsAcknowledgeFailed+0xf0>)
 8001e64:	400a      	ands	r2, r1
 8001e66:	605a      	str	r2, [r3, #4]

    hi2c->ErrorCode |= HAL_I2C_ERROR_AF;
 8001e68:	68fb      	ldr	r3, [r7, #12]
 8001e6a:	6c5b      	ldr	r3, [r3, #68]	; 0x44
 8001e6c:	2204      	movs	r2, #4
 8001e6e:	431a      	orrs	r2, r3
 8001e70:	68fb      	ldr	r3, [r7, #12]
 8001e72:	645a      	str	r2, [r3, #68]	; 0x44
    hi2c->State = HAL_I2C_STATE_READY;
 8001e74:	68fb      	ldr	r3, [r7, #12]
 8001e76:	2241      	movs	r2, #65	; 0x41
 8001e78:	2120      	movs	r1, #32
 8001e7a:	5499      	strb	r1, [r3, r2]
    hi2c->Mode = HAL_I2C_MODE_NONE;
 8001e7c:	68fb      	ldr	r3, [r7, #12]
 8001e7e:	2242      	movs	r2, #66	; 0x42
 8001e80:	2100      	movs	r1, #0
 8001e82:	5499      	strb	r1, [r3, r2]

    /* Process Unlocked */
    __HAL_UNLOCK(hi2c);
 8001e84:	68fb      	ldr	r3, [r7, #12]
 8001e86:	2240      	movs	r2, #64	; 0x40
 8001e88:	2100      	movs	r1, #0
 8001e8a:	5499      	strb	r1, [r3, r2]

    return HAL_ERROR;
 8001e8c:	2301      	movs	r3, #1
 8001e8e:	e000      	b.n	8001e92 <I2C_IsAcknowledgeFailed+0xe6>
  }
  return HAL_OK;
 8001e90:	2300      	movs	r3, #0
}
 8001e92:	0018      	movs	r0, r3
 8001e94:	46bd      	mov	sp, r7
 8001e96:	b004      	add	sp, #16
 8001e98:	bd80      	pop	{r7, pc}
 8001e9a:	46c0      	nop			; (mov r8, r8)
 8001e9c:	fe00e800 	.word	0xfe00e800

08001ea0 <I2C_TransferConfig>:
  *     @arg @ref I2C_GENERATE_START_WRITE Generate Restart for write request.
  * @retval None
  */
static void I2C_TransferConfig(I2C_HandleTypeDef *hi2c, uint16_t DevAddress, uint8_t Size, uint32_t Mode,
                               uint32_t Request)
{
 8001ea0:	b590      	push	{r4, r7, lr}
 8001ea2:	b085      	sub	sp, #20
 8001ea4:	af00      	add	r7, sp, #0
 8001ea6:	60f8      	str	r0, [r7, #12]
 8001ea8:	0008      	movs	r0, r1
 8001eaa:	0011      	movs	r1, r2
 8001eac:	607b      	str	r3, [r7, #4]
 8001eae:	240a      	movs	r4, #10
 8001eb0:	193b      	adds	r3, r7, r4
 8001eb2:	1c02      	adds	r2, r0, #0
 8001eb4:	801a      	strh	r2, [r3, #0]
 8001eb6:	2009      	movs	r0, #9
 8001eb8:	183b      	adds	r3, r7, r0
 8001eba:	1c0a      	adds	r2, r1, #0
 8001ebc:	701a      	strb	r2, [r3, #0]
  assert_param(IS_I2C_ALL_INSTANCE(hi2c->Instance));
  assert_param(IS_TRANSFER_MODE(Mode));
  assert_param(IS_TRANSFER_REQUEST(Request));

  /* update CR2 register */
  MODIFY_REG(hi2c->Instance->CR2,
 8001ebe:	68fb      	ldr	r3, [r7, #12]
 8001ec0:	681b      	ldr	r3, [r3, #0]
 8001ec2:	685b      	ldr	r3, [r3, #4]
 8001ec4:	6a3a      	ldr	r2, [r7, #32]
 8001ec6:	0d51      	lsrs	r1, r2, #21
 8001ec8:	2280      	movs	r2, #128	; 0x80
 8001eca:	00d2      	lsls	r2, r2, #3
 8001ecc:	400a      	ands	r2, r1
 8001ece:	490e      	ldr	r1, [pc, #56]	; (8001f08 <I2C_TransferConfig+0x68>)
 8001ed0:	430a      	orrs	r2, r1
 8001ed2:	43d2      	mvns	r2, r2
 8001ed4:	401a      	ands	r2, r3
 8001ed6:	0011      	movs	r1, r2
 8001ed8:	193b      	adds	r3, r7, r4
 8001eda:	881b      	ldrh	r3, [r3, #0]
 8001edc:	059b      	lsls	r3, r3, #22
 8001ede:	0d9a      	lsrs	r2, r3, #22
 8001ee0:	183b      	adds	r3, r7, r0
 8001ee2:	781b      	ldrb	r3, [r3, #0]
 8001ee4:	0418      	lsls	r0, r3, #16
 8001ee6:	23ff      	movs	r3, #255	; 0xff
 8001ee8:	041b      	lsls	r3, r3, #16
 8001eea:	4003      	ands	r3, r0
 8001eec:	431a      	orrs	r2, r3
 8001eee:	687b      	ldr	r3, [r7, #4]
 8001ef0:	431a      	orrs	r2, r3
 8001ef2:	6a3b      	ldr	r3, [r7, #32]
 8001ef4:	431a      	orrs	r2, r3
 8001ef6:	68fb      	ldr	r3, [r7, #12]
